:020000040000FA
:040000008131B12970
:1000060008007E1480312E00100803190B280C28D6
:10001600DF2823002808031911281228DF282809B9
:10002600FA007A082E00900501302200E50700301C
:10003600E63D0030E73D0030E83D2000190C01396F
:10004600FA000130FA06FA0D19087A06FD397A0621
:1000560099000030F3000030F2000030F100323039
:10006600F00022006808F7006708F6006608F50049
:100076006508F4008831072080310030F300003035
:10008600F2000130F1004D30F00022006808F70060
:100096006708F6006608F5006508F4008831072051
:1000A60080317308720471047004031D5B285C2898
:1000B600C0280030F3000030F2000230F1009A3020
:1000C600F00022006808F7006708F6006608F500E9
:1000D6006508F400883107208031730872047104C2
:1000E6007004031D77287828842820001808013911
:1000F600FA000130FA0618087A06FE397A069800E0
:10010600C0280030F3000030F2000330F100E73081
:10011600F00022006808F7006708F6006608F50098
:100126006508F40088310720803173087204710471
:100136007004031D9F28A028B2282000160EFA007E
:10014600FA0C7A0C0139FA000130FA06FA0EFA0DA9
:10015600FA0D16087A06BF397A069600C0282000DE
:10016600160D160D0139FA000130FA06FA0CFA0CD2
:1001760016087A067F397A0696000030F3000030BA
:10018600F2000730F100D030F00022006808F700D6
:100196006708F6006608F5006508F4008831072050
:1001A60080317308720471047004031DDB28DC2897
:1001B600DF282200EE01EE0A2E000C1CE328E428BC
:1001C600E8280C102200ED01ED0A2E000F1EEC2887
:1001D600ED280D290F1220006A086906031DF42870
:1001E600F528FE287D08031DF928FA28FE282E008A
:1001F60019120F120C296A08F03E86008701223078
:10020600873D010822009A000130FA007A08200092
:10021600EA07FD012E008F1E11291229AF298F1220
:100226002000A001A10122001D1D1A291B291E293B
:100236002000A001A00A22009D1C22292329292989
:100246002000A101A10A22001D121D16200021086E
:10025600031D2E292F29AF2922001908FA007A0832
:100266002000A2002008031D39293A29AF29403071
:10027600680203183F29402994290A3022060319E7
:10028600452946295F290D30220603194B294C2999
:100296005F2922080319502951295F292208FA00EB
:1002A6006808203E8600023087007A088100013007
:1002B600FA007A08E807AF29680803196329642950
:1002C600AF29A3017E292308203E8600023087003D
:1002D6000108FA002308A03E8600023087007A084B
:1002E60081002308203E860002308700810101300C
:1002F600FA007A08A30768082302031C83298429C5
:1003060066296808A03E86000230870081016808D9
:10031600FA007A08FB002100EF01EF0A2000E8014D
:10032600AF29A4012408203E8600023087008101FF
:100336002408A03E86000230870081010130FA00C1
:100346007A08A40740302402031CAA29AB29952960
:10035600E8012100EF01AF297E1009008131B329A0
:10036600F0308400223085000030FE000130FF00AE
:100376009531D1258131FB01FC01FD012000E6010B
:10038600E701E801E901EA012100EA01EB01EC01DC
:10039600ED01EE01EF0165308400013085000A3081
:1003A600FE000030FF009531D1258131A030840058
:1003B600013085003230FE000030FF009531D12536
:1003C600813120308400023085004030FE0000304C
:1003D600FF009531D1258131A0308400023085009F
:1003E6004030FE000030FF009531D12581317E106E
:1003F60020008B31C12B2100BB0020006408860041
:100406008701403F2100A000413FA1002008840051
:10041600210885001200253A031D122A132A2A2CC8
:1004260020006408860087010130810741310318E6
:10043600810A2100EA01EB012000E601E701FF3015
:100446002100EC00FF30ED00B701B8016C2A200056
:10045600661464088600870101308107413103185C
:10046600810A6C2A2000E6142C2A200066152C2A04
:100476002000E6152C2A200066162C2A0130B7002B
:100486000030B8006C2A2000640886008701403FCF
:100496002100A000413FA10020088400210885001A
:1004A6000008A200A3012308003A03195B2A412A87
:1004B6002208203A03193B2A033A03193E2A083A2E
:1004C6000319382A063A03192A2A1D3A0319352A26
:1004D600412A2100370838040319722A732A462A4A
:1004E6002000661C772A782A7C2AFD30E605FF3034
:1004F600E705640886008701403F2100A000413FD0
:10050600A100200884002108850012002A3A031D54
:100516008D2A8E2AB12A20006408860087010130C0
:10052600810741310318810A6508860087010108A1
:100536008400850102308107003F2100EA00013F67
:10054600EB00EB1FA72AA82AF92A2000661421002F
:10055600EA09EB09EA0A0319EB0AF92A20006408FA
:1005660086008701403FAB00413FAC008B31122330
:10057600813120002C082100EB0020002B082100EF
:10058600EA00CE2A20006408860087010130810730
:1005960041310318810A2000640886008701403F24
:1005A6002100A000413FA100200884002108850009
:1005B6000008D03EA200FF3003180030A300003030
:1005C60023020A3003192202031CEA2AEC2A01300C
:1005D600ED2A0030A400A5012408B9002508BA00B8
:1005E60039083A04031DF82AF92AC52A20006408A6
:1005F60086008701403F2100A000413FA10020085E
:100606008400210885001200643A03190B2B0C2B79
:100616001F2B2000640886008701403F2100A000B0
:10062600413FA10020088400210885001200693A94
:10063600031D1E2B1F2B6C2B2000640886008701D0
:100646000130810741310318810A65088600870158
:1006560001088400850102308107003F2100A000C7
:10066600013FA1002008A6002108A700890D893BAB
:100676008909A800A900AA00AB00AC00AD002608B5
:100686002000C000210027082000C1002100280802
:100696002000C200210029082000C30021002A08EA
:1006A6002000C40021002B082000C50021002C08D2
:1006B6002000C60021002D082000C70021003B08AD
:1006C6008531C925813120004108E5004008E40054
:1006D600542C2000640886008701403F2100A000BA
:1006E600413FA10020088400210885001200783AC5
:1006F60003197E2B7F2B922B20006408860087012E
:10070600403F2100A000413FA100200884002108AD
:1007160085001200583A031D912B922BEF2B2000D7
:10072600640886008701403F2100A000413FA100E8
:1007360020088400210885000008A2002208B600CF
:1007460020006408860087010130810741310318C3
:10075600810A650886008701010884008501023048
:100766008107003F2100AE00013FAF00B001B1019B
:10077600B201B301B401B5012E082000BE0021006C
:100786002F082000BF00210030082000C0002100F3
:1007960031082000C100210032082000C2002100DB
:1007A60033082000C300210034082000C4002100C3
:1007B60035082000C50021003608A00020082000CA
:1007C600C60021003B0884315524813120003F08B2
:1007D600E5003E08E400542C2000640886008701EA
:1007E600403F2100A000413FA100200884002108CD
:1007F60085001200253A031D012C022C1E2C200018
:100806006408860087010130810741310318810A97
:100816002530A5000030A60021003B08A0002008D6
:100826002000A70088315120813101302000E400EA
:100836000030E500542C2000640886008701013052
:10084600810741310318810AE401E501542C200097
:10085600640886008701403F2100A000413FA100B7
:1008660020088400210885000008A200A3012208B0
:100876002000A500210023082000A60021003B0837
:10088600A40024082000A7008831512081312000CF
:100896006408860087010130810741310318810A07
:1008A600182C08002000CF002100ED1B5B2C5C2CCF
:1008B600612CFD302000E605FF30E70521006D08BC
:1008C600803A2000C70080304702031D6D2C01309E
:1008D60021006C020318702C712C772C013020003B
:1008E600D4000030D5007F2C21006D082000D500F3
:1008F60021006C082000D40021006B082000D700DE
:1009060021006A082000D600661E8A2C8B2C8F2CAC
:10091600FE30D607FF30D73D3E08D8003F08D90045
:100926004008DA004108DB004208DC004308DD002D
:100936004408DE004508DF001F30E0000030E1001B
:100946002300D1015C2DFF302000E007FF30E13DA0
:100956000F305805E20000305905E3006308803A7D
:10096600C70080304702031DBA2C0A306202031CFE
:10097600BD2CBE2CC62C20006208573EE20000307B
:10098600633DE300CD2C20006208303EE2000030DB
:10099600633DE3004608BF3EC700FF300318003042
:1009A600C800003048021A3003194702031CDC2C29
:1009B600DE2C0130DF2C0030C900CA014908D00006
:1009C6004A08D100500851040319EA2CEB2C1A2DC1
:1009D60020306204C70000306304C80047089F3E09
:1009E600C900FF30483DCA0000304A021A300319D8
:1009F6004902031CFF2C012D0130022D0030CB00D3
:100A0600CC014B08D2004C08D300520853040319FA
:100A16000D2D0E2D1A2D6308AC006208AB00973120
:100A26003C27843120002C08E3002B08E2006208F2
:100A3600C7006008B23E8600013087004708810083
:100A4600FF30D407FF30D53DFF30D607FF30D73D06
:100A56005830860000308700403FC700413FC8003D
:100A6600423FC900433FCA00443FCB00453FCC004C
:100A7600463FCD00473FCE0004302000CE36CD0C99
:100A8600CC0CCB0CCA0CC90CC80CC70C890B402D5E
:100A960020004E08DF004D08DE004C08DD004B0844
:100AA600DC004A08DB004908DA004808D900470894
:100AB600D80020006108803AC70080304702031D35
:100AC600662D02306002031C692D6A2D972D2000C9
:100AD600580859045A045B045C045D045E045F0410
:100AE600031D762D772DA62C5508803AC700803039
:100AF6004702031D802D013054020318832D842DD7
:100B0600A62C20005708803AC70080304702031DF4
:100B16008E2D01305602031C912D922D972D20000B
:100B2600E618962D972DA62C2000661E9B2D9C2D33
:100B3600B62DFF30E007FF30E13D4608C7006008EC
:100B4600B23E86000130870047088100FF30E0078B
:100B5600FF30E13D3030C7006008B23E860001300C
:100B66008700470881006008B23EC7004708B50005
:100B76005708B7005608B6004F088831A3208431BD
:100B860020003608BF003508BE0008002000CB0054
:100B96004008D4004108D5004208D6004308D700D3
:100BA6004408D8004508D9004608DA004708DB00A3
:100BB6005430860000308700473FC800C81BE42D2C
:100BC600E62D0130E72D00302000C900CA01490892
:100BD600D2004A08D300520853040319F32DF42D0A
:100BE600122ED409D509D609D709D809D909DA099F
:100BF600DB09D40A031D122ED50A031D122ED60AAE
:100C0600031D122ED70A031D122ED80A031D122EFB
:100C1600D90A031D122EDA0A031D122EDB0A210041
:100C2600ED1B162E172E1C2EFD302000E605FF307C
:100C3600E70521006D08803A2000C8008030480290
:100C4600031D282E013021006C0203182B2E2C2E9A
:100C5600322E01302000CE000030CF003A2E210087
:100C66006D082000CF0021006C082000CE00210076
:100C76006B082000D10021006A082000D00052082D
:100C86005304031D472E482E4C2E661D4B2E4C2E0C
:100C9600502EFF30D007FF30D13D1F30DC00003032
:100CA600DD002300D101C02EFF302000DC07FF301D
:100CB600DD3D0A30A500A601A701A801A901AA01E8
:100CC600AB01AC015408AD005508AE005608AF00A4
:100CD6005708B0005808B1005908B2005A08B300C6
:100CE6005B08B4008C31A824853120002608B900A1
:100CF6002508B80096317A26853120003808303E1E
:100D0600C8005C08B23E86000130870048088100B2
:100D1600FF30CE07FF30CF3DFF30D007FF30D13D4B
:100D26000A30A500A601A701A801A901AA01AB01E5
:100D3600AC015408AD005508AE005608AF00570880
:100D4600B0005808B1005908B2005A08B3005B0851
:100D5600B4008D319525853120002508D40026085C
:100D6600D5002708D6002808D7002908D8002A0861
:100D7600D9002B08DA002C08DB0020005D08803A39
:100D8600C80080304802031DCA2E01305C02031CD5
:100D9600CD2ECE2EFB2E20005408550456045704A3
:100DA600580459045A045B04031DDA2EDB2E572E11
:100DB6004F08803AC80080304802031DE42E0130F7
:100DC6004E020318E72EE82E572E20005108803ACF
:100DD600C80080304802031DF22E01305002031C69
:100DE600F52EF62EFB2E2000E618FA2EFB2E572E99
:100DF600200052085304031D012F022F062F661DE3
:100E0600052F062F222FFF30DC07FF30DD3D52086D
:100E16005304031D0F2F102F152F2B30CC0000303D
:100E2600CD00192F2D30CC000030CD004C08C80065
:100E36005C08B23E860001308700480881005C08E5
:100E4600B23EC8004808B5005108B7005008B600C1
:100E56004B088831A320853120003608C1003508AB
:100E6600C00008002000B301B30AB501FE30A5009A
:100E76002508B400B7013708AD3E8600013087006B
:100E860081010130A5002508B70705303702031C8C
:100E96004D2F4E2F3E2F19131413BC302000A500E2
:100EA6000130890B542FA50B542F0032200019173F
:100EB6006A30890B5C2F00328B1320001417B701A0
:100EC600B6016F2F0130A5002508B607360A031DA7
:100ED6006D2F6E2F6F2F782F0F0E890C890C01390D
:100EE60033060319772F782F652F00300F1B01303B
:100EF600B300360A031D802F812F822FB92F0430AD
:100F06003702031C872F882FAF2F37188B2F8C2F74
:100F1600AF2F3508A5000330A536890B8F2F25087E
:100F2600AD3E8600013087000310810D0F3036027A
:100F3600031C9E2F9F2FAB2F3508A5000330A53627
:100F4600890BA22F2508AD3E8600013087000114CB
:100F56000130A5002508B5070130A5002508B7070B
:100F660055303702031CB82FB92F632F8B17283043
:100F76003502031CBF2FC02FF32F2300300820009B
:100F8600A500A60123002F082000A700A801230022
:100F96002D082E072000A900AA01AA0D2708290757
:100FA600AB0028082A3DAC0025082B07AD00260813
:100FB6002C3DAE00FF302D05AF0000302E05B000F1
:100FC600230031082000B100B20130083206031DAB
:100FD600EE2F2F083106031DF12FF22FF32FB40148
:100FE600191714133408080020002508860026085F
:100FF60087008117B001B00A08003E00B801C3019E
:10100600CE01D901E401080073087204710470046A
:1010160003190E280F284828F901F90A1D2801305E
:10102600F035F10DF20DF30D890B13280130F800A0
:101036007808F907F31F2028212812287308770259
:10104600031D2F2872087602031D2F2871087502CA
:10105600031D2F2870087402031C322833283B28EE
:101066007008F4027108F53B7208F63B7308F73B0B
:101076000130F336F20CF10CF00C890B3C280130F0
:10108600F902031D4728482821287708F300760827
:10109600F2007508F1007408F00008002000270827
:1010A6000319562857285C282708031D5B285C2847
:1010B60061282508803103208831A2282708033EAD
:1010C600860087011600010403196A286B28882800
:1010D6002708033E86008701403FA800413FA9003C
:1010E600270A86008701403FAA00413FAB002B0834
:1010F600803AAC002908803A2C02031D842828086F
:101106002A02031887288828A22820002508A80074
:10111600270886008701270A840085010008010741
:10112600A900290886000130870028088100270ABF
:10113600860087010130810741310318810A0800C2
:101146002000BD00661CA828A928B1283D08B800C3
:101156003808AD0035089731622788312000B71B63
:10116600B528B628BB283708BC003608BB00BD2802
:10117600BB01BC01B901BA01D12820302000A5006D
:101186000030A6003D08B8003808A7008831512075
:10119600883101302000B9070030BA3D3A08803A5C
:1011A600B8003C08803A3802031DDB283B083902A8
:1011B600031CDE28DF28C02820006618E328E42860
:1011C600EC283D08B8003808AD003508973162278D
:1011D600883120003508A5000130A600963160262A
:1011E600883120003B082507B5003C08263DB6009F
:1011F600080000302000B1000030B0000030AF0021
:101206000030AE00280827042604250403190C29FB
:101216000D294E29B201B20A1B290130A535A60DAA
:10122600A70DA80D890B11290130AD002D08B207B5
:10123600A81F1E291F2910290130AE35AF0DB00D8C
:10124600B10D890B202928082C02031D34292708F3
:101256002B02031D342926082A02031D34292508DA
:101266002902031C3729382941292508A9022608FD
:10127600AA3B2708AB3B2808AC3B2E140130A83606
:10128600A70CA60CA50C890B42290130B202031D3E
:101296004D294E291F293108A8003008A7002F081C
:1012A600A6002E08A50008008831002089312000FC
:1012B6009217121799109410971292129816931269
:1012C60096139113181013101613111300302200E1
:1012D600E8000030E7000030E6000030E500EB01F2
:1012E6009531C525893101309531EB25893102309B
:1012F6002300A1009430A0000230A3009630A20083
:101306000230A5009530A4000230A7009330A60055
:1013160008302000CC004C082300A800A03086002E
:101326000130870033308400003085000D30200006
:10133600CC0016001A00CC0B9C29E830C000033004
:10134600C100C201C20A8A3166228931003A031DF0
:10135600AD29AE29C22922006B14A03086000130C7
:10136600870025308400003085000D302000CC0039
:1013760016001A00CC0BBB298731F72789310030BC
:101386002000B6000130B500C230B4000030B30012
:10139600B701B70AB801B80A8E319A268931003AE0
:1013A600031DD629D729D92922006B160B178B17AF
:1013B600003008002E00191222009E1220006A0832
:1013C6006906031DE729E829ED297D08031DEC2997
:1013D600ED29552A2A08A6002908A5009631602677
:1013E600893120006A08AB00AC012C08AE00690800
:1013F6002B02AD00031CAE0326082E02031D052A90
:1014060025082D020318082A092A142A69086A06DB
:10141600031D0E2A0F2A532A7D08031D132A142A98
:10142600532AB001352A3008AB00AC012B08290736
:1014360086002C082A3D87000108AD006908F03EA9
:10144600AE00AF012230AF3D2E0886002F08870080
:101456002D0881000130AB002B08E9070130AB00F5
:101466002B08B0072A08A6002908A5009631602691
:10147600893120003008AB00AC0126082C02031D80
:10148600462A25082B02031C492A4A2A162A6908D5
:101496006A06031D4F2A502A552AFD01FD0A552AC0
:1014A600FE30652A69086A06031D5A2A5B2A602AE5
:1014B6007D0803195F2A602A642A2E001916220065
:1014C6009E16003008003330860000308700253035
:1014D6008400003085000D302000C30016001A007D
:1014E600C30B712A9531AF258A3120003508860055
:1014F60036088700013081003708860038088700E3
:1015060081014108BD004008BC004208C3004308F1
:10151600BF00C7010030CB007A30CA001230C900C4
:101526000030C8004008A5004108A600A701A80190
:101536004B08AC004A08AB004908AA004808A900B5
:101546008831FC208A3120002808CB002708CA00F1
:101556002608C9002508C800D42A20004808C30068
:101566004908C4004A08C5004B08C6000130C63603
:10157600C50CC40CC30C890BBA2A4608CB00450817
:10158600CA004408C9004308C8000130C300430824
:10159600C70708304702031CD12AD22AD42AFE30B4
:1015A600112B4B08031DDF2A4A08031DDF2A0130D1
:1015B60049020318DF2AE02AB02A20004808FF3E25
:1015C600C300390886003A088700430881004708A7
:1015D600C3000330C335FF3E031DED2A4335C40067
:1015E6004408C7004708C30033088600340887004C
:1015F6004308810442080319012B022B102B3B09D7
:10160600C30043082E00900520003B08C300430892
:101616002E009A042000BF01BF0A003008002000F7
:10162600B801B901B101B2011C2B0130AB07003082
:10163600AC3DB701B70A2B0884002C0885001200C0
:10164600203A0319272B282B3D2B2B0884002C0826
:1016560085000008F73EAD00FF3003180030AE00ED
:1016660000302E02053003192D02031C3B2B3C2BA8
:101676003D2BB7013708AD00AE012D08B3002E088B
:10168600B40033083404031D492B4A2B182B542B62
:101696000130B1000030B2000130AB070030AC3D84
:1016A600882B2B0884002C0885000008AD00AE01AD
:1016B6002E08003A0319602B882B2D082B3A0319A4
:1016C6004F2B063A03194B2B882B2B0884002C082A
:1016D60085000008AD003908A6003808A5000A30C4
:1016E600A7000030A8009631B5268B3120002608C9
:1016F600AF002D082502AE00031CAF032E08303EB6
:10170600B80000302F3DB9004F2B2B0884002C0861
:1017160085000008D03EAD00FF3003180030AE0053
:1017260000302E020A3003192D02031C9B2B9D2B21
:1017360001309E2B0030AF00B0012F08B5003008F5
:10174600B60035083604031DA92BAA2B682B3108D1
:101756003204031DAF2BB02BBC2B3809AD00390961
:10176600AE00AD0A0319AE0A2D08AB002E08AC0078
:10177600C02B3908AC003808AB0008009531DD25D0
:101786008B31893157218B31003A0319CB2BCC2B66
:10179600CD2BA62C00302100C4009830C5002200B5
:1017A6006B082100E200E3016208C6006308C70077
:1017B6002030973118278B3120309731C0278B3155
:1017C600640022006E080319E92BEA2B5D2CEE015A
:1017D60053302100C4009830C50000302000A80016
:1017E6000030A7000330A600E830A50022006808F4
:1017F6002000AC00220067082000AB00220066082B
:101806002000AA00220065082000A9008831FC20DB
:101816008B31200028082100C9002000270821005C
:10182600C800200026082100C70020002508210046
:10183600C6002030973118278B3120309731C027CA
:101846008B31873135278B31003A031D2B2C2C2CFD
:101856005D2C3C302100C4009830C50023002D08C3
:101866002100E200E3016208C6006308C700230006
:101876002E082100E400E5016408C8006508C900D7
:1018860023002F082100E600E7016608CA00670862
:10189600CB00230030082100E800E9016808CC00ED
:1018A6006908CD002030973118278B3120309731C9
:1018B600C0278B3122006D080319622C632C842CFF
:1018C600ED019531BA258B31003A031D6B2C6C2C3A
:1018D600772C22006C080319712C722C752C2000B1
:1018E6009716772C20009712E83022006507E10052
:1018F6000330663DE2000030673DE3000030683D9E
:10190600E40064086806031D922C63086706031D3D
:10191600922C62086606031D922C61086506031D5B
:10192600952C962CE32B20009712FF30220065079A
:10193600E100FF30663DE200FF30673DE300FF3027
:10194600683DE400E32B8131B1292000B7012D3039
:10195600860000308700473FB500B51FB32CB42C76
:10196600D62C2000AD09AE09AF09B009B109B209FC
:10197600B309B409AD0A031DD32CAE0A031DD32C3B
:10198600AF0A031DD32CB00A031DD32CB10A031DC5
:10199600D32CB20A031DD32CB30A031DD32CB40ACD
:1019A6002000B701B70A2530860000308700473F80
:1019B6002000B500B51FE02CE12C002D2000A50964
:1019C600A609A709A809A909AA09AB09AC09A50A84
:1019D600031D002DA60A031D002DA70A031D002DB9
:1019E600A80A031D002DA90A031D002DAA0A031D1E
:1019F600002DAB0A031D002DAC0A20002508260485
:101A06002704280429042A042B042C0403190C2D6A
:101A16000D2D602DB601B60A1C2DA535A60DA70DF8
:101A2600A80DA90DAA0DAB0DAC0D0130B5003508FA
:101A3600B607AC1F1F2D202D102D2C083402031DB8
:101A46003E2D2B083302031D3E2D2A083202031DAC
:101A56003E2D29083102031D3E2D28083002031DA4
:101A66003E2D27082F02031D3E2D26082E02031D9C
:101A76003E2D25082D02031C412D422D522D2508F1
:101A8600AD022608AE3B2708AF3B2808B03B290825
:101A9600B13B2A08B23B2B08B33B2C08B43BAC360F
:101AA600AB0CAA0CA90CA80CA70CA60CA50C013013
:101AB600B602031D5F2D602D202D37080319642DF6
:101AC600652D832DAD09AE09AF09B009B109B2097B
:101AD600B309B409AD0A031D832DAE0A031D832D78
:101AE600AF0A031D832DB00A031D832DB10A031D02
:101AF600832DB20A031D832DB30A031D832DB40A59
:101B060020002D08A5002E08A6002F08A7003008E3
:101B1600A8003108A9003208AA003308AB0034082F
:101B2600AC0008002000B701253086000030870091
:101B3600473FB500B51FA02DA12DC32D2000A50937
:101B4600A609A709A809A909AA09AB09AC09A50A02
:101B5600031DC02DA60A031DC02DA70A031DC02DF7
:101B6600A80A031DC02DA90A031DC02DAA0A031D1C
:101B7600C02DAB0A031DC02DAC0A2000B701B70A61
:101B86002D30860000308700473F2000B500B51F86
:101B9600CD2DCE2DF22D2000AD09AE09AF09B0092D
:101BA600B109B209B309B409AD0A031DED2DAE0A98
:101BB600031DED2DAF0A031DED2DB00A031DED2DFE
:101BC600B10A031DED2DB20A031DED2DB30A031D47
:101BD600ED2DB40A01302000B5003508B7063830BF
:101BE60086000030870008302000B50000301E0057
:101BF600B50BFA2D250826042704280429042A04EF
:101C06002B042C040319082E092E652EB601B60ADC
:101C1600182EA535A60DA70DA80DA90DAA0DAB0D5D
:101C2600AC0D0130B5003508B607AC1F1B2E1C2EB7
:101C36000C2EB835B90DBA0DBB0DBC0DBD0DBE0DC4
:101C4600BF0D2C083402031D422E2B083302031D40
:101C5600422E2A083202031D422E29083102031D94
:101C6600422E28083002031D422E27082F02031D8C
:101C7600422E26082E02031D422E25082D02031C85
:101C8600452E462E572E2508AD022608AE3B2708C0
:101C9600AF3B2808B03B2908B13B2A08B23B2B08CA
:101CA600B33B2C08B43B3814AC36AB0CAA0CA90CCD
:101CB600A80CA70CA60CA50C0130B602031D642EB9
:101CC600652E1C2E37080319692E6A2E882EB80930
:101CD600B909BA09BB09BC09BD09BE09BF09B80AD9
:101CE600031D882EB90A031D882EBA0A031D882EE5
:101CF600BB0A031D882EBC0A031D882EBD0A031DC0
:101D0600882EBE0A031D882EBF0A20003808A500AB
:101D16003908A6003A08A7003B08A8003C08A90015
:101D26003D08AA003E08AB003F08AC00080017308B
:101D36003D00CB002000931710303E00A600200087
:101D4600131722009D131D129E1200302000C3009F
:101D56007A30C2001230C1000030C0003608A80038
:101D66003508A7003408A6003308A5004308AC00D0
:101D76004208AB004108AA004008A9008831FC20AF
:101D86008E3120002808C3002708C2002608C1009B
:101D96002508C000FF30B900FF30BA00FF30BB0095
:101DA600FF30BC004008B9074108BA3D4208BB3DB8
:101DB6004308BC3D3C08C3003B08C2003A08C100CA
:101DC6003908C0004308031DED2E013042020318F6
:101DD600ED2EEE2EF22E22001E159F15802F0130BD
:101DE6002000B9000030BA000030BB000030BC0053
:101DF6004008B9074108BA3D4208BB3D4308BC3D0F
:101E06000230BC36BB0CBA0CB90C890B042F3C084B
:101E1600C3003B08C2003A08C1003908C000FF30C1
:101E2600B900FF30BA00FF30BB00FF30BC004008ED
:101E3600B9074108BA3D4208BB3D4308BC3D3C08D2
:101E4600C3003B08C2003A08C1003908C000430875
:101E5600031D322F013042020318322F332F372F42
:101E660022001E119F15802F01302000B90000307E
:101E7600BA000030BB000030BC004008B90741087A
:101E8600BA3D4208BB3D4308BC3D0230BC36BB0CE4
:101E9600BA0CB90C890B492F3C08C3003B08C20099
:101EA6003A08C1003908C000FF30B900FF30BA0057
:101EB600FF30BB00FF30BC004008B9074108BA3DFF
:101EC6004208BB3D4308BC3D3C08C3003B08C2007A
:101ED6003A08C1003908C0004308031D7B2F420899
:101EE600031D7B2F01304102031C7A2F7B2F7D2F90
:101EF600FE30FF2F22001E119F1120004008B9005E
:101F06004108BA004208BB004308BC000830BC3692
:101F1600BB0CBA0CB90C890B8A2F390822009C001D
:101F26002000400822009B009F101F101E12200058
:101F3600370803199F2FA02FC42F22001E131F122C
:101F46002000EA01E901FD01BD01BE01F030B90042
:101F56002230BA003D08390786003E083A3D870020
:101F660081010130BD070030BE3D01303E02003028
:101F760003193D02031CC02FC12FA92FFC01FC0A27
:101F8600C52FFC0138080319C92FCA2FED2F2200CF
:101F96001D162000BF013F08203E86000230870044
:101FA60081013F08A03E8600023087008101013092
:101FB600B9003908BF0740303F02031CE32FE42F66
:101FC600CE2FE8012100EF01EE01EE0A2E008F125E
:101FD6009916F12F22009D012100EE0120003708FD
:101FE600031DF62FF72FFC2F38080319FB2FFC2FA4
:0A1FF600FE2F22009D1700300800A6
:102B5E007F302000B2002508860026088700320844
:102B6E008105B0010800031020000D1C0314003075
:102B7E00031801302200EC00003008002000191765
:102B8E0014132200EE012300B101B001AF01AE011A
:102B9E00AD0108006400800101310130FE020030F9
:102BAE00FF3B7F087E04031DD22D003460303100C0
:102BBE008D0006309300101BE52DE62DEA2D101C1E
:102BCE00E92DEA2DE22D08002000A50012142200A6
:102BDE00ED01200025080319F52DF62DFC2D0830EA
:102BEE003D0090000B102E00161408002000B500BA
:102BFE003208AA003108A9003508A5000030A60049
:102C0E0096316026953120002508B3002608B400C1
:102C1E00350833079631D526953108002000250852
:102C2E00D03EA700FF30263DA800003028020A3013
:102C3E0003192702031C242E262E0130272E0030C6
:102C4E00A900AA012908A5002A08A600080020004C
:102C5E002508BF3EA700FF30263DA8000030280201
:102C6E001A3003192702031C3D2E3F2E0130402E31
:102C7E000030A900AA012908A5002A08A60008000C
:102C8E00200025089F3EA700FF30263DA8000030FB
:102C9E0028021A3003192702031C562E582E013013
:102CAE00592E0030A900AA012908A5002A08A6005D
:102CBE00080020002608A8002508A7006A2E01306B
:102CCE00A5070030A63D25088600260887000108C6
:102CDE00031D722E732E662E27082502A5002808C6
:102CEE00263BA600080020003908803ABA00803042
:102CFE003A02031D842E013038020318872E882EC7
:102D0E00952E20003809BA003909BB00BA0A0319FA
:102D1E00BB0A3A08B8003B08B900952E08002030CF
:102D2E0020002504A70000302604A80027089F3E97
:102D3E00A900FF30283DAA0000302A021A300319DC
:102D4E002902031CAB2EAD2E0130AE2E0030AB008F
:102D5E00AC012B08A5002C08A60008002000A90134
:102D6E00AA01251CBB2EBC2EC02E2708A907280899
:102D7E00AA3D0130A735A80D890BC12E0130A6360C
:102D8E00A50C890BC62E25082604031DCF2ED02E8A
:102D9E00B82E2A08A6002908A50008002000B000B9
:102DAE002A08AE002908AD003008AB002B08AF0092
:102DBE002F0886008701AF0A2E08AC002D08AB0045
:102DCE00AD0A0319AE0A2B0884002C0885000008F2
:102DDE00C03F8908031DF42EF52EDF2E08002000BB
:102DEE00A901A90A2030250626040319FF2E002F5B
:102DFE00102F2508F73EA700FF30263DA800003013
:102E0E002802053003192702031C0E2F0F2F102F37
:102E1E00A9012908A700A8012708A5002808A600CF
:102E2E0008002100D100C630CE004E08D200510855
:102E3E00CE004E08D300D401D501D601D7014508E6
:102E4E00BD004408BC00D230CE004E08BE00D330C8
:102E5E0097318B279731210054085107CE004E0829
:102E6E008600013087008101080020002B089F3E5C
:102E7E00AD00FF302C3DAE0000302E021A3003198B
:102E8E002D02031C4B2F4D2F01304E2F0030AF0063
:102E9E00B0012F08B1003008B20031083204031916
:102EAE00592F5A2F612F5F302B05AB0000302C05A8
:102EBE00AC00612F08002000B400B201B3017A2FDC
:102ECE003108AE00AF012E08A5002F08A6002D0870
:102EDE00B0003008A7008831512097310130200012
:102EEE00B2070030B33D32083407AE002E0886001C
:102EFE00013087000108AF002F08B1003108031D13
:102F0E00892F8A2F672F08002100C1003D08C300BA
:102F1E003C08C2002200E901EA01AD2FC230BF0019
:102F2E003F082000E40021003E08C00040082000B9
:102F3E00E500210041088131FE219731200064080F
:102F4E002200E907200065082200EA3D2100420820
:102F5E008400430885001200031DB62FB72F952F4E
:102F6E0022006A082100BD00220069082100BC0071
:102F7E0008002100E10061082000A5000130A60034
:102F8E0096316026973120002508023EB6000030AB
:102F9E00263DB700003037024030031936020318C1
:102FAE00D92FDA2FF62F210061082000A900013059
:102FBE00AA00A0309631D52697316A302000B10094
:102FCE009830B200A0309531FD259731A030200009
:102FDE00A9000030AA008931DD219731FF2F210091
:102FEE0061082000A9000130AA008931DD21973146
:102FFE000800533479347334743465346D342034AA
:10300E0049346E3469347434203443346F346D343F
:10301E0070346C346534743465342C342034533449
:10302E0079347334743465346D34203453347434D9
:10303E0061347434753473343A3420343034783423
:10304E0025343034323458342C3420344234653400
:10305E00673469346E346E3469346E3467342034B8
:10306E004C346F346F3470340034483420343D3473
:10307E002034253464342E342534643425342534F8
:10308E002034543420343D342034253464342E34EA
:10309E002534643443340034253464343A342034D3
:1030AE005334743461347234743469346E34673426
:1030BE0020344434613474346134203452346534F1
:0C30CE006134643400340A340D340034E2
:020000040001F9
:0A000E009C3FFF3FFF3FFF3FFF3F15
:00000001FF
