:020000040000FA
:0400000057EF00F0C6
:100008004B534B534B534B534B534B534B534B53F8
:100018004B534B534B534B534B534B534B534B53E8
:100028004B534B534B534B534B534B534B534B53D8
:100038004B534B534B53614891514B534B534B5379
:1000480097524B534B534B532B004B534B534B53E0
:100058004B534B534B534B534B534B534B534B53A8
:100068004B534B534B534B534B534B53A5524B533F
:10007800F74E4B532B004B534B534B532B002B003A
:100088002B002B002B002B002B002B00B3524B53C3
:100098004B534B534B534B532B002B002B002B0034
:0A00A8004B534B53FF0093EF9FF002
:10FE8A0000496E76616C696420636F6D6D616E64A2
:10FE9A002C207573652027582C4E756D272C20272A
:10FEAA00592C4E756D27206F7220275A2C4E756D6E
:10FEBA00272C20436861723A2025642C204E756DE8
:10FECA003A20256C640A0D0053797374656D2049D4
:10FEDA006E697420436F6D706C6574652C2053795C
:10FEEA007374656D205374617475733A2030782584
:10FEFA003032582C20426567696E6E696E67204CF5
:10FF0A006F6F700053746570706572300A0D5065BA
:10FF1A006E64696E673A2025642C09546F74616CAB
:10FF2A003A20256C640053746570706572310A0D4D
:10FF3A0050656E64696E673A2025642C09546F74A3
:10FF4A00616C3A20256C6400537465707065723276
:10FF5A000A0D50656E64696E673A2025642C09544F
:10FF6A006F74616C3A20256C64004170706C796919
:10FF7A006E672072656C6F6164206F6620494F4519
:10FF8A00585020506172616D73004170706C7969CC
:10FF9A006E67207374657020746F20583A20256C40
:10FFAA0064004170706C79696E67207374657020A3
:10FFBA00746F20593A20256C64004170706C79691D
:10FFCA006E67207374657020746F205A3A20256C0E
:10FFDA00640053797374656D2054696D653A202500
:10FFEA006C75006C58006C69006C78002C0072000B
:05FFFA0079007A00000F
:020000040001F9
:1000000060000FF3D9FF600013F3DAFF6F007BFF8E
:10001000F6FF6F0077FFF7FF000EF86E0800F5504F
:10002000250AD8A416EF80F018EF80F070EF84F066
:1000300060000FF3D9FF600013F3DAFFDE2A000E31
:10004000DD22000E0E6E000E0D6E0DC0DCF00EC037
:10005000DDF00001DA69DB69000E0101016F000EBD
:10006000006F83EF80F0DC8160000FF3D9FF600048
:1000700013F3DAFFDE2A000EDD2283EF80F0DC834B
:1000800034EF80F0DC8534EF80F0DC8734EF80F0F3
:10009000DC8934EF80F0000E0101016F010E006F6A
:1000A00083EF80F060000FF3D9FF600013F3DAFFF5
:1000B0006F007BFFF6FF6F0077FFF7FF000EF86E13
:1000C0000800F5500001C76FC86BC851000AD8B4CA
:1000D0006CEF80F04BEF80F0C751200AD8B445EFA9
:1000E00080F0030AD8B448EF80F0080AD8B442EF91
:1000F00080F0060AD8B433EF80F01D0AD8B43FEF81
:1001000080F04BEF80F0010100510111D8B48BEF6A
:1001100080F08DEF80F052EF80F00001DCA193EFD2
:1001200080F095EF80F096EF80F0DC9360000FF3A5
:10013000D9FF600013F3DAFF6F007BFFF6FF6F005B
:1001400077FFF7FF000EF86E0800F5502A0AD8A4D2
:10015000ACEF80F0AEEF80F0E1EF80F060000FF3E5
:10016000D9FF600013F3DAFFDE2A000EDD22600003
:1001700017F3D9FF60001BF3DAFF6F007CFFC7F0B5
:10018000020EDE266F007CFFC8F0000EDD2260004C
:100190001FF3D9FF600023F3DAFF6F0078FF0DF043
:1001A0006F0074FF0EF00EBEDAEF80F0D8EF80F033
:1001B00032EF81F0DC810D6C0E1ED8B00E2A32EFCA
:1001C00081F060000FF3D9FF600013F3DAFF6F00D6
:1001D00078FF86F06F0074FF87F00FEC8FF086C019
:1001E0000DF087C00EF0FEEF80F060000FF3D9FF36
:1001F000600013F3DAFFDE2A000EDD22D00E0001CC
:10020000C76FFF0EC86F60000FF3D9FF600013F3D4
:10021000DAFF6F007BFFF6FF6F0077FFF7FF000E3E
:10022000F86E0800F550C96FCA6BC751C927C8518D
:10023000CA23CA510AE10A0EC95DD8A022EF81F093
:1002400025EF81F0010E26EF81F0000E0101026F13
:10025000036B02510311D8A430EF81F032EF81F02B
:10026000F5EF80F060000FF3D9FF600013F3DAFFC1
:100270006F007BFFF6FF6F0077FFF7FF000EF86E51
:100280000800F550640AD8B448EF81F04AEF81F0D5
:1002900062EF81F060000FF3D9FF600013F3DAFF23
:1002A0006F007BFFF6FF6F0077FFF7FF000EF86E21
:1002B0000800F550690AD8A460EF81F062EF81F080
:1002C000ADEF81F060000FF3D9FF600013F3DAFFA8
:1002D000DE2A000EDD22600017F3D9FF60001BF359
:1002E000DAFF6F007CFFC7F0020EDE266F007CFF96
:1002F000C8F0000EDD2260001FF3D9FF600023F379
:10030000DAFF6F0078FF04F16F0074FF05F101015F
:10031000000E05BFFF0E066F076F086F096F0A6FAB
:100320000B6FC1C09AF0C2C09BF004C19CF005C124
:100330009DF006C19EF007C19FF008C1A0F009C161
:10034000A1F00AC1A2F00BC1A3F08CEC86F09AC018
:10035000C1F09BC0C2F094EF84F060000FF3D9FFAE
:10036000600013F3DAFF6F0078FF7FF06F0074FF17
:1003700080F0A90E0001816FFF0E826F000E846F66
:10038000020E836F34EC94F000017F518011D8B4D9
:10039000CCEF81F0CEEF81F0EEEF81F060000FF353
:1003A000D9FF600013F3DAFF6F0078FF7FF06F0072
:1003B00074FF80F0F00E816FFF0E826F000E846F6D
:1003C000020E836F34EC94F000017F518011D8A4A9
:1003D000ECEF81F0EEEF81F03DEF82F0020E600075
:1003E0000FF3D9FF600013F3DAFFDE26000EDD22E3
:1003F000600017F3D9FF60001BF3DAFF6F007CFF8A
:10040000C7F0040EDE266F007CFFC8F0000EDD2270
:1004100060001FF3D9FF600023F3DAFF6F0078FF5D
:10042000C9F06F0078FFCAF06F0078FFCBF06F0063
:1004300078FFCCF0C9C0CDF0CAC0CEF0CBC0CFF0B1
:10044000CCC0D0F0D16BD0BFD169D1C0D2F0D1C077
:10045000D3F0D1C0D4F0CDC004F1CEC005F1CFC0EF
:1004600006F1D0C007F1D1C008F1D2C009F1D3C064
:100470000AF1D4C00BF191EF81F060000FF3D9FFC6
:10048000600013F3DAFF6F007BFFF6FF6F0077FF6A
:10049000F7FF000EF86E0800F550750AD8A453EF68
:1004A00082F055EF82F0A1EF82F060000FF3D9FFE8
:1004B000600013F3DAFFDE2A000EDD22600017F37E
:1004C000D9FF60001BF3DAFF6F007CFFC7F0020E5C
:1004D000DE266F007CFFC8F0000EDD2260001FF3F7
:1004E000D9FF600023F3DAFF6F0078FFC9F06F00D7
:1004F00074FFCAF0C9C00DF1CAC00EF101010F6B43
:10050000106B116B126B136B146BC1C09AF0C2C0ED
:100510009BF00DC19CF00EC19DF00FC19EF010C16B
:100520009FF011C1A0F012C1A1F013C1A2F014C13B
:10053000A3F014EC8DF09AC0C1F09BC0C2F094EF10
:1005400084F060000FF3D9FF600013F3DAFF6F004F
:1005500078FF7FF06F0074FF80F0EA0E816FFF0E6E
:10056000826F000E846F020E836F34EC94F00001F2
:100570007F518011D8A4BFEF82F0C1EF82F002EF6B
:1005800083F0020E60000FF3D9FF600013F3DAFF6F
:10059000DE26000EDD22600017F3D9FF60001BF39A
:1005A000DAFF6F007CFFC7F0040EDE266F007CFFD1
:1005B000C8F0000EDD2260001FF3D9FF600023F3B6
:1005C000DAFF6F0078FFC9F06F0078FFCAF06F00A4
:1005D00078FFCBF06F0078FFCCF0C95101010D6FAF
:1005E0000001CA5101010E6F0001CB5101010F6FD3
:1005F0000001CC510101106F116B126B136B146B66
:1006000085EF82F060000FF3D9FF600013F3DAFF8B
:100610006F007BFFF6FF6F0077FFF7FF000EF86EAD
:100620000800F550780AD8B418EF83F01AEF83F079
:1006300032EF83F060000FF3D9FF600013F3DAFFAD
:100640006F007BFFF6FF6F0077FFF7FF000EF86E7D
:100650000800F550580AD8A430EF83F032EF83F049
:1006600092EF83F060000FF3D9FF600013F3DAFF1D
:100670006F007BFFF6FF6F0077FFF7FF000EF86E4D
:1006800008006F00D4FF0CF160000FF3D9FF600089
:1006900013F3DAFFDE2A000EDD22600017F3D9FF24
:1006A00060001BF3DAFF6F007CFFC7F0020EDE264E
:1006B0006F007CFFC8F0000EDD2260001FF3D9FF41
:1006C000600023F3DAFF6F0078FFC9F06F0074FF5A
:1006D000CAF0C9C00DF1CAC00EF101010F6B106B59
:1006E000116B126B136B146BC1C09AF0C2C09BF0FC
:1006F0000DC19CF00EC19DF00FC19EF010C19FF086
:1007000011C1A0F012C1A1F013C1A2F014C1A3F055
:100710000CC1A4F0FFEC87F09AC0C1F09BC0C2F0FE
:1007200094EF84F060000FF3D9FF600013F3DAFF59
:100730006F0078FF7FF06F0074FF80F0F30E816F21
:10074000FF0E826F000E846F020E836F34EC94F004
:1007500000017F518011D8B4B0EF83F0B2EF83F085
:10076000D2EF83F060000FF3D9FF600013F3DAFFDC
:100770006F0078FF7FF06F0074FF80F0ED0E816FE7
:10078000FF0E826F000E846F020E836F34EC94F0C4
:1007900000017F518011D8A4D0EF83F0D2EF83F015
:1007A0002FEF84F060000FF3D9FF600013F3DAFF3E
:1007B0006F0078FFC7F06F0074FFC8F0010EC72705
:1007C000000EC82360001FF3F6FF600023F3F7FF5D
:1007D000000EF86E08006F00D4FF0CF1020E6000EE
:1007E0000FF3D9FF600013F3DAFFDE26000EDD22DF
:1007F000600017F3D9FF60001BF3DAFF6F007CFF86
:10080000C7F0040EDE266F007CFFC8F0000EDD226C
:1008100060001FF3D9FF600023F3DAFF6F0078FF59
:10082000C9F06F0078FFCAF06F0078FFCBF06F005F
:1008300078FFCCF0C95101010D6F0001CA510101CF
:100840000E6F0001CB5101010F6F0001CC5101016E
:10085000106F116B126B136B146B74EF83F06000ED
:100860000FF3D9FF600013F3DAFF6F007BFFF6FF91
:100870006F0077FFF7FF000EF86E0800F550250AAD
:10088000D8A445EF84F047EF84F061EF84F0600076
:100890000FF3D9FF600013F3DAFFDE2A000EDD222A
:1008A000000E806F250E7F6FC1C081F0C2C082F044
:1008B000D9EC98F0000E0001C26F010EC16F94EFE9
:1008C00084F060000FF3D9FF600013F3DAFFDE2A33
:1008D000000EDD22000EC26F000EC16F94EF84F097
:1008E00060000FF3D9FF600013F3DAFF6F007BFFA6
:1008F000F6FF6F0077FFF7FF000EF86E0800F55067
:1009000000017F6F806BC1C081F0C2C082F0D9EC62
:1009100098F060000FF3D9FF600013F3DAFFDE2ACE
:10092000000EDD225AEF84F01200000E0101356F37
:10093000000E366F000E0201536F000E526F72519F
:100940000001D76FD86BD7510201525D5351800A15
:100950000001D96FD851800AD959D8B0B2EF84F0CC
:10096000B4EF84F0C6EF84F0C00E02015225D96EB8
:10097000030E5321DA6E000E5225E16E020E532152
:10098000E26E6F007FFFE7FFCFEF84F0000E020101
:100990005225D96E020E5321DA6E000EDF6E524BD5
:1009A000532B53BFDDEF84F0535109E1400E525DEC
:1009B000D8A0DDEF84F0DFEF84F09FEF84F0000E2D
:1009C000566F000E576F000E586F000E596F000ED5
:1009D000516F000E506F000E00018A6F020E8B6F78
:1009E000F60E8C6FFF0E8D6FB5EC95F08AC02FF16F
:1009F0008BC030F11DEF85F0D8905035D96E513550
:100A0000DA6E310ED926010EDA226000BFF4DEFF65
:100A10006000C3F4DDFF000E00018A6F000E8B6FD3
:100A2000F60E8C6FFF0E8D6FB5EC95F08AC02FF12E
:100A30008BC030F10201504B512B020151BF2AEF04
:100A400085F0515109E1020E505DD8A02AEF85F0E2
:100A50002CEF85F0FCEF84F0020E50195111D8A450
:100A600034EF85F036EF85F066EF86F0000E556FB7
:100A7000000E546F31C17FF032C180F0B7ECA4F0AA
:100A800000017F510201545D00018051020155595E
:100A9000D8B04DEF85F04FEF85F06BEF85F0400E4D
:100AA0005425D96E020E5521DA6E545101013125BB
:100AB000E16E0201555101013221E26EE750000161
:100AC000D76FD751856F866B62ECA2F0000185511C
:100AD000DF6E73EF85F0400E5425D96E020E55215E
:100AE000DA6E000EDF6E0201544B552B55BF82EFBC
:100AF00085F0555109E1100E545DD8A082EF85F0C4
:100B000084EF85F03AEF85F033C18BF034C18CF07F
:100B100017EC8EF08BC056F28CC057F28DC058F295
:100B20008EC059F2400E00017F6F020E806FF40EEE
:100B3000816FFF0E826F39EC9EF000017F518011B2
:100B4000D8A4A5EF85F0A7EF85F0CDEF85F0010ED5
:100B50000101366F020156516A2757516B23010E6E
:100B60000101356F000E1B6F050E1C6F940E1D6F7B
:100B7000FF0E1E6F56C21FF157C220F158C221F15D
:100B800059C222F1A3ECA3F0000E0001916F050EF3
:100B9000926FD3EC9FF066EF86F0400E7F6F020EEF
:100BA000806FFA0E816FFF0E826F39EC9EF00001AC
:100BB0007F518011D8A4DFEF85F0E1EF85F000EFE1
:100BC00086F0010E0101366F020156516827575118
:100BD0006923010E0101356F000E1B6F050E1C6F9E
:100BE000AC0E1D6FFF0E1E6F56C21FF157C220F1D3
:100BF00058C221F159C222F1A3ECA3F0C4EF85F051
:100C0000400E7F6F020E806FFC0E816FFF0E826FB1
:100C100039EC9EF000017F518011D8A412EF86F0CC
:100C200014EF86F033EF86F0010E0101366F0201FA
:100C30005651662757516723010E0101356F000E8B
:100C40001B6F050E1C6FC40E1D6FFF0E1E6F56C26C
:100C50001FF157C220F158C221F159C222F1A3EC71
:100C6000A3F0C4EF85F0400E7F6F020E806FF80E88
:100C7000816FFF0E826F39EC9EF000017F51801171
:100C8000D8A445EF86F047EF86F066EF86F0010EB8
:100C90000101366F010E356F000E1B6F050E1C6FC4
:100CA000740E1D6FFF0E1E6FA3ECA3F0000E00016B
:100CB000916F050E926FD3EC9FF0930E00018B6F36
:100CC000020E8C6F9FEC9DF066EF86F001013551AE
:100CD000D8A46DEF86F06FEF86F08BEF86F0000EF4
:100CE0001B6F050E1C6F8B0E1D6FFE0E1E6F36C127
:100CF0001FF1206B56C221F157C222F158C223F1D5
:100D000059C224F1A3ECA3F0000E0001916F050E6F
:100D1000926FD3EC9FF012009CC0B4F09DC0B5F070
:100D20009EC0B6F09FC0B7F0A0C0B8F0A1C0B9F0A7
:100D3000A2C0BAF0A3C0BBF00001BBBFA2EF86F017
:100D4000A5EF86F0010EA6EF86F0000EB26FB36B32
:100D5000B251B311D8B4AFEF86F0B1EF86F0C1EF66
:100D600086F0BB1FBA1FB91FB81FB71FB61FB51F2C
:100D7000B46D000EB523B623B723B823B923BA2325
:100D8000BB23DBBFC6EF86F0C8EF86F0C9EF86F065
:100D9000DC93DBBFD6EF86F0DB5106E1DA05D8B095
:100DA000D4EF86F0D6EF86F0DCEF86F0000EAF6F62
:100DB000010EAE6FE0EF86F0DAC0AEF0DBC0AFF050
:100DC0000DC0B0F00EC0B1F0B251B311D8A4EBEF2A
:100DD00086F0EDEF86F0F4EF86F0DCA5F2EF86F01A
:100DE000F4EF86F0F7EF86F0B007D8A0B107000E59
:100DF000BD6F1F0EBC6F000E0201926F7DEF87F07A
:100E0000BC07D8A0BD07730EBC25D96E020EBD214C
:100E1000DA6EB4C07FF0B5C080F0B6C081F0B7C064
:100E200082F0B8C083F0B9C084F0BAC085F0BBC00E
:100E300086F00A0E876F000E886F000E896F000E15
:100E40008A6F000E8B6F000E8C6F000E8D6F000E80
:100E50008E6F51EC92F07FC0A4F080C0A5F081C0ED
:100E6000A6F082C0A7F083C0A8F084C0A9F085C016
:100E7000AAF086C0ABF0A4C091F0A6C092F077ECC7
:100E8000A4F000019151300FDF6EAE07D8A0AF077C
:100E9000B007D8A0B107B4C07FF0B5C080F0B6C02D
:100EA00081F0B7C082F0B8C083F0B9C084F0BAC096
:100EB00085F0BBC086F00A0E876F000E886F000EAB
:100EC000896F000E8A6F000E8B6F000E8C6F000E04
:100ED0008D6F000E8E6F8CEC91F07FC0B4F080C0EF
:100EE000B5F081C0B6F082C0B7F083C0B8F084C05E
:100EF000B9F085C0BAF086C0BBF00001BDBF89EF74
:100F000087F0BD5108E1BC05D8A089EF87F08BEFD1
:100F100087F0BBEF87F0B451B511B611B711B81116
:100F2000B911BA11BB11D8A498EF87F09AEF87F0E6
:100F300000EF87F0AFBFA7EF87F0AF5106E1AE0536
:100F4000D8B0A5EF87F0A7EF87F000EF87F0B1BF2B
:100F5000B2EF87F0B15108E1B005D8A0B2EF87F049
:100F6000B4EF87F0BBEF87F0DCB3B9EF87F0BBEFEE
:100F700087F000EF87F0B251B311D8A4C2EF87F029
:100F8000C4EF87F0CBEF87F0DCA5C9EF87F0CBEF9C
:100F900087F0EAEF87F0BC07D8A0BD07B251B311C4
:100FA000D8A4D5EF87F0D7EF87F0DDEF87F0000EFC
:100FB000AD6F2B0EAC6FE1EF87F0000EAD6F2D0E15
:100FC000AC6F730EBC25D96E020EBD21DA6E6000C7
:100FD000B3F2DFFF9AC08FF09BC090F0730EBC2578
:100FE000916F020EBD21926FB0C093F0B1C094F02A
:100FF000AFEC99F08FC09AF090C09BF01200000106
:10100000DBBF05EF88F007EF88F008EF88F0DC938E
:10101000DBBF15EF88F0DB5106E1DA05D8B013EF3E
:1010200088F015EF88F01BEF88F0000EB26F010E0C
:10103000B16F1FEF88F0DAC0B1F0DBC0B2F00DC0C5
:10104000B3F00EC0B4F0DCA928EF88F02AEF88F0E6
:101050002EEF88F0FE0EB327FF0EB4239CC0B5F030
:101060009DC0B6F09EC0B7F09FC0B8F0A0C0B9F068
:10107000A1C0BAF0A2C0BBF0A3C0BCF0000EBE6F0E
:101080001F0EBD6F000E0201926FFCEF88F0BD07CE
:10109000D8A0BE070F0EB515BF6FC06BC0BF5AEF0B
:1010A00088F0C05109E10A0EBF5DD8A05AEF88F060
:1010B0005CEF88F064EF88F0570EBF25BF6F000E1D
:1010C000C021C06F6AEF88F0300EBF25BF6F000EE1
:1010D000C021C06FBF0EA56FFF0EA66FA451A76FF2
:1010E000A86BA551A727A651A823A8510AE11A0E5B
:1010F000A75DD8A07EEF88F081EF88F0010E82EF27
:1011000088F0000EAD6FAE6BAD51AE11D8B48BEF61
:1011100088F08DEF88F0BDEF88F09F0EA56FFF0E71
:10112000A66F200EBF11A76F000EC011A86FA551AA
:10113000A727A651A823A8510AE11A0EA75DD8A097
:10114000A4EF88F0A7EF88F0010EA8EF88F0000E5A
:10115000AF6FB06BAF51B011D8B4B1EF88F0B3EF4F
:1011600088F0BDEF88F0BFC085F0C0C086F0C4EC49
:10117000A2F085C0BFF086C0C0F0730E0001BD258F
:10118000D96E020EBE21DA6E6000FFF2DFFFB107FA
:10119000D8A0B207B307D8A0B407B5C0A5F0B6C0B1
:1011A000A6F0B7C0A7F0B8C0A8F0B9C0A9F0BAC0FF
:1011B000AAF0BBC0ABF0BCC0ACF0050EE9EF88F004
:1011C000D890AC33AB33AA33A933A833A733A633B3
:1011D000A533E82EE0EF88F0A5C0B5F0A6C0B6F0C4
:1011E000A7C0B7F0A8C0B8F0A9C0B9F0AAC0BAF0BB
:1011F000ABC0BBF0ACC0BCF00001BEBF09EF89F0D2
:10120000BE5109E1020EBD5DD8A009EF89F00BEFD8
:1012100089F03BEF89F0B551B611B711B811B9118A
:10122000BA11BB11BC11D8A418EF89F01AEF89F0DC
:1012300047EF88F0B2BF27EF89F0B25106E1B10560
:10124000D8B025EF89F027EF89F047EF88F0B4BFD9
:1012500032EF89F0B45108E1B305D8A032EF89F03C
:1012600034EF89F03BEF89F0DCB339EF89F03BEFE5
:1012700089F047EF88F0DCA940EF89F042EF89F070
:1012800059EF89F0BD07D8A0BE07730EBD25D96EF2
:10129000020EBE21DA6E600093F2DFFFBD07D8A018
:1012A000BE07730EBD25D96E020EBE21DA6E300E5A
:1012B000DF6E9AC08FF09BC090F0730EBD25916FCA
:1012C000020EBE21926FB3C093F0B4C094F0AFECA5
:1012D00099F08FC09AF090C09BF01200000E0001B0
:1012E000896F000E8B6F000E8C6F000E8A6F86C0A8
:1012F0007FF087C080F0030E826FE80E816F0EECE6
:10130000A0F07FC08DF080C08EF000018D518E1155
:10131000D8B48DEF89F08FEF89F09BEF89F09C0EA8
:101320008D25D96E020E8E21DA6EDF50086E010E09
:101330008A6FA9EF89F0030E8819D8A4A2EF89F06B
:10134000A4EF89F0A8EF89F09CC208F097EF89F02C
:1013500008688A51D8B4AFEF89F0B1EF89F0BBEFDC
:1013600089F0030E8819D8A4B8EF89F0BAEF89F094
:10137000BBEF89F0089E86C07FF087C080F0030E27
:10138000826FE80E816FFDECA1F07FC086F080C017
:1013900087F086C07FF087C080F0000E0001826F6A
:1013A000640E816F0EECA0F07FC08DF080C08EF0D7
:1013B00000018D518E11D8B4E0EF89F0E2EF89F091
:1013C000EEEF89F09C0E8D25D96E020E8E21DA6E1D
:1013D000DF50076E010E8C6F06EF8AF08A51D8B489
:1013E000F4EF89F0F6EF89F0FAEF89F09CC207F08C
:1013F000EAEF89F0020E8819D8A401EF8AF003EF12
:101400008AF005EF8AF0F6EF89F007688C51D8B4BE
:101410000CEF8AF00EEF8AF018EF8AF0020E8819AE
:10142000D8A415EF8AF017EF8AF018EF8AF0079E1C
:1014300086C07FF087C080F0000E826F640E816FDF
:10144000FDECA1F07FC086F080C087F086C07FF001
:1014500087C080F0000E0001826F0A0E816F0EECD3
:10146000A0F07FC08DF080C08EF000018D518E11F4
:10147000D8B43DEF8AF03FEF8AF04BEF8AF09C0E34
:101480008D25D96E020E8E21DA6EDF50066E010EAA
:101490008B6F62EF8AF08C51D8B451EF8AF053EF22
:1014A0008AF057EF8AF09CC206F047EF8AF0880571
:1014B000D8A45DEF8AF05FEF8AF061EF8AF053EF16
:1014C0008AF006688B51D8B468EF8AF06AEF8AF028
:1014D00073EF8AF08805D8A470EF8AF072EF8AF073
:1014E00073EF8AF0069E86C07FF087C080F0000E02
:1014F000826F0A0E816FFDECA1F07FC086F080C084
:1015000087F086C08DF087C08EF000018D518E115E
:10151000D8B48DEF8AF08FEF8AF09BEF8AF09C0EA3
:101520008D25D96E020E8E21DA6EDF50056E010E0A
:10153000896FBDEF8AF08B51D8B4A1EF8AF0A3EF89
:101540008AF0A7EF8AF09CC205F097EF8AF08851E5
:10155000D8A4ADEF8AF0AFEF8AF0B1EF8AF0A3EF35
:101560008AF086518711D8A4B8EF8AF0BAEF8AF0D2
:10157000BCEF8AF0A3EF8AF005688951D8B4C3EFB5
:101580008AF0C5EF8AF0CEEF8AF08851D8A4CBEF6D
:101590008AF0CDEF8AF0CEEF8AF0059E1200000EA1
:1015A0000001856F000E876F000E886F000E866F3A
:1015B00080390F0B896F8A6B89518A11D8B4E3EF98
:1015C0008AF0E5EF8AF0F1EF8AF09C0E8925D96E5A
:1015D000020E8A21DA6EDF50086E010E866FFFEF71
:1015E0008AF0030E8119D8A4F8EF8AF0FAEF8AF096
:1015F000FEEF8AF09CC208F0EDEF8AF00868865191
:10160000D8B405EF8BF007EF8BF011EF8BF0030EE2
:101610008119D8A40EEF8BF010EF8BF011EF8BF047
:10162000089E89C082F08AC083F00C0ED890823761
:101630008337E82E16EF8BF082517F5D7F6F8351E9
:101640008059806F8051896F8A6B89518A11D8B413
:101650002CEF8BF02EEF8BF03AEF8BF09C0E892560
:10166000D96E020E8A21DA6EDF50076E010E886F86
:1016700052EF8BF08651D8B440EF8BF042EF8BF0F5
:1016800046EF8BF09CC207F036EF8BF0020E81190B
:10169000D8A44DEF8BF04FEF8BF051EF8BF042EF72
:1016A0008BF007688851D8B458EF8BF05AEF8BF065
:1016B00064EF8BF0020E8119D8A461EF8BF063EF19
:1016C0008BF064EF8BF0079E8951836F826B8251A0
:1016D0007F5D7F6F83518059806F7FC082F080C0B3
:1016E00083F0040E846FD89083338233842F73EF9A
:1016F0008BF082C089F083C08AF089518A11D8B4F6
:1017000084EF8BF086EF8BF092EF8BF09C0E8925A7
:10171000D96E020E8A21DA6EDF50066E010E876FD7
:10172000A9EF8BF08851D8B498EF8BF09AEF8BF03B
:101730009EEF8BF09CC206F08EEF8BF08105D8A453
:10174000A4EF8BF0A6EF8BF0A8EF8BF09AEF8BF065
:1017500006688751D8B4AFEF8BF0B1EF8BF0BAEFDA
:101760008BF08105D8A4B7EF8BF0B9EF8BF0BAEF0F
:101770008BF0069E89C082F08AC083F0823B833B57
:10178000F00E831782510F0B8313F00E82178251D4
:101790007F5D7F6F83518059806F7FC089F080C0EB
:1017A0008AF089518A11D8B4D8EF8BF0DAEF8BF038
:1017B000E6EF8BF09C0E8925D96E020E8A21DA6E37
:1017C000DF50056E010E856FFDEF8BF08751D8B4A9
:1017D000ECEF8BF0EEEF8BF0F2EF8BF09CC205F0AC
:1017E000E2EF8BF08151D8A4F8EF8BF0FAEF8BF099
:1017F000FCEF8BF0EEEF8BF005688551D8B403EF6A
:101800008CF005EF8CF00EEF8CF08151D8A40BEF2B
:101810008CF00DEF8CF00EEF8CF0059E1200170E81
:101820003A01E56FC48E130E166FC48C3D01F39F11
:10183000F299F29BF00EF217000EF46F000E000109
:10184000996F240E9A6FF40E9B6F000E9C6F99C0D7
:101850007FF09AC080F09BC081F09CC082F08CC069
:1018600083F08DC084F08EC085F08FC086F04CEC84
:101870009DF07FC099F080C09AF081C09BF082C03B
:101880009CF0FF0E00019925996FFF0E9A219A6F27
:10189000FF0E9B219B6FFF0E9C219C6F9C5106E1CC
:1018A0009B05D8B056EF8CF058EF8CF05CEF8CF0C5
:1018B0003D01F28F98EF8CF0010E9925926F000E8A
:1018C0009A21936F000E9B21946F000E9C21956FBF
:1018D000030E70EF8CF0D89095339433933392339A
:1018E000E82E6BEF8CF092C099F093C09AF094C000
:1018F0009BF095C09CF0FF0E9925996FFF0E9A21E1
:101900009A6FFF0E9B219B6FFF0E9C219C6F9C5139
:1019100006E19B05D8B08FEF8CF091EF8CF095EF3E
:101920008CF03D01F29F98EF8CF0FE0E13EF8DF0DE
:1019300060006BF2F6FD600067F2F5FDF399F29D31
:1019400000019051D8B4A7EF8CF0A9EF8CF0C9EF4B
:101950008CF0000EE06F000EDF6F000E296E000E9F
:10196000976F000E966F000E9625D96E040E972184
:10197000DA6E000EDF6E964B972B9705D8A0C3EF5B
:101980008CF0C5EF8CF0B3EF8CF0010E286ECBEF2E
:101990008CF0000E286E9151D8B4D1EF8CF0D3EFBB
:1019A0008CF0FDEF8CF03D01F289000E0001986F84
:1019B000800E9825D96EDA6A030EDA22000EDF6EE9
:1019C000C00E9825D96EDA6A030EDA22000EDF6E99
:1019D000982B3F0E9865EFEF8CF0F1EF8CF0D8EF7D
:1019E0008CF0000EDE6F000E0201716F010E276E8B
:1019F0003901A3979387FFEF8CF0000E276E00014B
:101A00009051D8A406EF8DF008EF8DF010EF8DF017
:101A10009151D8B40EEF8DF010EF8DF012EF8DF0E4
:101A20003D01F38F000E12000001DBBF1AEF8DF0B5
:101A30001CEF8DF01DEF8DF0DC93DBBF2AEF8DF0F6
:101A4000DB5106E1DA05D8B028EF8DF02AEF8DF0F2
:101A500030EF8DF0000EAD6F010EAC6F34EF8DF0F6
:101A6000DAC0ACF0DBC0ADF00DC0AEF00EC0AFF030
:101A70009CC0B0F09DC0B1F09EC0B2F09FC0B3F06A
:101A8000A0C0B4F0A1C0B5F0A2C0B6F0A3C0B7F03A
:101A9000000EB96F1F0EB86F000E0201926FC8EFF3
:101AA0008DF0B807D8A0B907730EB825D96E020E0D
:101AB000B921DA6EB0C07FF0B1C080F0B2C081F061
:101AC000B3C082F0B4C083F0B5C084F0B6C085F076
:101AD000B7C086F00A0E876F000E886F000E896F00
:101AE000000E8A6F000E8B6F000E8C6F000E8D6FD4
:101AF000000E8E6F46EC99F07FC0A4F080C0A5F078
:101B000081C0A6F082C0A7F083C0A8F084C0A9F06D
:101B100085C0AAF086C0ABF00001A451300FDF6E83
:101B2000AC07D8A0AD07AE07D8A0AF07B0C07FF014
:101B3000B1C080F0B2C081F0B3C082F0B4C083F015
:101B4000B5C084F0B6C085F0B7C086F00A0E876FC6
:101B5000000E886F000E896F000E8A6F000E8B6F6B
:101B6000000E8C6F000E8D6F000E8E6F3CEC95F0AA
:101B70007FC0B0F080C0B1F081C0B2F082C0B3F0DD
:101B800083C0B4F084C0B5F085C0B6F086C0B7F0AD
:101B90000001B851B911D8B4D0EF8DF0D2EF8DF06B
:101BA00002EF8EF0B051B111B211B311B411B511F1
:101BB000B611B711D8A4DFEF8DF0E1EF8DF051EF42
:101BC0008DF0ADBFEEEF8DF0AD5106E1AC05D8B0B4
:101BD000ECEF8DF0EEEF8DF051EF8DF0AFBFF9EF40
:101BE0008DF0AF5108E1AE05D8A0F9EF8DF0FBEF15
:101BF0008DF002EF8EF0DCB300EF8EF002EF8EF08E
:101C000051EF8DF09AC08FF09BC090F0730EB82505
:101C1000916F020EB921926FAEC093F0AFC094F0F5
:101C2000AFEC99F08FC09AF090C09BF01200000EBC
:101C300000019B6F000E9C6F000E9D6F000E9E6F4B
:101C4000000E956F000E946F28EF8EF08B4B8C2B4F
:101C5000010E9A6F60002FF2D9FF600033F2DAFFB5
:101C6000200EDE18D8B437EF8EF039EF8EF057EF34
:101C70008EF0F70E8F6FFF0E906F60002FF2D9FF7E
:101C8000600033F2DAFFDF50916F926B8F51912732
:101C900090519223925109E1050E915DD8A053EF26
:101CA0008EF055EF8EF057EF8EF0000E9A6F9AC0BF
:101CB00096F0976B96519711D8A461EF8EF063EF71
:101CC0008EF026EF8EF06DEF8EF0000E956F010E08
:101CD000946F8B4B8C2BB9EF8EF060002FF2D9FFF5
:101CE000600033F2DAFFDF508F6F906B9051000A83
:101CF000D8B47DEF8EF0B9EF8EF08F512B0AD8B4A7
:101D000069EF8EF0060AD8B465EF8EF0B9EF8EF069
:101D100060002FF2D9FF600033F2DAFFDF508F6FDF
:101D2000D00E8F25906F916BFF0E9123926B936B6A
:101D30009BC07FF09CC080F09DC081F09EC082F06F
:101D40000A0E836F000E846F000E856F000E866F83
:101D500027ECA1F0000190517F5D9B6F915180595C
:101D60009C6F925181599D6F935182599E6F69EF7B
:101D70008EF0D00E8F6FFF0E906F60002FF2D9FFA4
:101D8000600033F2DAFFDF50916F926B8F51912731
:101D90009051922392510AE10A0E915DD8A0D3EF9F
:101DA0008EF0D6EF8EF0010ED7EF8EF0000E986F0A
:101DB000996B98519911D8A4E0EF8EF0E2EF8EF074
:101DC00088EF8EF094519511D8A4E9EF8EF0EBEFE7
:101DD0008EF006EF8FF09BC08FF09CC090F09DC0FE
:101DE00091F09EC092F08F1F901F911F921F8F2B1A
:101DF000000E9023912392238FC08BF090C08CF023
:101E000091C08DF092C08EF00EEF8FF09BC08BF0E2
:101E10009CC08CF09DC08DF09EC08EF01200000E14
:101E20000001946F000E936F000E8D6F000E8C6F8B
:101E30001CEF8FF0864B872B010E926F60001BF218
:101E4000F6FF60001FF2F7FF000EF86E0800F55075
:101E5000200AD8B42EEF8FF030EF8FF051EF8FF0D3
:101E6000F70E886FFF0E896F60001BF2F6FF6000AF
:101E70001FF2F7FF000EF86E0800F5508A6F8B6BAB
:101E800088518A2789518B238B5109E1050E8A5D80
:101E9000D8A04DEF8FF04FEF8FF051EF8FF0000E85
:101EA000926F92C08EF08F6B8E518F11D8A45BEF22
:101EB0008FF05DEF8FF01AEF8FF067EF8FF0000E6D
:101EC0008D6F010E8C6F864B872BA5EF8FF0600016
:101ED0001BF2F6FF60001FF2F7FF000EF86E08001D
:101EE000F550886F896B8951000AD8B47AEF8FF06A
:101EF000A5EF8FF088512B0AD8B463EF8FF0060A54
:101F0000D8B45FEF8FF0A5EF8FF093C07FF094C04F
:101F100080F0000E826F0A0E816FE6ECA5F0600083
:101F20001BF2F6FF60001FF2F7FF000EF86E0800CC
:101F3000F55000017F5F000E805B300E7F25936FB0
:101F4000000E8021946F63EF8FF0D00E886FFF0E2C
:101F5000896F60001BF2F6FF60001FF2F7FF000EB2
:101F6000F86E0800F5508A6F8B6B88518A2789516B
:101F70008B238B510AE10A0E8A5DD8A0C2EF8FF045
:101F8000C5EF8FF0010EC6EF8FF0000E906F916BD2
:101F900090519111D8A4CFEF8FF0D1EF8FF085EF52
:101FA0008FF08C518D11D8A4D8EF8FF0DAEF8FF02D
:101FB000E8EF8FF093C088F094C089F0881F891FE4
:101FC000884B892B88C086F089C087F0ECEF8FF0B2
:101FD00093C086F094C087F012004FECA6F004EC9A
:101FE00093F00009D8B4F7EF8FF0F9EF8FF0FBEF23
:101FF0008FF0C0EF90F0370E01011B6F010E1C6FC8
:10200000D20E1D6FFE0E1E6F70C21FF1206BA3EC6F
:10201000A3F0370E0001916F010E926FD3EC9FF089
:10202000040026ECA6F011ECA6F0FCECA5F00201F1
:102030006F51D8B41EEF90F020EF90F022EF90F0A7
:10204000000E6F6F6E51D8B428EF90F02AEF90F029
:10205000A9EF90F0000E6E6F370E01011B6F010E9D
:102060001C6FDC0E1D6FFF0E1E6F01C01FF102C042
:1020700020F103C021F104C022F1A3ECA3F0370E3C
:102080000001916F010E926FD3EC9FF062C27FF05E
:1020900063C280F0040E0001816FCFEC8AF0370E2E
:1020A00001011B6F010E1C6F0E0E1D6FFF0E1E6FC8
:1020B0006AC21FF16BC220F162C221F163C222F138
:1020C00064C223F165C224F1A3ECA3F0370E000132
:1020D000916F010E926FD3EC9FF0370E01011B6FD1
:1020E000010E1C6F300E1D6FFF0E1E6F68C21FF1B8
:1020F00069C220F15EC221F15FC222F160C223F108
:1021000061C224F1A3ECA3F0370E0001916F010E20
:10211000926FD3EC9FF0370E01011B6F010E1C6F05
:10212000520E1D6FFF0E1E6F66C21FF167C220F1B7
:102130005AC221F15BC222F15CC223F15DC224F1DB
:10214000A3ECA3F0370E0001916F010E926FD3EC58
:102150009FF002017151D8B4B0EF90F0B2EF90F05F
:1021600010EF90F0C00E0001916F030E926FD3EC50
:102170009FF095EC84F0000E0201716F10EF90F06B
:1021800057EF00F06F0060FF79F03901A397000E60
:1021900000017A6F000E7B6F3D01F9A7D2EF90F03E
:1021A000D4EF90F0D7EF90F0010E00017A6F3D016F
:1021B000F9A3DDEF90F0DFEF90F0E5EF90F0010E86
:1021C00000017B6F3D01F299F28900017B51D8A497
:1021D000ECEF90F0EEEF90F088EF91F06F00A0F749
:1021E0007CF07A51D8A4F7EF90F0F9EF90F088EFF7
:1021F00091F0400EDE61FFEF90F001EF91F066EF9D
:1022000091F00A0E7C19D8B408EF91F00AEF91F022
:1022100027EF91F00D0E7C19D8B411EF91F013EF68
:1022200091F027EF91F07C51D8B419EF91F01BEFAA
:1022300091F027EF91F0800EDE25D96EDA6A030E59
:10224000DA226000F3F1DFFFDE2B88EF91F0DE5140
:10225000D8B42DEF91F02FEF91F088EF91F0000EB0
:102260007D6F4BEF91F0800E7D25D96EDA6A030EFB
:10227000DA22C00E7D25E16EE26A030EE2226F00D3
:102280007FFFE7FF800E7D25D96EDA6A030EDA2222
:10229000000EDF6E7D2BDE517D5DD8A052EF91F0F8
:1022A00054EF91F033EF91F0C00EDE25D96EDA6A6B
:1022B000030EDA22000EDF6EDEC072F2010E0201A2
:1022C000716F000E0001DE6F88EF91F0000E7E6FDF
:1022D000800E7E25D96EDA6A030EDA22000EDF6EDA
:1022E000C00E7E25D96EDA6A030EDA22000EDF6E8A
:1022F0007E2B3F0E7E657FEF91F081EF91F068EFCE
:1023000091F0000EDE6F000E0201716F88EF91F008
:102310006000E7F1D8FF1100000E0001906F8EBF42
:1023200096EF91F094EF91F0A8EF91F08E1F8D1F32
:102330008C1F8B1F8A1F891F881F876D000E8823A3
:1023400089238A238B238C238D238E23010E906F68
:1023500086BFAFEF91F0ADEF91F0C1EF91F0861F26
:10236000851F841F831F821F811F801F7F6D000EAA
:102370008023812382238323842385238623010EC4
:10238000901B20EE91F0070EDE6AE806FDE2875111
:10239000881189118A118B118C118D118E11D8B46D
:1023A000D4EF91F0D6EF91F028EF92F0010E8F6FFD
:1023B000E4EF91F0D8908737883789378A378B37A1
:1023C0008C378D378E378F2B8EAFE9EF91F0EBEF97
:1023D00091F0DAEF91F0D8909137923793379437A4
:1023E000953796379737983787517F5D8851805951
:1023F000895181598A5182598B5183598C51845901
:102400008D5185598E518659D8A009EF92F00BEF66
:1024100092F01CEF92F087517F5F8851805B895169
:10242000815B8A51825B8B51835B8C51845B8D51C4
:10243000855B8E51865B9181D8908E338D338C3342
:102440008B338A338933883387338F2FEBEF91F0C7
:102450009051D8B42EEF92F030EF92F040EF92F01E
:10246000981F971F961F951F941F931F921F916D82
:10247000000E922393239423952396239723982346
:1024800091C07FF092C080F093C081F094C082F040
:1024900095C083F096C084F097C085F098C086F010
:1024A0001200000E0001906F86BF5BEF92F059EFB3
:1024B00092F06DEF92F0861F851F841F831F821F8D
:1024C000811F801F7F6D000E802381238223832341
:1024D000842385238623010E906F8EBF74EF92F0C4
:1024E00072EF92F084EF92F08E1F8D1F8C1F8B1F66
:1024F0008A1F891F881F876D000E882389238A23DE
:102500008B238C238D238E238751881189118A1167
:102510008B118C118D118E11D8B491EF92F093EF35
:1025200092F0DBEF92F0010E8F6FA1EF92F0D89056
:102530008737883789378A378B378C378D378E378F
:102540008F2B8EAFA6EF92F0A8EF92F097EF92F05C
:1025500087517F5D88518059895181598A518259AB
:102560008B5183598C5184598D5185598E5186597F
:10257000D8A0BDEF92F0BFEF92F0CFEF92F087516D
:102580007F5F8851805B8951815B8A51825B8B516F
:10259000835B8C51845B8D51855B8E51865BD890BB
:1025A0008E338D338C338B338A338933883387333F
:1025B0008F2FA8EF92F09051D8B4E1EF92F0E3EFB3
:1025C00092F0F3EF92F0861F851F841F831F821FF6
:1025D000811F801F7F6D000E802381238223832330
:1025E0008423852386237FC07FF080C080F081C054
:1025F00081F082C082F083C083F084C084F085C003
:1026000085F086C086F0120063ECA6F0C38EC38C02
:10261000000E016E000E026E000E036E000E046EC0
:10262000000E0201706F000E6F6F000E6E6FE80EED
:1026300000018C6F030E8D6F000E8E6F000E8F6F7A
:10264000010E906F8FEC97F00009D8A42AEF93F059
:102650002CEF93F032EF93F0020170813901878102
:102660008EECA6F0030E0001906FF20E8F6F81ECDE
:10267000A5F00009D8A43FEF93F041EF93F043EFAA
:1026800093F002017083000E00018C6FC20E8D6FFB
:10269000010E8E6F000E8F6F010E906F010E916F05
:1026A0000FEC8CF00009D8A458EF93F05AEF93F098
:1026B0005CEF93F002017085930E00019B6F020E98
:1026C0009C6FE80E9D6F000E9F6F000E9E6F000EB8
:1026D000A16F000EA06F000EA36F000EA26F14EC8E
:1026E0009AF00009D8A477EF93F079EF93F07BEF9D
:1026F00093F002017087CDECA5F00009D8A483EF18
:1027000093F085EF93F087EF93F002017089B4ECBA
:10271000A5F00009D8A48FEF93F091EF93F093EF19
:1027200093F00201708B9BECA5F00009D8A49BEFFD
:1027300093F09DEF93F09FEF93F00201708DD28A9A
:10274000D28E000E1200390193993D01F29B0001D7
:10275000DF51E019D8A4AFEF93F0B1EF93F0B9EFE8
:1027600093F02950D8A4B7EF93F0B9EF93F01DEF91
:1027700094F083C07FF084C080F0B7ECA4F0000137
:10278000DF51E0C085F0866B855F000E865B7F5170
:10279000855D80518659D8B0D0EF93F0D2EF93F099
:1027A000E3EF93F0E051DF19D8A4D9EF93F0DBEF1A
:1027B00093F01AEF94F02950D8A4E1EF93F0E3EFEF
:1027C00093F01AEF94F0000E876FF8EF93F08751B3
:1027D0008325D96E000E8421DA6E000EDF25E16EAE
:1027E000E26A040EE2226F007FFFE7FFDF2B872BF8
:1027F00083C07FF084C080F0B7ECA4F00001875163
:10280000856F866B7F51855D80518659D8A00BEF0F
:1028100094F00DEF94F0E7EF93F0E051DF19D8A4B6
:1028200014EF94F016EF94F01DEF94F0010E296E62
:102830001DEF94F0FE0E33EF94F0E051DF19D8A4B1
:1028400024EF94F026EF94F02EEF94F02950D8B4B2
:102850002CEF94F02EEF94F032EF94F0390193893D
:102860003D01F28B000E12007FC086F080C087F021
:1028700081C088F082C089F000018307D8A0840756
:10288000832906E18429D8A448EF94F04AEF94F014
:1028900057EF94F0000E806F000E7F6FBDEF94F045
:1028A000864B872B884B892B8307D8A08407600031
:1028B0001BF2F6FF60001FF2F7FF000EF86E080033
:1028C000F5500009D8B467EF94F069EF94F0A2EFE7
:1028D00094F0600023F2F6FF600027F2F7FF000E8D
:1028E000F86E0800F5500009D8B479EF94F07BEF4A
:1028F00094F0A2EF94F083518411D8B482EF94F055
:1029000084EF94F0A2EF94F060001BF2F6FF6000F9
:102910001FF2F7FF000EF86E08006F00D4FF85F07D
:10292000600023F2F6FF600027F2F7FF000EF86E5A
:102930000800F5508519D8B4A0EF94F0A2EF94F0F8
:1029400050EF94F060001BF2F6FF60001FF2F7FFFB
:10295000000EF86E08006F00D4FF85F0600023F2CF
:10296000F6FF600027F2F7FF000EF86E0800F55042
:10297000855D7F6F806BD8A080071200010E00017B
:10298000886F000E876F8605D8A4C9EF94F0CBEF4F
:1029900094F0CFEF94F0010E876FDAEF94F0020E0F
:1029A0008619D8A4D6EF94F0D8EF94F0DAEF94F02B
:1029B000020E886F87C000F388C07FF0600013F2BA
:1029C000D9FF600017F2DAFFDF50806F010EFDECD7
:1029D00097F000018819D8B4F0EF94F0F2EF94F07A
:1029E000F5EF94F0FE0E3BEF95F040C389F041C344
:1029F0008AF08651D8A4FFEF94F001EF95F00CEF28
:102A000095F020EE01F08451D9268551DA2260003C
:102A100027F2DFFF3AEF95F08605D8A412EF95F084
:102A200014EF95F01FEF95F020EE05F08451D926B4
:102A30008551DA22600027F2DFFF3AEF95F0020EAF
:102A40008619D8A426EF95F028EF95F03AEF95F087
:102A500020EE01F08451D9268551DA22600027F258
:102A6000DFFF20EE05F08451D9268551DA2260007F
:102A70002BF2DFFF000E120020EE8FF0070EDE6A51
:102A8000E806FDE200018751881189118A118B1136
:102A90008C118D118E11D8B450EF95F052EF95F046
:102AA000A4EF95F0010E976F60EF95F0D8908737FF
:102AB000883789378A378B378C378D378E37972B06
:102AC0008EAF65EF95F067EF95F056EF95F0D890E3
:102AD0008F379037913792379337943795379637AA
:102AE00087517F5D88518059895181598A51825916
:102AF0008B5183598C5184598D5185598E518659EA
:102B0000D8A085EF95F087EF95F098EF95F0875175
:102B10007F5F8851805B8951815B8A51825B8B51D9
:102B2000835B8C51845B8D51855B8E51865B8F817D
:102B3000D8908E338D338C338B338A3389338833FB
:102B40008733972F67EF95F08FC07FF090C080F0AC
:102B500091C081F092C082F093C083F094C084F061
:102B600095C085F096C086F0120000018A518B1145
:102B7000D8A4BDEF95F0BFEF95F0D2EF95F009C066
:102B80008AF00AC08BF08A518B11D8A4CAEF95F055
:102B9000CCEF95F0D2EF95F0000E8A6F000E8B6FA0
:102BA0002CEF96F08AC083F08BC084F08CC085F047
:102BB0008DC086F049ECA0F0000183518A27845132
:102BC0008B2360002BF2D9FF60002FF2DAFFDF5079
:102BD000D8A4EDEF95F0EFEF95F0F9EF95F0000E3A
:102BE000096E000E0A6E09C08AF00AC08BF02CEF45
:102BF00096F08AC083F08BC084F08CC085F08DC0C5
:102C000086F082ECA0F0000183518A25096E845180
:102C10008B210A6E600027F0D9FF60002BF0DAFFED
:102C2000DF50D8B416EF96F018EF96F024EF96F038
:102C3000600027F0D9FF60002BF0DAFF000EDF6E96
:102C4000094A0A2A28EF96F0000E096E000E0A6E55
:102C50008AC08AF08BC08BF01200000E106E000E3E
:102C60000F6E80ECA6F0020E9A6E000E9B6E010EA7
:102C70009D6E000E0001936F000E946F240E956FF1
:102C8000F40E966F000E976F94C07FF095C080F0A1
:102C900096C081F097C082F08CC083F08DC084F024
:102CA000856B866B4CEC9DF07FC094F080C095F0F6
:102CB00081C096F082C097F07EEF96F094C08FF0BE
:102CC00095C090F096C091F097C092F0D890923352
:102CD000913390338F338FC094F090C095F091C0B2
:102CE00096F092C097F0932B030E93657AEF96F0CF
:102CF0007CEF96F07EEF96F0A2EF96F000019751F0
:102D000006E19605D8B087EF96F089EF96F05EEF72
:102D100096F0941D0F6E951D106E1050996E600008
:102D20003FF098FF9339F00B936F93519A128E51A5
:102D3000D8B49DEF96F09FEF96F0A2EF96F0390190
:102D4000A89D988D1200000E126E000E116E84EC7C
:102D5000A6F0020EA66E000EA76E010EA96E000E62
:102D60000001936F000E946F240E956FF40E966F12
:102D7000000E976F94C07FF095C080F096C081F0F0
:102D800097C082F08CC083F08DC084F0856B866B19
:102D90004CEC9DF07FC094F080C095F081C096F01F
:102DA00082C097F0F4EF96F094C08FF095C090F049
:102DB00096C091F097C092F0D890923391339033AF
:102DC0008F338FC094F090C095F091C096F092C070
:102DD00097F0932B030E9365F0EF96F0F2EF96F0D9
:102DE000F4EF96F018EF97F00001975106E1960581
:102DF000D8B0FDEF96F0FFEF96F0D4EF96F0941D6B
:102E0000116E951D126E1250A56E600047F0A4FF62
:102E10009339F00B936F9351A6128E51D8B413EFE0
:102E200097F015EF97F018EF97F03901A69D968D62
:102E30001200000E146E000E136E88ECA6F0020E47
:102E4000B26E000EB36E010EB56E000E0001936FF0
:102E5000000E946F240E956FF40E966F000E976F10
:102E600094C07FF095C080F096C081F097C082F04A
:102E70008CC083F08DC084F0856B866B4CEC9DF02C
:102E80007FC094F080C095F081C096F082C097F02A
:102E90006AEF97F094C08FF095C090F096C091F0D3
:102EA00097C092F0D8909233913390338F338FC084
:102EB00094F090C095F091C096F092C097F0932B4B
:102EC000030E936566EF97F068EF97F06AEF97F05F
:102ED0008EEF97F00001975106E19605D8B073EF99
:102EE00097F075EF97F04AEF97F0941D136E951DCC
:102EF000146E1450B16E60004FF0B0FF9339F00BB8
:102F0000936F9351B2128E51D8B489EF97F08BEF33
:102F100097F08EEF97F03901A491948112008CEC18
:102F2000A6F0010EA26E000EA16E000E0001956FBC
:102F3000000E966F240E976FF40E986F000E996F27
:102F400096C07FF097C080F098C081F099C082F061
:102F50008CC083F08DC084F08EC085F08FC086F069
:102F60004CEC9DF07FC096F080C097F081C098F047
:102F700082C099F0DDEF97F096C091F097C092F083
:102F800098C093F099C094F0D890943393339233CF
:102F9000913391C096F092C097F093C098F094C08E
:102FA00099F0952B070E9565D8EF97F0DAEF97F02B
:102FB000DDEF97F0FE0EFCEF97F0000199519811AC
:102FC00006E19705D8B0E7EF97F0E9EF97F0BCEF8F
:102FD00097F096059F6E9539F00B956F9551A0125D
:102FE0009051D8B4F6EF97F0F8EF97F0FBEF97F029
:102FF0003901A7919781000E12000001816F3D01F8
:1030000077AB05EF98F007EF98F00EEF98F077AFF9
:103010000CEF98F00EEF98F0FFEF97F00001805161
:10302000FE0B3D016E6F600007F26CFD738B000EAE
:103030000001826F2EEF98F0000E8225D96EDA6AB9
:10304000030EDA22DF503D016B6F78AB2AEF98F068
:103050002CEF98F025EF98F00001822B8151825DD2
:10306000D8A035EF98F037EF98F01CEF98F03D01BD
:1030700077BB3DEF98F03FEF98F037EF98F0000105
:10308000805101093D016E6F6000FFF16CFD738B93
:10309000000E0001836F60EF98F03D0178A153EFBF
:1030A00098F055EF98F04DEF98F0400E0001832511
:1030B000D96EDA6A030EDA226F00ABF5DFFF832BDD
:1030C0007F51835DD8A067EF98F069EF98F04DEFDE
:1030D00098F08351120092ECA6F0010E966E000E4D
:1030E000956E000E0001956F000E966F240E976F7F
:1030F000F40E986F000E996F96C07FF097C080F025
:1031000098C081F099C082F08CC083F08DC084F0AB
:103110008EC085F08FC086F04CEC9DF07FC096F09D
:1031200080C097F081C098F082C099F0B9EF98F014
:1031300096C091F097C092F098C093F099C094F027
:10314000D890943393339233913391C096F092C0D8
:1031500097F093C098F094C099F0952B070E956561
:10316000B4EF98F0B6EF98F0B9EF98F0FE0ED8EF04
:1031700098F000019951981106E19705D8B0C3EF76
:1031800098F0C5EF98F098EF98F09605936E953902
:10319000F00B956F955194129051D8B4D2EF98F0EE
:1031A000D4EF98F0D7EF98F03901A9919981000EEA
:1031B0001200000181518211D8B4E1EF98F0E3EFE1
:1031C00098F0ECEF98F081518211D8A4EAEF98F0D2
:1031D000ECEF98F0F1EF98F07F5194ECA6F045EF0A
:1031E00099F020EE04F08151D9268251DA22DE5086
:1031F000DE10D8B4FEEF98F000EF99F01BEF99F0D5
:1032000020EE04F08151D9268251DA2210EE02F02C
:103210008151E1268251E222DE50E65CE650800ACE
:10322000876FDE50800A8759D8B019EF99F01BEFED
:1032300099F045EF99F020EE02F08151D9268251A4
:10324000DA226F0078FF83F06F0074FF84F0600073
:1032500007F2D9FF60000BF2DAFF6F0078FF85F00C
:103260006F0074FF86F083518525D96E84518621C5
:10327000DA6E6000FFF1DFFF20EE02F08151D92607
:103280008251DA22DE2A000EDD221200000187516F
:10329000881189118A118B118C118D118E11D8B45E
:1032A00054EF99F056EF99F09EEF99F0010E8F6F61
:1032B00064EF99F0D8908737883789378A378B370A
:1032C0008C378D378E378F2B8EAF69EF99F06BEF80
:1032D00099F05AEF99F087517F5D88518059895153
:1032E00081598A5182598B5183598C5184598D51FE
:1032F00085598E518659D8A080EF99F082EF99F0C8
:1033000092EF99F087517F5F8851805B8951815B93
:103310008A51825B8B51835B8C51845B8D51855BC1
:103320008E51865BD8908E338D338C338B338A33BA
:103330008933883387338F2F6BEF99F07FC07FF00D
:1033400080C080F081C081F082C082F083C083F0B1
:1033500084C084F085C085F086C086F0120000012C
:10336000DCA1B5EF99F0B7EF99F0C1EF99F091C0FA
:1033700088F092C089F08FC08AF090C08BF0CCECBE
:10338000A3F0000194BFC7EF99F0C9EF99F0CFEF18
:1033900099F093C098F094C099F0D3EF99F0000E93
:1033A000996F000E986F000E976F000E966FE6EF04
:1033B00099F0000E806F200E7F6F8FC081F090C05B
:1033C00082F0D9EC98F00001964B972B9851965DBE
:1033D0009751800A956F9951800A9559D8A0F3EFBB
:1033E00099F0F5EF99F0D9EF99F0DCB1FAEF99F097
:1033F000FCEF99F006EF9AF091C088F092C089F046
:103400008FC08AF090C08BF0CCECA3F091C07FF01D
:1034100092C080F0B7ECA4F0000198517F258F6F27
:1034200099518021906F120060006FF2D9FF600007
:1034300073F2DAFF600077F2DFFF000120EE04F0A4
:103440009B51D9269C51DA2260007BF2DFFF20EEEF
:1034500003F09B51D9269C51DA22600083F2DFFFF2
:1034600020EE02F09B51D9269C51DA2260008BF2AB
:10347000DFFF20EE08F09B51D9269C51DA229F51A4
:10348000DF6E20EE07F09B51D9269C51DA22A15124
:10349000DF6E20EE06F09B51D9269C51DA22A35113
:1034A000DF6E010EF4EC9CF00009D8B45AEF9AF0EC
:1034B0005CEF9AF05FEF9AF0FE0E73EF9AF0BB9616
:1034C000C396680E0001A46FE40EE82EFED7A42F69
:1034D000FCD700F07DECA6F0BB869BC08BF09CC0B7
:1034E0008CF09FEC9DF01200020E0001886F020E1E
:1034F000856F20EE02F08251D9268351DA22DF5007
:10350000866F20EE06F08251D9268351DA22DF50F1
:10351000876F8405D8A48FEF9AF091EF9AF09DEF12
:103520009AF0030E856F20EE06F08251D926835162
:10353000DA22DF50866FA8EF9AF0020E8419D8A421
:10354000A4EF9AF0A6EF9AF0A8EF9AF0030E886F16
:1035500085C000F386C001F3030E8819D8A4B3EF29
:103560009AF0B5EF9AF0B7EF9AF087C002F36000D7
:103570000BF2D9FF60000FF2DAFFDF507F6F885146
:10358000C8ECA1F000018819D8A4C9EF9AF0CBEFDC
:103590009AF0CEEF9AF0000ECFEF9AF0FE0E1200E6
:1035A000020E0001886F040E856F20EE03F0825139
:1035B000D9268351DA22DF50866F20EE07F0825140
:1035C000D9268351DA22DF50876F8405D8A4EBEF28
:1035D0009AF0EDEF9AF0F9EF9AF0050E856F20EE74
:1035E00007F08251D9268351DA22DF50866F04EF2B
:1035F0009BF0020E8419D8A400EF9BF002EF9BF021
:1036000004EF9BF0030E886F85C000F386C001F3C2
:10361000030E8819D8A40FEF9BF011EF9BF013EF66
:103620009BF087C002F360000BF2D9FF60000FF23D
:10363000DAFFDF507F6F8851C8ECA1F000018819D4
:10364000D8A425EF9BF027EF9BF02AEF9BF0000E0C
:103650002BEF9BF0FE0E1200020E0001886F060E8B
:10366000856F20EE04F08251D9268351DA22DF5093
:10367000866F20EE08F08251D9268351DA22DF507E
:10368000876F8405D8A447EF9BF049EF9BF055EF77
:103690009BF0070E856F20EE08F08251D9268351EA
:1036A000DA22DF50866F60EF9BF0020E8419D8A4F7
:1036B0005CEF9BF05EEF9BF060EF9BF0030E886F7A
:1036C00085C000F386C001F3030E8819D8A46BEF00
:1036D0009BF06DEF9BF06FEF9BF087C002F36000F3
:1036E0000BF2D9FF60000FF2DAFFDF507F6F8851D5
:1036F000C8ECA1F000018819D8A481EF9BF083EFFA
:103700009BF086EF9BF0000E87EF9BF0FE0E120001
:10371000AEEF9BF0080E196EDEEF9BF00C0E196EEB
:10372000DEEF9BF0040E196EDEEF9BF0060E196EB5
:10373000DEEF9BF0020E196EDEEF9BF0030E196EAA
:10374000DEEF9BF0010E196EDEEF9BF0090E196E95
:10375000DEEF9BF0000E196EDEEF9BF017C098F0C5
:103760000001996B98BF99079951000AD8B4BBEF33
:103770009BF0AAEF9BF09851000AD8B48AEF9BF017
:10378000010AD8B48EEF9BF0030AD8B492EF9BF0F5
:10379000010AD8B496EF9BF0070AD8B49AEF9BF0D1
:1037A000010AD8B49EEF9BF0030AD8B4A2EF9BF0B5
:1037B000010AD8B4A6EF9BF0AAEF9BF0F4ECA2F0BC
:1037C00080EC9EF0120009EF9CF0080E1E6E39EF9F
:1037D0009CF00C0E1E6E39EF9CF0040E1E6E39EF3D
:1037E0009CF0060E1E6E39EF9CF0020E1E6E39EF35
:1037F0009CF0030E1E6E39EF9CF0010E1E6E39EF29
:103800009CF0090E1E6E39EF9CF0000E1E6E39EF13
:103810009CF01CC098F00001996B98BF99079951D2
:10382000000AD8B416EF9CF005EF9CF09851000AFE
:10383000D8B4E5EF9BF0010AD8B4E9EF9BF0030A96
:10384000D8B4EDEF9BF0010AD8B4F1EF9BF0070A72
:10385000D8B4F5EF9BF0010AD8B4F9EF9BF0030A56
:10386000D8B4FDEF9BF0010AD8B401EF9CF005EF4E
:103870009CF0F4ECA2F0C5EC9EF0120064EF9CF01A
:10388000080E236E94EF9CF00C0E236E94EF9CF0C8
:10389000040E236E94EF9CF0060E236E94EF9CF0C2
:1038A000020E236E94EF9CF0030E236E94EF9CF0B7
:1038B000010E236E94EF9CF0090E236E94EF9CF0A2
:1038C000000E236E94EF9CF021C098F00001996BDC
:1038D00098BF99079951000AD8B471EF9CF060EF36
:1038E0009CF09851000AD8B440EF9CF0010AD8B47B
:1038F00044EF9CF0030AD8B448EF9CF0010AD8B416
:103900004CEF9CF0070AD8B450EF9CF0010AD8B4F1
:1039100054EF9CF0030AD8B458EF9CF0010AD8B4D5
:103920005CEF9CF060EF9CF0F4ECA2F00AEC9FF0EE
:103930001200020E466E020E436E000120EE02F0EF
:103940007151D9267251DA22DF50446E20EE06F012
:103950007151D9267251DA22DF50456E7305D8A411
:10396000B4EF9CF0B6EF9CF0C2EF9CF0030E436EF8
:1039700020EE06F07151D9267251DA22DF50446EE2
:10398000CDEF9CF0020E7319D8A4C9EF9CF0CBEFD9
:103990009CF0CDEF9CF0030E466E43C000F344C094
:1039A00001F3030E4618D8A4D8EF9CF0DAEF9CF090
:1039B000DCEF9CF045C002F36000C7F1D9FF600066
:1039C000CBF1DAFFDF50706F465093ECA2F046184F
:1039D000D8A4EDEF9CF0EFEF9CF0F2EF9CF0000E1E
:1039E000F3EF9CF0FE0E120000019A6F78ECA6F047
:1039F000210E3A010C6F220E0D6F0C0EE16F0D0EB1
:103A0000E26F5289528BC398C39A040E3D01736FC3
:103A1000800E746F080E756F080E7B6F9AC024F0CD
:103A200000019A51D8B417EF9DF019EF9DF034EFD3
:103A30009DF0800E8C6F840E8D6F1E0E8E6F000EAB
:103A40008F6F000E906F6BEC98F00009D8A42BEFED
:103A50009DF02DEF9DF031EF9DF090ECA6F04AEF38
:103A60009DF0FE0E4BEF9DF0200E8C6FA10E8D6F22
:103A7000070E8E6F000E8F6F000E906F6BEC98F03C
:103A80000009D8A446EF9DF048EF9DF031EF9DF07E
:103A90002DEF9DF0000E1200000E0001876F000E4A
:103AA000886F000E896F000E8A6F83518411851113
:103AB0008611D8B45EEF9DF060EF9DF096EF9DF01B
:103AC000010E8B6F6AEF9DF0D8908337843785376E
:103AD00086378B2B86AF6FEF9DF071EF9DF064EF13
:103AE0009DF0D8908737883789378A3783517F5D33
:103AF000845180598551815986518259D8A083EFCC
:103B00009DF085EF9DF08EEF9DF083517F5F845196
:103B1000805B8551815B8651825B8781D89086333B
:103B20008533843383338B2F71EF9DF087C07FF013
:103B300088C080F089C081F08AC082F012008BC0FA
:103B400082F08CC083F0020E0001846FD0EC9AF0FA
:103B50000009D8B4AEEF9DF0B0EF9DF0B3EF9DF04B
:103B6000FE0EEDEF9DF08BC082F08CC083F0020E54
:103B70000001846F74EC9AF00009D8B4C2EF9DF094
:103B8000C4EF9DF0C6EF9DF0B0EF9DF08BC082F0CA
:103B90008CC083F0020E0001846F2CEC9BF00009B6
:103BA000D8B4D5EF9DF0D7EF9DF0D9EF9DF0B0EFF1
:103BB0009DF08BC084F08CC085F0020E0001866FF2
:103BC000BEEC94F00009D8B4E8EF9DF0EAEF9DF068
:103BD000ECEF9DF0B0EF9DF0000E12003901A791BF
:103BE000010E0126000E022203220422F0ECA3F0B3
:103BF00001C02AF002C02BF003C02CF004C02DF04D
:103C0000F40E2E6E010E2F6E000E306E000E316E11
:103C10004FEC9FF02A502B102C102D10D8A413EF2E
:103C20009EF015EF9EF018EF9EF0010E02016F6FEF
:103C300001C02AF002C02BF003C02CF004C02DF00C
:103C4000D00E2E6E070E2F6E000E306E000E316EEF
:103C50004FEC9FF02A502B102C102D10D8A433EFCE
:103C60009EF035EF9EF038EF9EF0010E02016E6F70
:103C700011003FEF9EF07F4B802B814B822B600029
:103C8000FFF1D9FF600003F2DAFFDF500001836F1C
:103C9000600007F2F6FF60000BF2F7FF000EF86E0F
:103CA0000800F5508319D8A458EF9EF05AEF9EF003
:103CB00068EF9EF06000FFF1D9FF600003F2DAFFC9
:103CC000DF50D8A466EF9EF068EF9EF03BEF9EF0C9
:103CD0006000FFF1D9FF600003F2DAFFDF50836F6D
:103CE000600007F2F6FF60000BF2F7FF000EF86EBF
:103CF0000800F550835D7F6F806BD8A080071200AD
:103D00001604D8A486EF9EF088EF9EF090EF9EF008
:103D1000172A010E02015A27000E5B235C235D2344
:103D20001650D8A496EF9EF098EF9EF0A2EF9EF06A
:103D30001706FF0E02015A27FF0E5B23FF0E5C23BE
:103D4000FF0E5D231750800A780FD8A0AAEF9EF0CF
:103D5000ACEF9EF0AEEF9EF0000E176E17BEB5EF03
:103D60009EF0B3EF9EF0B7EF9EF0070E176E040EB5
:103D700000018D6FE20E8C6F010E8E6F2DEC96F0B0
:103D800082ECA6F0000E156E12001B04D8A4CBEF37
:103D90009EF0CDEF9EF0D5EF9EF01C2A010E0201A1
:103DA0005E27000E5F23602361231B50D8A4DBEF46
:103DB0009EF0DDEF9EF0E7EF9EF01C06FF0E020185
:103DC0005E27FF0E5F23FF0E6023FF0E61231C5052
:103DD000800A780FD8A0EFEF9EF0F1EF9EF0F3EF9E
:103DE0009EF0000E1C6E1CBEFAEF9EF0F8EF9EF0E7
:103DF000FCEF9EF0070E1C6E040E00018D6FE20EAC
:103E00008C6F010E8E6FA3EC96F086ECA6F0000E80
:103E10001A6E12002004D8A410EF9FF012EF9FF04A
:103E20001AEF9FF0212A010E02016227000E632380
:103E3000642365232050D8A420EF9FF022EF9FF049
:103E40002CEF9FF02106FF0E02016227FF0E632375
:103E5000FF0E6423FF0E65232150800A780FD8A03F
:103E600034EF9FF036EF9FF038EF9FF0000E216E99
:103E700021BE3FEF9FF03DEF9FF041EF9FF0070E17
:103E8000216E040E00018D6FE20E8C6F010E8E6F9D
:103E900019EC97F08AECA6F0000E1F6E12002E505F
:103EA0002F1030103110D8B458EF9FF05AEF9FF018
:103EB0008AEF9FF0010E326E64EF9FF0D8902E369D
:103EC0002F3630363136322A31AE69EF9FF06BEF44
:103ED0009FF05EEF9FF02E502A5C2F502B583050F1
:103EE0002C5831502D58D8A078EF9FF07AEF9FF0E2
:103EF00082EF9FF02E502A5E2F502B5A30502C5AB2
:103F000031502D5AD890313230322F322E32322E5B
:103F10006BEF9FF02AC02AF02BC02BF02CC02CF0A6
:103F20002DC02DF01200DE0EF66E4C0EF76E010E57
:103F3000F86E00EE9CF210EE11F009006F00D7FF52
:103F4000EEFFE550E150F9E101EE00F010EE00F176
:103F5000EE6AE550E150FCE1E250FAE100EE00F3D8
:103F600010EE00F1EE6AE550E150FCE1E250FAE1BA
:103F700000EE5AF2420EEE6AE806FDE100EEDAF0DB
:103F8000070EEE6AE806FDE100EE01F0290EEE6A8A
:103F9000E806FDE1080ED56E000ED66E000ED76E57
:103FA0000001EDEF8FF091C07FF092C080F0B7EC90
:103FB000A4F0020E00017F27000E8023805107E14C
:103FC000400E7F5DD8B0E7EF9FF0E9EF9FF007EF7D
:103FD000A0F0930E836F000E846F91C085F092C0A5
:103FE00086F0F1ECA0F0930E00018D6F000E8E6F45
:103FF000CF0E8F6FFE0E906F3BECA6F0930E00017C
:10400000836F000E846FA3EC93F00DEFA0F091C0CE
:1040100083F092C084F0A3EC93F01200000E000134
:10402000856F000E846F81518211D8B41AEFA0F011
:104030001CEFA0F044EFA0F0010E836F24EFA0F07E
:10404000D89081378237832B82AF29EFA0F02BEFF6
:10405000A0F020EFA0F0D8908437853781517F5DA4
:1040600082518059D8A037EFA0F039EFA0F03EEF91
:10407000A0F081517F5F8251805B8481D890823330
:104080008133832F2BEFA0F084C07FF085C080F0B8
:104090001200000E0001896F000E886F54EFA0F02F
:1040A000834B842B884B892B60000FF2D9FF600073
:1040B00013F2DAFFDF50D8B460EFA0F062EFA0F0A7
:1040C0007DEFA0F085C07FF086C080F060000FF229
:1040D000D9FF600013F2DAFFDF50876F8751816FDD
:1040E000826B30ECA2F000017F518011D8A47BEFED
:1040F000A0F07DEFA0F050EFA0F088C083F089C061
:1041000084F01200000E0001896F000E886F8DEFA1
:10411000A0F0834B842B884B892B60000FF2D9FFD2
:10412000600013F2DAFFDF50D8B499EFA0F09BEFF4
:10413000A0F0B6EFA0F085C07FF086C080F06000F0
:104140000FF2D9FF600013F2DAFFDF50876F87515B
:10415000816F826B30ECA2F000017F518011D8B4E6
:10416000B4EFA0F0B6EFA0F089EFA0F088C083F024
:1041700089C084F0120000018C51D8A4C2EFA0F0D5
:10418000C4EFA0F0D7EFA0F020EE02F08951D926BD
:104190008A51DA2260002FF2DFFF89C082F08AC0E4
:1041A00083F0000E846F74EC9AF0F0EFA0F08C05B1
:1041B000D8A4DDEFA0F0DFEFA0F0F0EFA0F020EE4C
:1041C00006F08951D9268A51DA2260002FF2DFFFEA
:1041D00089C082F08AC083F0010E846F74EC9AF07B
:1041E000120085C089F086C08AF083C08BF084C03D
:1041F0008CF000018951876F8A51886F894B8A2B17
:1042000060001FF2F6FF600023F2F7FF000EF86E69
:1042100060002FF2D9FF600033F2DAFF8B4B8C2B5A
:104220001F0EF76403D00800F55007D06F00DBFFC6
:10423000E1FF6F00DFFFE2FFE750DF6EDF50D8A441
:1042400024EFA1F026EFA1F0F9EFA0F01200000E8C
:104250000001876F000E886F000E896F000E8A6F55
:104260007FA135EFA1F037EFA1F03FEFA1F083512F
:104270008727845188238551892386518A23D890A2
:104280008337843785378637D890823381338033BC
:104290007F337F51801181118211D8A452EFA1F098
:1042A00054EFA1F030EFA1F087C07FF088C080F01C
:1042B00089C081F08AC082F0120000017751D8A431
:1042C00064EFA1F066EFA1F079EFA1F020EE02F02B
:1042D0007451D9267551DA226000DBF1DFFF74C01A
:1042E00071F075C072F0000E736F99EC9CF092EF54
:1042F000A1F07705D8A47FEFA1F081EFA1F092EFB4
:10430000A1F020EE06F07451D9267551DA22600032
:10431000DBF1DFFF74C071F075C072F0010E736FD6
:1043200099EC9CF0120017C1D5F018C1D6F0000E20
:104330000C6E000E0B6EB1EFA1F015C1C1F016C1ED
:10434000C2F0D50E0001C36F000EC46F19C1C5F0D5
:104350001AC1C6F000EC80F00001C1510B26C25119
:104360000C22600057F3F6FF60005BF3F7FF000ECE
:10437000F86E0800F5500009D8A4C1EFA1F0C3EF12
:10438000A1F09DEFA1F00BC015F10CC016F11200C9
:104390000001806F3D0177AFD0EFA1F0D2EFA1F027
:1043A000CAEFA1F000017F51FE0B3D016E6F60006E
:1043B00003F26CFD738B000E0001816FF2EFA1F030
:1043C000000E8125D96EDA6A030EDA22DF503D0134
:1043D0006B6F78ABEEEFA1F0F0EFA1F0E9EFA1F099
:1043E0000001812B8051815DD8A0F9EFA1F0FBEF96
:1043F000A1F0E0EFA1F08151120000018151821182
:10440000D8B405EFA2F007EFA2F02BEFA2F0010E57
:10441000836F0FEFA2F0D89081378237832B82AF62
:1044200014EFA2F016EFA2F00BEFA2F081517F5D26
:1044300082518059D8A01FEFA2F021EFA2F025EF02
:10444000A2F081517F5F8251805BD89082338133AB
:10445000832F16EFA2F07FC07FF080C080F01200A3
:104460006000FFF1F6FF600003F2F7FF000EF86E48
:104470000800F55000018119D8A441EFA2F043EFE4
:10448000A2F049EFA2F07FC07FF080C080F061EF22
:10449000A2F06000FFF1F6FF600003F2F7FF7F4B30
:1044A000802B000EF86E0800F5500009D8A45BEFD1
:1044B000A2F05DEFA2F030EFA2F0000E7F6F000ED1
:1044C000806F1200BF0E0001876FFF0E886F85C0DE
:1044D00089F086C08AF08751892788518A238A51BA
:1044E0000AE11A0E895DD8A078EFA2F07BEFA2F066
:1044F000010E7CEFA2F0000E8B6F8C6B8B518C1138
:10450000D8B485EFA2F087EFA2F08EEFA2F0200ED4
:104510008511856F8651866F92EFA2F085C085F078
:1045200086C086F01200416E3D0177AF9AEFA2F08F
:104530009CEFA2F094EFA2F000017051FE0B3D0140
:104540006E6F600007F16CFD738B000E426EB9EF69
:10455000A2F0000E4224D96EDA6A030EDA22DF508E
:104560006B6F78ABB6EFA2F0B8EFA2F0B1EFA2F0AC
:10457000422A4150425CD8A0C0EFA2F0C2EFA2F0A4
:10458000A9EFA2F0425012009F0E0001876FFF0EAC
:10459000886F85C089F086C08AF087518927885145
:1045A0008A238A510AE11A0E895DD8A0DAEFA2F0B7
:1045B000DDEFA2F0010EDEEFA2F0000E8B6F8C6B30
:1045C0008B518C11D8B4E7EFA2F0E9EFA2F0EFEF36
:1045D000A2F05F0E8515856F866BF3EFA2F085C0A4
:1045E00085F086C086F01200020195512318F00B69
:1045F0002318956F1EC08DF000018D3B020195516F
:1046000000018D190F0B8D190201956F9951191821
:10461000F00B1918996F930E0001896F020E8A6FC3
:1046200095C28BF0000E8C6FBBECA0F0930E0001D6
:10463000896F020E8A6F99C28BF0010E8C6FBBECF2
:10464000A0F012006F0060FF78F03901A39900011B
:10465000DF51E019D8A42FEFA3F031EFA3F03EEF24
:10466000A3F02950D8A437EFA3F039EFA3F03EEF21
:10467000A3F039019399A39949EFA3F0000EE02527
:10468000D96EDA6A040EDA22DF503D01EA6F0001CA
:10469000E02B000E296E6000E3F1D8FF1100010E3F
:1046A0000001856F200E7F198011D8B45AEFA3F056
:1046B0005CEFA3F075EFA3F0F70E816FFF0E826F32
:1046C0007FC083F080C084F081518327825184238E
:1046D000845109E1050E835DD8A071EFA3F073EF5B
:1046E000A3F075EFA3F0000E856F85C07FF0806B9F
:1046F0001200020195512318F00B2318956F1EC06C
:1047000047F0473A955147180F0B4718956F995145
:104710001918F00B1918996F930E0001746F020E9F
:10472000756F95C276F0000E776F5DECA1F0930E79
:104730000001746F020E756F99C276F0010E776FEB
:104740005DECA1F012001F0E0101276F010E286F12
:104750001BC129F11CC12AF1000E2C6F000E2B6F1A
:10476000000E2E6F000E2D6F290E156F010E166FA5
:104770001DC117F11EC118F1270E196F010E1A6F16
:1047800093ECA1F001012B511B25D96E2C511C215A
:10479000DA6E000EDF6E1200000E00018E6F000E4A
:1047A0008D6FDFEFA3F08CC07FF0806B8AC081F04B
:1047B0008BC082F0D9EC98F000018D4B8E2B8D517F
:1047C0008825D96E8E518921DA6EDF508C6F8C511D
:1047D000D8A4EDEFA3F0EFEFA3F0D3EFA3F0120016
:1047E000F00EBC1626C02AF0010E2B6E2A2AFBEF13
:1047F000A3F0D8902B362A2EF9EFA3F02B50BC1241
:10480000050E2624D96EDA6A000EDA22DF50BD6E5C
:10481000262A030E26640FEFA4F011EFA4F013EF85
:10482000A4F0000E266E1200020167BF1CEFA4F078
:104830001AEFA4F020EFA4F0000E166E22EFA4F001
:10484000010E166E88EC9BF0020167BF2CEFA4F0FE
:104850002AEFA4F030EFA4F0664B672B33EFA4F0FF
:104860006607D8A06707000E1200020169BF3DEF7E
:10487000A4F03BEFA4F041EFA4F0000E1B6E43EF59
:10488000A4F0010E1B6EE3EC9BF0020169BF4DEF3B
:10489000A4F04BEFA4F051EFA4F0684B692B54EF58
:1048A000A4F06807D8A06907000E120002016BBFD0
:1048B0005EEFA4F05CEFA4F062EFA4F0000E206EB7
:1048C00064EFA4F0010E206E3EEC9CF002016BBF81
:1048D0006EEFA4F06CEFA4F072EFA4F06A4B6B2BB8
:1048E00075EFA4F06A07D8A06B07000E1200000154
:1048F00092BF85EFA4F0925106E19105D8B083EF05
:10490000A4F085EFA4F093EFA4F091C093F092C0CF
:1049100094F0931F941F934B942B93C091F094C0E9
:1049200092F097EFA4F091C091F092C092F0120033
:104930009F0E0001816FFF0E826F200E7F11836F2B
:10494000000E8011846F815183278251842384510A
:104950000AE11A0E835DD8A0B0EFA4F0B3EFA4F083
:10496000010EB4EFA4F0000E7F6F806B12007FC0C9
:1049700081F080C082F0C0EFA4F000017F4B802B5B
:104980006000FFF1D9FF600003F2DAFFDF50D8A426
:10499000CCEFA4F0CEEFA4F0BDEFA4F00001815164
:1049A0007F5D7F6F82518059806F12009F0E0001E2
:1049B000816FFF0E826F7FC083F080C084F08151D1
:1049C00083278251842384510AE11A0E835DD8A083
:1049D000ECEFA4F0EFEFA4F0010EF0EFA4F0000E66
:1049E0007F6F806B1200BF0E0001816FFF0E826F20
:1049F0007FC083F080C084F081518327825184235B
:104A000084510AE11A0E835DD8A009EFA5F00CEFDE
:104A1000A5F0010E0DEFA5F0000E7F6F806B120068
:104A2000D00E0001816FFF0E826F7FC083F080C0C7
:104A300084F0815183278251842384510AE10A0E34
:104A4000835DD8A026EFA5F029EFA5F0010E2AEF8F
:0A4A5000A5F0000E7F6F806B1200CE
:104A5C003901A49102016A516B11D8A438EFA5F069
:104A6C003AEFA5F046EFA5F0000E236E1F50D8A428
:104A7C0042EFA5F044EFA5F046EFA5F079ECA3F0DA
:064A8C00010E1F6E110077
:104A94003901A69D020168516911D8A454EFA5F00B
:104AA40056EFA5F062EFA5F0000E1E6E1A50D8A4C2
:104AB4005EEFA5F060EFA5F062EFA5F079ECA3F04E
:064AC400010E1A6E110044
:104ACC003901A89D020166516711D8A470EFA5F0B9
:104ADC0072EFA5F07EEFA5F0000E196E1550D8A45C
:104AEC007AEFA5F07CEFA5F07EEFA5F079ECA3F0C2
:104AFC00010E156E1100BC90BC92BC94BC96C49077
:104B0C00C492C494C496BD68000EC56E000E266E89
:104B1C00000E256E8FC086F090C087F0040E000149
:104B2C00886F6EEC89F0000E1200000E196E000EEC
:104B3C00186E000E176E010E166E000E02015A6FE3
:104B4C00000E5B6F000E5C6F000E5D6F010E156E3C
:104B5C00000E676F000E666F000E1200000E1E6EC8
:104B6C00010E226E000E1C6E010E1B6E000E020159
:104B7C005E6F000E5F6F000E606F000E616F010EB6
:104B8C001A6E000E696F000E686F000E1200000E98
:104B9C00236E000E226E000E216E010E206E000E92
:104BAC000201626F000E636F000E646F000E656F82
:104BBC00010E1F6E000E6B6F000E6A6F000E12005E
:104BCC0000017F5181036F00CCFF83F06F00D0FF99
:104BDC0084F07F518203F350842780518103F3507A
:104BEC00842783C07FF084C080F0120002016651DC
:104BFC006711D8B404EFA6F006EFA6F010EFA6F0FC
:104C0C001550D8B40CEFA6F00EEFA6F010EFA6F0EE
:104C1C0014ECA4F01200020168516911D8B419EF18
:104C2C00A6F01BEFA6F025EFA6F01A50D8B421EF92
:104C3C00A6F023EFA6F025EFA6F035ECA4F01200B9
:104C4C0002016A516B11D8B42EEFA6F030EFA6F02A
:104C5C003AEFA6F01F50D8B436EFA6F038EFA6F016
:104C6C003AEFA6F056ECA4F012008DC07FF08EC087
:104C7C0080F0B7ECA4F000017F518D25836F80513B
:104C8C008E21846F8FC085F090C086F0F1ECA0F07F
:104C9C001200600E3901D96F080EDF6FDCBD59EFC1
:104CAC00A6F05BEFA6F062EFA6F0DCA160EFA6F039
:104CBC0062EFA6F054EFA6F01200000E3A01406F1E
:104CCC00000E506F000E606F000E706F000E806F44
:104CDC001200C0F9A4B0999282F880908883C6A182
:034CEC00868EDFD2
:104CF0003D01739F92ECA6F012003D01738F1200EC
:104D00009A9012009A801200A6901200A6801200BB
:104D1000B2901200B2801200A09E1200A08E12006B
:0A4D2000948E1200949E12001200FF
:024D2C00110074
:020000040020DA
:10000000FF0FFF0FFF0FFF0FFF0FFF0FFF0FFF0F80
:020000040030CA
:0A0000008CFFFFFFFFFFFFFFFFFF73
:00000001FF
