:020000040000FA
:0400000080314A28D9
:100008007E1480312E00901D0A280B284828901154
:100018000130FA070030FB3D0030FC3D0030FD3D6B
:1000280086315D2680310030F3000030F200013067
:10003800F100F430F0007D08F7007C08F6007B083A
:10004800F5007A08F4008531382580310030F30056
:100058000030F2000730F100D030F0007D08F700E2
:100068007C08F6007B08F5007A08F400853138250D
:1000780080317308720471047004031D44284528F4
:1000880048282000D201D20A7E10090080314C286D
:10009800D6308400863085005330860000308700D3
:1000A800113087310C278031FA01FB01FC01FD0179
:1000B80041308400003085001230873112278031AA
:1000C8007E1020008431782C2000AC01AE01AF01F5
:1000D800AD01E830A0000330A1002908A3002808DA
:1000E800A2008531BF25803120002108B1002008F9
:1000F800B000300831040319822883288E2830087C
:10010800533E860087010108AB002B08C900AD01EA
:10011800AD0A9D2803302A06031D932894289928A0
:100128005308AB002B08C9008B28FF30AB002B0805
:10013800C9002D080319A128A228AC2803302A06D3
:10014800031DA728A828AC287F30AB002B08C905B9
:10015800E830A0000330A1002908A3002808A20065
:100168008531FC25803120002108A9002008A8003D
:100178006430A0000030A1002908A3002808A200CC
:100188008531BF25803120002108B1002008B0004A
:10019800300831040319D128D228DD283008533E0D
:1001A800860087010108AB002B08C800AF01AF0A21
:1001B800F2282D080319E128E228E7285308AB00A4
:1001C8002B08C800DA2802302A06031DEC28ED287F
:1001D800EE28E228FF30AB002B08C8002F080319CF
:1001E800F628F728012902302A06031DFC28FD28D5
:1001F80001297F30AB002B08C8056430A00000300F
:10020800A1002908A3002808A2008531FC25803117
:1002180020002108A9002008A8000A30A00000300A
:10022800A1002908A3002808A2008531BF25803134
:1002380020002108B1002008B0003008310403195B
:100248002629272932293008533E860087010108CC
:10025800AB002B08C700AE01AE0A46292F080319C8
:10026800362937293C295308AB002B08C7002F290A
:100278002A03031D4029412942293729FF30AB00B1
:100288002B08C7002E0803194A294B2954292A0389
:10029800031D4F29502954297F30AB002B08C7056F
:1002A8000A30A0000030A1002908A3002808A200F5
:1002B8008531FC25803120002108A9002008A800EC
:1002C8002908B1002808B0003008310403196D2945
:1002D8006E2979293008533E860087010108AB0052
:1002E8002B08C600AC01AC0A8D292E0803197D29FC
:1002F8007E2983295308AB002B08C60076292A08D3
:10030800031D8729882989297E29FF30AB002B08FE
:10031800C6002C080319912992299B292A08031D34
:10032800962997299B297F30AB002B08C605080022
:100338002000A501A701A801A6012108A400200802
:10034800A300240E0F39A300A4012308A900240840
:10035800AA0029082A040319B229B329BE292908A1
:10036800533E860087010108A3002308C900A6019F
:10037800A60ACD2903302206031DC329C429C92989
:100388005308A3002308C900BB29FF30A300230892
:10039800C90026080319D129D229DC2903302206ED
:1003A800031DD729D829DC297F30A3002308C905D4
:1003B8002A08A4002908A300230EF039A400A301E9
:1003C80023082002A0002408213BA1002108A40042
:1003D8002008A3002408A300A4012308A9002408D6
:1003E800AA0029082A040319FA29FB29062A290838
:1003F800533E860087010108A3002308C800A8010E
:10040800A80A1B2A260803190A2A0B2A102A5308A5
:10041800A3002308C800032A02302206031D152A58
:10042800162A172A0B2AFF30A3002308C800280819
:1004380003191F2A202A2A2A02302206031D252AE8
:10044800262A2A2A7F30A3002308C8052908A400E1
:10045800A30123082002A0002408213BA100200EAC
:100468000F39A900210EF039A904210E0F39AA006D
:1004780029082A040319412A422A4D2A2908533EE9
:10048800860087010108A3002308C700A701A70A5F
:10049800612A28080319512A522A572A5308A30007
:1004A8002308C7004A2A2203031D5B2A5C2A5D2A07
:1004B800522AFF30A3002308C70027080319652A1A
:1004C800662A6F2A2203031D6A2A6B2A6F2A7F3045
:1004D800A3002308C7052A08A4002908A300A30E1F
:1004E800A40EF030A40523080F39A404F030A305A6
:1004F80023082002A0002408213BA1002108AA000B
:100508002008A90029082A0403198B2A8C2A972A6B
:100518002908533E860087010108A3002308C60066
:10052800A501A50AAB2A270803199B2A9C2AA12AF8
:100538005308A3002308C600942A2208031DA52AED
:10054800A62AA72A9C2AFF30A3002308C60025084C
:100558000319AF2AB02AB92A2208031DB42AB52ADA
:10056800B92A7F30A3002308C60508002000AE0181
:10057800AE0AB001FE30A0002008AF00B201320878
:10058800413E8600870181010130A0002008B207A2
:1005980005303202031CD12AD22AC32A1812131298
:1005A800BC302000A0000130890BD82AA00BD82A23
:1005B8000032200018166A30890BE02A00328B13AB
:1005C80020001316B201B101F32A0130A00020085F
:1005D800B107310A031DF12AF22AF32AFA2A0E0E6C
:1005E80001392E060319F92AFA2AE92A00300E1AC7
:1005F8000130AE00310A031D022B032B042B392BCB
:1006080004303202031C092B0A2B2F2B32180D2B16
:100618000E2B2F2B3008A0000330A036890B112B8E
:100628002008413E860087010310810D0F303102FA
:10063800031C1F2B202B2B2B3008A0000330A036C7
:10064800890B232B2008413E8600870101140130C5
:10065800A0002008B0070130A0002008B2075530DC
:100668003202031C382B392BE72A8B17283030022B
:10067800031C3F2B402B6B2B4408A000A10143080F
:10068800A200A30141084207A400A501A50D220864
:100698002407A6002308253DA70020082607A80050
:1006A8002108273DA900FF302805AA0000302905A8
:1006B800AB004508AC00AD012B082D06031D662BC9
:1006C8002A082C06031D692B6A2B6B2BAF01181601
:1006D80013122F0808002000A51F732B742B762BEC
:1006E800CE01782BCE01CE0A4E0C031C97120318AC
:1006F8009716A801A901E42B161096101611961545
:10070800D22B1610961016159615D22B1610961079
:1007180016159611D22B1610961416159611D22B63
:100728001610961416119611D22B1614961416112B
:100738009611D22B1614961016119611D22B161448
:10074800961016119615D22B161096101611961192
:10075800D22B20004F08A600A701A61BA703270835
:10076800003A0319B82BA82B2608003A0319802B46
:10077800013A0319852B033A03198A2B013A031905
:100788008F2B073A0319942B013A0319992B033A33
:1007980003199E2B013A0319A32BA82B8631312666
:1007A8008331640009302000A6004E30890BDA2B13
:1007B800A60BDA2B000001302000A8070030A93D65
:1007C8002508A1002408A00086319F268331200037
:1007D8002908803AA6002108803A2602031DF62B34
:1007E80020082802031CF92BFA2BAD2B08008731AF
:1007F8001827833101302500960095012000B501A6
:100808000030B9007A30B8001230B7000030B600B6
:100818002E08A0002F08A100A201A3013908A700F3
:100828003808A6003708A5003608A4008431DD245E
:10083800833120002308B9002208B8002108B70036
:100848002008B6004B2C20003608B1003708B2004B
:100858003808B3003908B4000130B436B30CB20C10
:10086800B10C890B312C3408B9003308B8003208B0
:10087800B7003108B6000130B1003108B5070830BB
:100888003502031C482C492C4B2CFE30772C390898
:10089800031D562C3808031D562C01303702031847
:1008A800562C572C272C20003608FF3E2500930095
:1008B80020003508B1000330B135FF3E031D602C20
:1008C8003135B2003208B5003508B10031082500CD
:1008D8009404200030080319722C732C762C2E00F7
:1008E80090119A15003008008631F7268431853139
:1008F80082258431003A0319822C832C842CDB2C2A
:10090800640020004D0803198A2C8B2C942CCD01EF
:100918000030A4001030A50083316F2384319D2C52
:10092800CD01CD0A0030A400F030A50083316F233B
:100938008431200052080319A22CA32C842CD20144
:100948008231BA228431003A031DAB2CAC2C842CA2
:1009580020004408BA00BB014308BC00BD013C08A4
:10096800A0003D08A1000A30A2000030A300863193
:100978007F26843120003A082007BF003B08213D2C
:10098800C0004008A9003F08A800AA01AA0A8031AF
:100998006820843120004B08A1004A08A0000430D8
:1009A800BA003A08A20081319C218431842C80311C
:1009B8004A2800302000AC000030AB000030AA000C
:1009C8000030A90023082204210420040319ED2C77
:1009D800EE2C2F2DAD01AD0AFC2C0130A035A10D58
:1009E800A20DA30D890BF22C0130A8002808AD0731
:1009F800A31FFF2C002DF12C0130A935AA0DAB0D3A
:100A0800AC0D890B012D23082702031D152D220883
:100A18002602031D152D21082502031D152D20086A
:100A28002402031C182D192D222D2008A4022108A8
:100A3800A53B2208A63B2308A73B29140130A3366F
:100A4800A20CA10CA00C890B232D0130AD02031DB3
:100A58002E2D2F2D002D2C08A3002B08A2002A08CC
:100A6800A1002908A000080073087204710470042A
:100A780003193F2D402D792DF901F90A4E2D01302A
:100A8800F035F10DF20DF30D890B442D0130F8000E
:100A98007808F907F31F512D522D432D730877025B
:100AA800031D602D72087602031D602D7108750202
:100AB800031D602D70087402031C632D642D6C2DBA
:100AC8007008F4027108F53B7208F63B7308F73BAF
:100AD8000130F336F20CF10CF00C890B6D2D01305E
:100AE800F902031D782D792D522D7708F300760829
:100AF800F2007508F1007408F00008008731052736
:100B0800853120009217121799109410971292129B
:100B18000030FD000030FC000030FB000030FA001F
:100B2800CC018631E7268531E8302000AE0003305D
:100B3800AF00B001B00A8331FB238531003A031DB1
:100B4800A62DA72DAC2D20004C1487311B278531ED
:100B5800F2302000B2000330B3008631BB26853165
:100B6800003A031DB82DB92DBB2D20004C150B17CD
:100B78008B17003008002000A501A60120082104D9
:100B88000319C72DC82DF72DA701A70AD42D0130A9
:100B9800A035A10D890BCC2D0130A4002408A7078E
:100BA800A11FD72DD82DCB2D0130A535A60D890B2A
:100BB800D92D21082302031DE32D20082202031C3E
:100BC800E62DE72DEC2D2008A2022108A33B2514D1
:100BD8000130A136A00C890BED2D0130A702031DB1
:100BE800F62DF72DD82D2608A1002508A00008000D
:100BF8002000200821040319022E032E2C2EA50103
:100C0800A50A0F2E0130A035A10D890B072E013042
:100C1800A4002408A507A11F122E132E062E2108B2
:100C28002302031D192E20082202031C1C2E1D2E30
:100C3800212E2008A2022108A33B0130A136A00CD6
:100C4800890B222E0130A502031D2B2E2C2E132ECC
:100C58002308A1002208A000080020004E03031D5D
:100C6800362E372E3F2E0130A0002008CF07013046
:100C7800CA070030CB3D4E08031D432E442E4C2E90
:100C8800FF30A0002008CF07FF30CA07FF30CB3D58
:100C98004F08803A783E031C522E532E542ECF0113
:100CA800CF1F572E582E5C2E0730A0002008CF00EB
:100CB8000800F030F0007008200098050130F000BE
:100CC800510A672EF035890B662E7008F1007108FD
:100CD80098045108463E86008701010899000130B2
:100CE800F0007008D10704305102031C7C2E7D2EC1
:100CF8007E2ED10108002000A401A501201C852E0C
:100D0800862E8A2E2208A4072308A53D0130A23585
:100D1800A30D890B8B2E0130A136A00C890B902EC8
:100D280020082104031D992E9A2E822E2508A10041
:100D38002408A000080020002108803AA200803082
:100D48002202031DA92E013020020318AC2EAD2E5D
:100D5800BA2E20002009A2002109A300A20A031923
:100D6800A30A2208A0002308A100BA2E0800200028
:100D7800181098101811981113109310131193113B
:100D8800FF3099009401D101D0013308A90032083D
:100D9800A8000430B4003408AA00803168208631E5
:100DA80000300800C034F934A434B0349934923493
:100DB8008234F8348034903488348334C634A1348F
:100DC80086348E34DF3420001610111096109110DE
:100DD8001611111196119111CF01CE01CE0ACA0137
:100DE800CB01CD010800603031008D000630930042
:100DF800101BFF2E002F042F101C032F042FFC2E76
:100E080008003E00B801C301CE01D901E401080081
:100E1800FE0012001E00FE0B0D2F0034640080013E
:100E28000131890B132F0034250094130800250085
:040E38009417080003
:020000040001F9
:0A000E009C3FFF3FFF3FFF3FFF3F15
:00000001FF
