:020000040000FA
:0400000080317028B3
:100008007E1480312E00101C0A280B281928101085
:100018002000C401C40A34083504031D1428152817
:10002800192816109610161196112E00101D1D284D
:100038001E282C2810112000C101C10A32083304DF
:10004800031D272828282C281612961216139613F3
:100058002E00101E302831283F2810122000BE0123
:10006800BE0A30083104031D3A283B283F281710E0
:100078009710171197112E00901D432844286E28B9
:1000880090110130FA070030FB3D0030FC3D003094
:10009800FD3D8F311D2780310030F3000030F20024
:1000A8000730F100D030F0007D08F7007C08F6003A
:1000B8007B08F5007A08F4008631F8268031730849
:1000C800720471047004031D6A286B286E282000CE
:1000D800BC01BC0A7E1009008031722855308400AA
:1000E8008E308500A03086000030870011308E31B8
:1000F8003A268031FA01FB01FC01FD012030840021
:100108000030850029308E31342680317E10200061
:100118008231F72A2000D501D701D801D601E8306D
:10012800C9000330CA005208CC005108CB008F31F7
:100138003F27803120004A08DA004908D9005908C9
:100148005A040319A828A928B4285908A03E8600EB
:1001580087010108D4005408AF00D601D60AC52883
:1001680003305306031DB928BA28C12821002008E6
:100178002000D4005408AF00B128FF30D400540840
:10018800AF0056080319C928CA28D42803305306D3
:10019800031DCF28D028D4287F30D4005408AF05B9
:1001A800E830C9000330CA005208CC005108CB001F
:1001B8008731C627803120004A08D2004908D1007B
:1001C8006430C9000030CA005208CC005108CB0086
:1001D8008F313F27803120004A08DA004908D900CA
:1001E80059085A040319F928FA2805295908A03E7C
:1001F800860087010108D4005408AE00D801D80A47
:100208001C295608031909290A291129210020083F
:100218002000D4005408AE00022902305306031D02
:100228001629172918290A29FF30D4005408AE00C6
:1002380058080319202921292B2902305306031DA8
:10024800262927292B297F30D4005408AE0564308D
:10025800C9000030CA005208CC005108CB008731D1
:10026800C627803120004A08D2004908D1000A3048
:10027800C9000030CA005208CC005108CB008F31A9
:100288003F27803120004A08DA004908D900590878
:100298005A040319502951295C295908A03E86009F
:1002A80087010108D4005408AD00D701D70A722984
:1002B80058080319602961296829210020082000AD
:1002C800D4005408AD0059295303031D6C296D2926
:1002D8006E296129FF30D4005408AD00570803196E
:1002E8007629772980295303031D7B297C298029B6
:1002F8007F30D4005408AD050A30C9000030CA0068
:100308005208CC005108CB008731C6278031200025
:100318004A08D2004908D1005208DA005108D90029
:1003280059085A04031999299A29A5295908A03E58
:10033800860087010108D4005408AC00D501D50A0D
:10034800C22957080319A929AA29B1292100200877
:100358002000D4005408AC00A2295308031DB52975
:10036800B629B729AA2951085204031DBC29BD2959
:10037800BE29AA29FF30D4005408AC005508031937
:10038800C629C729D0295308031DCB29CC29D02930
:100398007F30D4005408AC0508002000CE01D001FD
:1003A800D101CF014A08CD004908CC004D0E0F39C4
:1003B800CC00CD014C08D2004D08D300520853049C
:1003C8000319E729E829F3295208A03E8600870186
:1003D8000108CC004C08AF00CF01CF0A042A033033
:1003E8004B06031DF829F929002A210020082000BE
:1003F800CC004C08AF00F029FF30CC004C08AF000F
:100408004F080319082A092A132A03304B06031D2B
:100418000E2A0F2A132A7F30CC004C08AF05530848
:10042800CD005208CC004C0EF039CD00CC014C0860
:100438004902C9004D084A3BCA004A08CD0049088C
:10044800CC004D08CC00CD014C08D2004D08D3009B
:10045800520853040319312A322A3D2A5208A03E71
:10046800860087010108CC004C08AE00D101D10AF2
:10047800542A4F080319412A422A492A21002008F0
:100488002000CC004C08AE003A2A02304B06031D6F
:100498004E2A4F2A502A422AFF30CC004C08AE0080
:1004A80051080319582A592A632A02304B06031D9A
:1004B8005E2A5F2A632A7F30CC004C08AE055208BA
:1004C800CD00CC014C084902C9004D084A3BCA007E
:1004D800490E0F39D2004A0EF039D2044A0E0F39AC
:1004E800D3005208530403197A2A7B2A862A520811
:1004F800A03E860087010108CC004C08AD00D00161
:10050800D00A9C2A510803198A2A8B2A922A210088
:1005180020082000CC004C08AD00832A4B03031DA3
:10052800962A972A982A8B2AFF30CC004C08AD00CF
:1005380050080319A02AA12AAA2A4B03031DA52A99
:10054800A62AAA2A7F30CC004C08AD055308CD0056
:100558005208CC00CC0ECD0EF030CD054C080F392A
:10056800CD04F030CC054C084902C9004D084A3B7F
:10057800CA004A08D3004908D20052085304031994
:10058800C62AC72AD22A5208A03E86008701010837
:10059800CC004C08AC00CE01CE0AE82A500803195A
:1005A800D62AD72ADE2A210020082000CC004C08B1
:1005B800AC00CF2A4B08031DE22AE32AE42AD72AF3
:1005C800FF30CC004C08AC004E080319EC2AED2A89
:1005D800F62A4B08031DF12AF22AF62A7F30CC00AE
:1005E8004C08AC0508008E31472682318F317C27B4
:1005F8008231003A0319012B022B032B8D2B20008B
:10060800E701E70A640020003408350403190D2BBC
:100618000E2B162B44080319122B132B162B8E3175
:10062800CC26823120003208330403191C2B1D2BE1
:10063800252B41080319212B222B252B8E31E72648
:10064800823120003008310403192B2B2C2B342B3A
:100658003E080319302B312B342B8F31022782317E
:1006680020003C080319392B3A2B062BBC01AB1B85
:10067800482B2B08031D492B2A08031D492B203022
:100688002902031C482B492B4C2B2000E701612B26
:100698002000AB1B5E2B2B08031D5D2B2A08031DB6
:1006A8005D2B2908031D5D2B0130280203185D2BE3
:1006B8005E2B612B2000E701E70A20002908CA0009
:1006C8002808C9000430E6006608CB008131D12132
:1006D8008231200067080319722B732B802B00309E
:1006E800B4070430B53D0030B2070430B33D0030E4
:1006F800B0070430B13D062B0030B407FC30B53DDF
:100708000030B207FC30B33D0030B007FC30B13DDB
:10071800062B803170282000B601B7018731FB27EE
:100728008331023024009A009B0101309D00200093
:10073800DE010030E2007A30E1001230E0000030E3
:10074800DF005708C9005808CA00CB01CC0162086D
:10075800D0006108CF006008CE005F08CD00853169
:100768009825833120004C08E2004B08E1004A0834
:10077800E0004908DF00E32B20005F08DA0060088A
:10078800DB006108DC006208DD000130DD36DC0CCE
:10079800DB0CDA0C890BCA2B5D08E2005C08E1006F
:1007A8005B08E0005A08DF000130DA005A08DE076B
:1007B80004305E02031CE12BE22BE32B122C6208AF
:1007C800031DEB2B013061020318EB2BEC2BC02B24
:1007D80020005F09B6006009B700370824009900B7
:1007E800200036082400980020005E08DA00033054
:1007F800DA35FF3E031DFC2B5A35DB005B08DE00B3
:100808005E08DA005A0824009A04200059080319DF
:100818000E2C0F2C122C2E0010121A160800200075
:10082800B801B9018E312E2684310230240094009B
:100838009501013097002000DE010030E2007A3097
:10084800E1001230E0000030DF005708C900580806
:10085800CA00CB01CC016208D0006108CF00600853
:10086800CE005F08CD0085319825843120004C08E2
:10087800E2004B08E1004A08E0004908DF00672C65
:1008880020005F08DA006008DB006108DC0062080D
:10089800DD000130DD36DC0CDB0CDA0C890B4E2C6C
:1008A8005D08E2005C08E1005B08E0005A08DF0030
:1008B8000130DA005A08DE0704305E02031C652C9A
:1008C800662C672C962C6208031D6F2C0130610280
:1008D80003186F2C702C442C20005F09B8006009A5
:1008E800B900390824009300200038082400920039
:1008F80020005E08DA000330DA35FF3E031D802C45
:100908005A35DB005B08DE005E08DA005A0824006E
:100918009404200059080319922C932C962C2E002D
:1009280010111A1508002000BA01BB018E312826C3
:100938008431023024008E008F01013091002000A4
:10094800DE010030E2007A30E1001230E0000030D1
:10095800DF005708C9005808CA00CB01CC0162085B
:10096800D0006108CF006008CE005F08CD00853157
:100978009825843120004C08E2004B08E1004A0821
:10098800E0004908DF00EB2C20005F08DA0060086F
:10099800DB006108DC006208DD000130DD36DC0CBC
:1009A800DB0CDA0C890BD22C5D08E2005C08E10054
:1009B8005B08E0005A08DF000130DA005A08DE0759
:1009C80004305E02031CE92CEA2CEB2C1A2D620879
:1009D800031DF32C013061020318F32CF42CC82CEE
:1009E80020005F09BA006009BB003B0824008D00A5
:1009F80020003A0824008C0020005E08DA0003304A
:100A0800DA35FF3E031D042D5A35DB005B08DE0096
:100A18005E08DA005A0824008E04200059080319D9
:100A2800162D172D1A2D2E0010101A1408008E31AD
:100A38002226853101302500960095012000DE012F
:100A48000030E2007A30E1001230E0000030DF00D0
:100A58005708C9005808CA00CB01CC016208D00069
:100A68006108CF006008CE005F08CD008531982569
:100A7800853120004C08E2004B08E1004A08E000FC
:100A88004908DF006B2D20005F08DA006008DB00F2
:100A98006108DC006208DD000130DD36DC0CDB0CAF
:100AA800DA0C890B512D5D08E2005C08E1005B0857
:100AB800E0005A08DF000130DA005A08DE07083083
:100AC8005E02031C682D692D6B2DFE30972D620880
:100AD800031D762D6108031D762D01306002031871
:100AE800762D772D472D20005F08FF3E25009300C7
:100AF80020005E08DA000330DA35FF3E031D802D42
:100B08005A35DB005B08DE005E08DA005A0825006B
:100B18009404200059080319922D932D962D2E0028
:100B280090119A150030080000302000D5000030E0
:100B3800D4000030D3000030D2004C084B044A04E3
:100B480049040319A82DA92DEA2DD601D60AB72DD7
:100B58000130C935CA0DCB0DCC0D890BAD2D013037
:100B6800D1005108D607CC1FBA2DBB2DAC2D0130B2
:100B7800D235D30DD40DD50D890BBC2D4C085002A0
:100B8800031DD02D4B084F02031DD02D4A084E02DD
:100B9800031DD02D49084D02031CD32DD42DDD2D66
:100BA8004908CD024A08CE3B4B08CF3B4C08D03B06
:100BB80052140130CC36CB0CCA0CC90C890BDE2D73
:100BC8000130D602031DE92DEA2DBB2D5508CC00B6
:100BD8005408CB005308CA005208C9000800212E47
:100BE8001710971017119715462E171097101715ED
:100BF8009715462E1710971017159711462E171090
:100C0800971417159711462E171097141711971147
:100C1800462E1714971417119711462E171497106C
:100C280017119711462E1714971017119715462E5E
:100C38001710971017119711462E20004008E4004E
:100C4800E501E41BE5036508003A03192C2E1C2E68
:100C58006408003A0319F42D013A0319F92D033AEF
:100C68000319FE2D013A0319032E073A0319082E1A
:100C7800013A03190D2E033A0319122E013A0319EA
:100C8800172E1C2E8731422785310800782E161220
:100C98009612161396179D2E161296121617961759
:100CA8009D2E16129612161796139D2E161296162C
:100CB800161796139D2E16129616161396139D2E1A
:100CC80016169616161396139D2E161696121613AA
:100CD80096139D2E16169612161396179D2E1612FB
:100CE8009612161396139D2E20004308E400E50182
:100CF800E41BE5036508003A0319832E732E640884
:100D0800003A03194B2E013A0319502E033A0319DE
:100D1800552E013A03195A2E073A03195F2E013A44
:100D28000319642E033A0319692E013A03196E2E2A
:100D3800732E8731842786310800CF2E161096101F
:100D480016119615F42E1610961016159615F42EE3
:100D58001610961016159611F42E161096141615D0
:100D68009611F42E1610961416119611F42E1614C8
:100D7800961416119611F42E161496101611961133
:100D8800F42E1614961016119615F42E16109610A9
:100D980016119611F42E20004608E400E501E41B24
:100DA800E5036508003A0319DA2ECA2E6408003AEA
:100DB8000319A22E013A0319A72E033A0319AC2EE0
:100DC800013A0319B12E073A0319B62E013A03194D
:100DD800BB2E033A0319C02E013A0319C52ECA2E99
:100DE8008F31BE27863108007308720471047004BD
:100DF8000319FF2E002F392FF901F90A0E2F0130A0
:100E0800F035F10DF20DF30D890B042F0130F800C8
:100E18007808F907F31F112F122F032F7308770291
:100E2800031D202F72087602031D202F71087502FA
:100E3800031D202F70087402031C232F242F2C2F2E
:100E48007008F4027108F53B7208F63B7308F73B2B
:100E58000130F336F20CF10CF00C890B2D2F013018
:100E6800F902031D382F392F122F7708F30076085F
:100E7800F2007508F1007408F000080020003F0334
:100E8800031D472F482F542F0130E3006308C00784
:100E98000130A0070030A13D0030A23D0030A33D45
:100EA8003F08031D582F592F652FFF30E3006308B3
:100EB800C007FF30A007FF30A13DFF30A23DFF3043
:100EC800A33D4008803A783E031C6B2F6C2F6D2F92
:100ED800C001C01F702F712F752F0730E300630802
:100EE800C000E230D7000430D800D901D90A8331D4
:100EF8008F2387318E31312687312000BE010800CB
:100F080020004203031D892F8A2F962F0130E3000A
:100F18006308C3070130A4070030A53D0030A63D93
:100F28000030A73D4208031D9A2F9B2FA72FFF30A3
:100F3800E3006308C307FF30A407FF30A53DFF3077
:100F4800A63DFF30A73D4308803A783E031CAD2FED
:100F5800AE2FAF2FC301C31FB22FB32FB72F073048
:100F6800E3006308C300E230D7000430D800D90199
:100F7800D90A8431132487318E312B2687312000FA
:100F8800C1010800200049084A040319CC2FCD2FBD
:100F9800F62FCE01CE0AD92F0130C935CA0D890BDB
:100FA800D12F0130CD004D08CE07CA1FDC2FDD2F11
:100FB800D02F4A084C02031DE32F49084B02031C9B
:100FC800E62FE72FEB2F4908CB024A08CC3B01302C
:100FD800CA36C90C890BEC2F0130CE02031DF52F40
:100FE800F62FDD2F4C08CA004B08C9000800240062
:040FF8001A100800C3
:101C3E0025009417080025009413080024000E14A4
:101C4E00080024000E1008002400141408002400BC
:101C5E001410080024001A140800640080010131D9
:101C6E00890B352E0034FE0012001E00FE0B3B2E9B
:101C7E0000343E00B801C301CE01D901E4010800D1
:101C8E00603031008D0006309300101B4F2E502E09
:101C9E00542E101C532E542E4C2E0800C034F934E2
:101CAE00A434B034993492348234F834803490347D
:101CBE0088348334C634A13486348E34DF34200025
:101CCE0016101110961091101611111196119111E6
:101CDE00C601C501C50A0030AB000030AA000030B5
:101CEE00A9000030A800C401C40AB401B50108005F
:101CFE00200016121112961291121613111396132A
:101D0E009113C301C201C20A0030A7000030A60021
:101D1E000030A5000030A400C101C10AB201B30118
:101D2E0008002000171012109710921017111211A0
:101D3E0097119211C001BF01BF0A0030A3000030FD
:101D4E00A2000030A1000030A000BE01BE0AB0010A
:101D5E00B1010800200018109810181198111310D6
:101D6E00931013119311FF3099009401C801C7010C
:101D7E005C08D2005B08D1000430DD005D08D300A2
:101D8E0080318E208E31003008002000B51FD02EFD
:101D9E00D12ED32EC501D52EC501C50A8631A12659
:101DAE008E312000B51FDC2EDD2EE22E0130B40761
:101DBE000030B53DE62EFF30B407FF30B53D0800CC
:101DCE002000B31FEB2EEC2EEE2EC201F02EC20120
:101DDE00C20A86314A268E312000B31FF72EF82E06
:101DEE00FD2E0130B2070030B33D012FFF30B20798
:101DFE00FF30B33D08002000B11F062F072F092F1B
:101E0E00BF010B2FBF01BF0A8531F3258F31200093
:101E1E00B11F122F132F182F0130B0070030B13D14
:101E2E001C2FFF30B007FF30B13D0800F030F0003E
:101E3E007008200098050130F000480A272FF03571
:101E4E00890B262F7008F1007108980448082C3E63
:101E5E0086008701010899000130F0007008C8075C
:101E6E0004304802031C3C2F3D2F3E2FC8010800B2
:101E7E002000CE01CF0149084A040319472F482FED
:101E8E00772FD001D00A542F0130C935CA0D890BD6
:101E9E004C2F0130CD004D08D007CA1F572F582F99
:101EAE004B2F0130CE35CF0D890B592F4A084C02DE
:101EBE00031D632F49084B02031C662F672F6C2FDF
:101ECE004908CB024A08CC3B4E140130CA36C90C25
:101EDE00890B6D2F0130D002031D762F772F582FCF
:101EEE004F08CA004E08C90008008E3140268F31B7
:101EFE00200092171217971292120030FD00003038
:101F0E00FC000030FB000030FA00BD01BC018E3138
:101F1E0066268F318E317F268F318E3198268F3106
:101F2E00E8302000D7000330D800D901D90A853116
:101F3E001B258F31003A031DA52FA62FAB2F200096
:101F4E003D148E311F268F31F2302000DB0003301E
:101F5E00DC008E31B1268F31003A031DB72FB82F1A
:101F6E00BA2F20003D150B178B17003008002000EC
:101F7E004503031DC32FC42FD02F0130E300630888
:101F8E00C6070130A8070030A93D0030AA3D003039
:101F9E00AB3D4508031DD42FD52FE12FFF30E300B5
:101FAE006308C607FF30A807FF30A93DFF30AA3DE2
:101FBE00FF30AB3D4608803A783E031CE72FE82FF2
:101FCE00E92FC601C61FEC2FED2FF12F0730E300CE
:101FDE006308C600E230D7000430D800D901D90A10
:101FEE00843197248F318E3125268F312000C40104
:021FFE000800D9
:020000040001F9
:0A000E009C3FFF3FFF3FFF3FFF3F15
:00000001FF
