:020000040000FA
:0400000057EF00F0C6
:10000800E213E213E213E213E213E213E213E21340
:10001800E213E213E213E213E213E213E213E21330
:10002800E213E213E213E213E213E213E213E21320
:10003800E213E213E2134E0DCD12E213E213E213C0
:10004800AE13E213E213E2132B00E213E213E213FE
:10005800E213E213E213E213E213E213E213E213F0
:10006800E213E213E213E213E213E213B813E2130A
:100078008911E2132B00E213E213E2132B002B0089
:100088002B002B002B002B002B002B00C213E2139C
:10009800E213E213E213E2132B002B002B002B00D8
:0A00A800E213E213FF00EDEF23F076
:102000000053797374656D20496E697420436F6D58
:10201000706C6574652C2053797374656D205374EE
:10202000617475733A203078253032582C2042651F
:1020300067696E6E696E67204C6F6F7000494F451F
:102040007870205030496E3A203078253032582C44
:10205000205031496E3A203078253032580053797B
:102060007374656D2054696D653A20256C75006C3C
:0920700058006C78000A0D000014
:10207A006000FBF1D9FF6000FFF1DAFF6F007BFF20
:10208A00F6FF6F0077FFF7FF000EF86E0800F550B5
:10209A00250AD8A453EF10F055EF10F08DEF13F086
:1020AA006000FBF1D9FF6000FFF1DAFFDE2A000EC3
:1020BA00DD22000E436E000E426E42C046F043C05F
:1020CA0047F044684568000E0001896F000E886F6A
:1020DA00BDEF10F046806000FBF1D9FF6000FFF110
:1020EA00DAFFDE2A000EDD22BDEF10F0468270EF25
:1020FA0010F0468470EF10F0468670EF10F04688B4
:10210A0070EF10F0000E896F010E886FBDEF10F0AE
:10211A006000FBF1D9FF6000FFF1DAFF6F007BFF7F
:10212A00F6FF6F0077FFF7FF000EF86E0800F55014
:10213A00826F836B8351000AD8B4A6EF10F087EF41
:10214A0010F08251200AD8B481EF10F0030AD8B4F3
:10215A0084EF10F0080AD8B47EEF10F0060AD8B45B
:10216A006FEF10F01D0AD8B47BEF10F087EF10F074
:10217A0088518911D8B4C4EF10F0C6EF10F08DEF72
:10218A0010F046A0CBEF10F0CDEF10F0CEEF10F02C
:10219A0046926000FBF1D9FF6000FFF1DAFF6F00A1
:1021AA007BFFF6FF6F0077FFF7FF000EF86E08005F
:1021BA00F5502A0AD8A4E4EF10F0E6EF10F019EF70
:1021CA0011F06000FBF1D9FF6000FFF1DAFFDE2AAF
:1021DA00000EDD22600003F2D9FF600007F2DAFF89
:1021EA006F007CFF82F0020EDE266F007CFF83F018
:1021FA00000EDD2260000BF2D9FF60000FF2DAFF59
:10220A006F0078FF42F06F0074FF43F043BE12EF95
:10221A0011F010EF11F069EF11F04680426C431E85
:10222A00D8B0432A69EF11F06000FBF1D9FF6000D2
:10223A00FFF1DAFF6F0078FF18F06F0074FF19F0F2
:10224A00BFEC19F018C042F019C043F036EF11F094
:10225A006000FBF1D9FF6000FFF1DAFFDE2A000E11
:10226A00DD22D00E0001826FFF0E836F6000FBF14A
:10227A00D9FF6000FFF1DAFF6F007BFFF6FF6F0006
:10228A0077FFF7FF000EF86E0800F550846F856B34
:10229A00825184278351852385510AE10A0E845D80
:1022AA00D8A05AEF11F05DEF11F0010E5EEF11F0B8
:1022BA00000E8A6F8B6B8A518B11D8A467EF11F0CD
:1022CA0069EF11F02DEF11F06000FBF1D9FF60000A
:1022DA00FFF1DAFF6F007BFFF6FF6F0077FFF7FF72
:1022EA00000EF86E0800F550750AD8A47FEF11F0B9
:1022FA0081EF11F0CCEF11F06000FBF1D9FF600023
:10230A00FFF1DAFFDE2A000EDD22600003F2D9FFB8
:10231A00600007F2DAFF6F007CFF82F0020EDE2611
:10232A006F007CFF83F0000EDD2260000BF2D9FF04
:10233A0060000FF2DAFF6F0078FF84F06F0074FF1D
:10234A0085F084C08DF085C08EF08F6B906B916B99
:10235A00926B936B946B7CC02CF07DC02DF08DC07A
:10236A002EF08EC02FF08FC030F090C031F091C0A7
:10237A0032F092C033F093C034F094C035F0BBEC25
:10238A0017F02CC07CF02DC07DF0B0EF13F0600088
:10239A00FBF1D9FF6000FFF1DAFF6F0078FF11F05F
:1023AA006F0074FF12F06C0E136E200E146E000E86
:1023BA00166E020E156E9BEC1CF011501210D8A46A
:1023CA00E9EF11F0EBEF11F026EF12F0020E6000C8
:1023DA00FBF1D9FF6000FFF1DAFFDE26000EDD22F5
:1023EA00600003F2D9FF600007F2DAFF6F007CFF9A
:1023FA0082F0040EDE266F007CFF83F0000EDD22E1
:10240A0060000BF2D9FF60000FF2DAFF6F0078FF6D
:10241A0084F06F0078FF85F06F0078FF86F06F0018
:10242A0078FF87F0000184518D6F85518E6F865138
:10243A008F6F8751906F916B926B936B946BB0EF28
:10244A0011F06000FBF1D9FF6000FFF1DAFF6F00C5
:10245A007BFFF6FF6F0077FFF7FF000EF86E0800AC
:10246A00F550780AD8B43CEF12F03EEF12F056EF6E
:10247A0012F06000FBF1D9FF6000FFF1DAFF6F0094
:10248A007BFFF6FF6F0077FFF7FF000EF86E08007C
:10249A00F550580AD8A454EF12F056EF12F0B6EFDE
:1024AA0012F06000FBF1D9FF6000FFF1DAFF6F0064
:1024BA007BFFF6FF6F0077FFF7FF000EF86E08004C
:1024CA006F00D4FF8CF06000FBF1D9FF6000FFF1D0
:1024DA00DAFFDE2A000EDD22600003F2D9FF600077
:1024EA0007F2DAFF6F007CFF82F0020EDE266F0031
:1024FA007CFF83F0000EDD2260000BF2D9FF600042
:10250A000FF2DAFF6F0078FF84F06F0074FF85F036
:10251A0084C08DF085C08EF000018F6B906B916B3B
:10252A00926B936B946B7CC02CF07DC02DF08DC0A8
:10253A002EF08EC02FF08FC030F090C031F091C0D5
:10254A0032F092C033F093C034F094C035F08CC0AE
:10255A0036F0B1EC13F02CC07CF02DC07DF0B0EF5A
:10256A0013F06000FBF1D9FF6000FFF1DAFF6F00A2
:10257A0078FF11F06F0074FF12F0720E136E200EC6
:10258A00146E000E166E020E156E9BEC1CF01150A6
:10259A001210D8B4D3EF12F0D5EF12F0F4EF12F014
:1025AA006000FBF1D9FF6000FFF1DAFF6F0078FFEE
:1025BA0011F06F0074FF12F06F0E136E200E146E7E
:1025CA00000E166E020E156E9BEC1CF011501210C6
:1025DA00D8A4F2EF12F0F4EF12F04BEF13F0600010
:1025EA00FBF1D9FF6000FFF1DAFF6F0078FF82F09C
:1025FA006F0074FF83F0010E00018227000E83230F
:10260A0060000BF2F6FF60000FF2F7FF000EF86EA3
:10261A0008006F00D4FF8CF0020E6000FBF1D9FFB6
:10262A006000FFF1DAFFDE26000EDD22600003F211
:10263A00D9FF600007F2DAFF6F007CFF82F0040E18
:10264A00DE266F007CFF83F0000EDD2260000BF2B5
:10265A00D9FF60000FF2DAFF6F0078FF84F06F0095
:10266A0078FF85F06F0078FF86F06F0078FF87F0BB
:10267A0084518D6F85518E6F86518F6F8751906F00
:10268A00916B926B936B946B98EF12F06000FBF175
:10269A00D9FF6000FFF1DAFF6F007BFFF6FF6F00E2
:1026AA0077FFF7FF000EF86E0800F550250AD8A448
:1026BA0061EF13F063EF13F07DEF13F06000FBF1AD
:1026CA00D9FF6000FFF1DAFFDE2A000EDD22000EDC
:1026DA00126E250E116E7CC013F07DC014F08FECC3
:1026EA001EF0000E00017D6F010E7C6FB0EF13F03B
:1026FA006000FBF1D9FF6000FFF1DAFFDE2A000E6D
:10270A00DD22000E00017D6F000E7C6FB0EF13F02A
:10271A006000FBF1D9FF6000FFF1DAFF6F007BFF79
:10272A00F6FF6F0077FFF7FF000EF86E0800F5500E
:10273A00116E126A7CC013F07DC014F08FEC1EF08B
:10274A006000FBF1D9FF6000FFF1DAFFDE2A000E1C
:10275A00DD2276EF13F0120045BEB6EF13F0B8EFA4
:10276A0013F0B9EF13F0469245BEC6EF13F0455089
:10277A0006E14404D8B0C4EF13F0C6EF13F0CDEF6E
:10278A0013F0000E00016D6F010E6C6FD1EF13F0A4
:10279A0044C06CF045C06DF042C06EF043C06FF0AB
:1027AA0046A8DAEF13F0DCEF13F0E1EF13F00001C3
:1027BA00FE0E6E27FF0E6F232EC070F02FC071F031
:1027CA0030C072F031C073F032C074F033C075F0AB
:1027DA0034C076F035C077F0000E0001796F1F0E15
:1027EA00786F000E0101C06FB0EF14F07807D8A01F
:1027FA0079070F0E70157A6F7B6B7BBF0EEF14F0A3
:10280A007B5109E10A0E7A5DD8A00EEF14F010EFA1
:10281A0014F018EF14F0570E7A257A6F000E7B2108
:10282A007B6F1EEF14F0300E7A257A6F000E7B2133
:10283A007B6FBF0E606FFF0E616F3650626F636B06
:10284A00605162276151632363510AE11A0E625D86
:10285A00D8A032EF14F035EF14F0010E36EF14F071
:10286A00000E686F696B68516911D8B43FEF14F0B4
:10287A0041EF14F071EF14F09F0E606FFF0E616F5D
:10288A00200E7A11626F000E7B11636F605162270E
:10289A006151632363510AE11A0E625DD8A058EFB1
:1028AA0014F05BEF14F0010E5CEF14F0000E6A6F87
:1028BA006B6B6A516B11D8B465EF14F067EF14F0C3
:1028CA0071EF14F07AC017F07BC018F03BEC25F0DA
:1028DA0017C07AF018C07BF0A10E00017825D96ED6
:1028EA00010E7921DA6E6000EBF1DFFF6C07D8A0E8
:1028FA006D076E07D8A06F0770C060F071C061F0F5
:10290A0072C062F073C063F074C064F075C065F0A1
:10291A0076C066F077C067F0050E9DEF14F0D89088
:10292A0067336633653364336333623361336033E9
:10293A00E82E94EF14F060C070F061C071F062C0CC
:10294A0072F063C073F064C074F065C075F066C05D
:10295A0076F067C077F0000179BFBDEF14F07951C6
:10296A0009E1020E785DD8A0BDEF14F0BFEF14F0B4
:10297A00EFEF14F070517111721173117411751116
:10298A0076117711D8A4CCEF14F0CEEF14F0FBEF48
:10299A0013F06DBFDBEF14F06D5106E16C05D8B092
:1029AA00D9EF14F0DBEF14F0FBEF13F06FBFE6EF93
:1029BA0014F06F5108E16E05D8A0E6EF14F0E8EFC5
:1029CA0014F0EFEF14F046B2EDEF14F0EFEF14F05D
:1029DA00FBEF13F046A8F4EF14F0F6EF14F00DEF46
:1029EA0015F07807D8A07907A10E7825D96E010EBF
:1029FA007921DA6E6000DBF0DFFF7807D8A079076B
:102A0A00A10E7825D96E010E7921DA6E300EDF6EAD
:102A1A002CC021F02DC022F0A10E7825236E010EC4
:102A2A007921246E6EC025F06FC026F09DEC20F04F
:102A3A0021C02CF022C02DF01200000E1B6E000ED9
:102A4A001D6E000E1E6E000E1C6E18C011F019C00D
:102A5A0012F0030E146EE80E136E29EC24F011C066
:102A6A001FF012C020F01F502010D8B43FEF15F00D
:102A7A0041EF15F04DEF15F0CA0E1F24D96E010E65
:102A8A002020DA6EDF50416E010E1C6E5BEF15F0EE
:102A9A00030E1A18D8A454EF15F056EF15F05AEF92
:102AAA0015F0CAC141F049EF15F041681C50D8B47D
:102ABA0061EF15F063EF15F06DEF15F0030E1A18BC
:102ACA00D8A46AEF15F06CEF15F06DEF15F0419E82
:102ADA0018C011F019C012F0030E146EE80E136E2E
:102AEA0009EC25F011C018F012C019F018C011F045
:102AFA0019C012F0000E146E640E136E29EC24F045
:102B0A0011C01FF012C020F01F502010D8B490EF4F
:102B1A0015F092EF15F09EEF15F0CA0E1F24D96E2C
:102B2A00010E2020DA6EDF50406E010E1E6EB6EFE7
:102B3A0015F01C50D8B4A4EF15F0A6EF15F0AAEFC3
:102B4A0015F0CAC140F09AEF15F0020E1A18D8A46F
:102B5A00B1EF15F0B3EF15F0B5EF15F0A6EF15F0DC
:102B6A0040681E50D8B4BCEF15F0BEEF15F0C8EFA0
:102B7A0015F0020E1A18D8A4C5EF15F0C7EF15F014
:102B8A00C8EF15F0409E18C011F019C012F0000EDF
:102B9A00146E640E136E09EC25F011C018F012C001
:102BAA0019F018C011F019C012F0000E146E0A0EB6
:102BBA00136E29EC24F011C01FF012C020F01F5030
:102BCA002010D8B4EBEF15F0EDEF15F0F9EF15F092
:102BDA00CA0E1F24D96E010E2020DA6EDF503F6E16
:102BEA00010E1D6E10EF16F01E50D8B4FFEF15F04F
:102BFA0001EF16F005EF16F0CAC13FF0F5EF15F038
:102C0A001A04D8A40BEF16F00DEF16F00FEF16F01A
:102C1A0001EF16F03F681D50D8B416EF16F018EF02
:102C2A0016F021EF16F01A04D8A41EEF16F020EFC2
:102C3A0016F021EF16F03F9E18C011F019C012F0DD
:102C4A00000E146E0A0E136E09EC25F011C018F06E
:102C5A0012C019F018C01FF019C020F01F50201020
:102C6A00D8B43AEF16F03CEF16F048EF16F0CA0E59
:102C7A001F24D96E010E2020DA6EDF503E6E010E3F
:102C8A001B6E6AEF16F01D50D8B44EEF16F050EFD7
:102C9A0016F054EF16F0CAC13EF044EF16F01A507F
:102CAA00D8A45AEF16F05CEF16F05EEF16F050EF6C
:102CBA0016F018501910D8A465EF16F067EF16F041
:102CCA0069EF16F050EF16F03E681B50D8B470EF5B
:102CDA0016F072EF16F07BEF16F01A50D8A478EFC0
:102CEA0016F07AEF16F07BEF16F03E9E1200000EF9
:102CFA00176E000E196E000E1A6E000E186E12383C
:102D0A000F0B1B6E1C6A1B501C10D8B48FEF16F0E9
:102D1A0091EF16F09DEF16F0CA0E1B24D96E010E24
:102D2A001C20DA6EDF50416E010E186EABEF16F002
:102D3A00030E1318D8A4A4EF16F0A6EF16F0AAEF04
:102D4A0016F0CAC141F099EF16F041681850D8B48C
:102D5A00B1EF16F0B3EF16F0BDEF16F0030E13182D
:102D6A00D8A4BAEF16F0BCEF16F0BDEF16F0419EEC
:102D7A001BC014F01CC015F00C0ED8901436153672
:102D8A00E82EC2EF16F01450115C116E155012584D
:102D9A00126E12501B6E1C6A1B501C10D8B4D8EF4E
:102DAA0016F0DAEF16F0E6EF16F0CA0E1B24D96E0B
:102DBA00010E1C20DA6EDF50406E010E1A6EFEEF15
:102DCA0016F01850D8B4ECEF16F0EEEF16F0F2EF5A
:102DDA0016F0CAC140F0E2EF16F0020E1318D8A49A
:102DEA00F9EF16F0FBEF16F0FDEF16F0EEEF16F026
:102DFA0040681A50D8B404EF17F006EF17F010EF36
:102E0A0017F0020E1318D8A40DEF17F00FEF17F0F2
:102E1A0010EF17F0409E1B50156E146A1450115C87
:102E2A00116E15501258126E11C014F012C015F01E
:102E3A00040E166ED89015321432162E1FEF17F0A4
:102E4A0014C01BF015C01CF01B501C10D8B430EF76
:102E5A0017F032EF17F03EEF17F0CA0E1B24D96EA7
:102E6A00010E1C20DA6EDF503F6E010E196E55EF0F
:102E7A0017F01A50D8B444EF17F046EF17F04AEF9C
:102E8A0017F0CAC13FF03AEF17F01304D8A450EF75
:102E9A0017F052EF17F054EF17F046EF17F03F68AC
:102EAA001950D8B45BEF17F05DEF17F066EF17F023
:102EBA001304D8A463EF17F065EF17F066EF17F065
:102ECA003F9E1BC014F01CC015F0143A153AF00EC0
:102EDA00151614500F0B1512F00E14161450115C1F
:102EEA00116E15501258126E11C01BF012C01CF050
:102EFA001B501C10D8B484EF17F086EF17F092EF2E
:102F0A0017F0CA0E1B24D96E010E1C20DA6EDF5090
:102F1A003E6E010E176EA9EF17F01950D8B498EF4C
:102F2A0017F09AEF17F09EEF17F0CAC13EF08EEF36
:102F3A0017F01350D8A4A4EF17F0A6EF17F0A8EFD4
:102F4A0017F09AEF17F03E681750D8B4AFEF17F0A2
:102F5A00B1EF17F0BAEF17F01350D8A4B7EF17F084
:102F6A00B9EF17F0BAEF17F03E9E120045BEC0EF58
:102F7A0017F0C2EF17F0C3EF17F0469245BED0EF35
:102F8A0017F0455006E14404D8B0CEEF17F0D0EF61
:102F9A0017F0D7EF17F0000E0001616F010E606F96
:102FAA00DBEF17F044C060F045C061F042C062F048
:102FBA0043C063F02EC064F02FC065F030C066F0E5
:102FCA0031C067F032C068F033C069F034C06AF0CB
:102FDA0035C06BF0000E00016D6F1F0E6C6F000E96
:102FEA000101C06F70EF18F06C07D8A06D07A10E31
:102FFA006C25D96E010E6D21DA6E64C011F065C0C0
:10300A0012F066C013F067C014F068C015F069C00A
:10301A0016F06AC017F06BC018F00A0E196E000E8F
:10302A001A6E000E1B6E000E1C6E000E1D6E000E38
:10303A001E6E000E1F6E000E206ED3EC1FF011C024
:10304A0036F012C037F013C038F014C039F015C08A
:10305A003AF016C03BF017C03CF018C03DF03650AD
:10306A00300FDF6E00016007D8A061076207D8A0A1
:10307A00630764C011F065C012F066C013F067C040
:10308A0014F068C015F069C016F06AC017F06BC07A
:10309A0018F00A0E196E000E1A6E000E1B6E000E44
:1030AA001C6E000E1D6E000E1E6E000E1F6E000EB0
:1030BA00206EA0EC1DF011C064F012C065F013C0C0
:1030CA0066F014C067F015C068F016C069F017C042
:1030DA006AF018C06BF000016C516D11D8B478EF2A
:1030EA0018F07AEF18F0AAEF18F06451651166111A
:1030FA006711681169116A116B11D8A487EF18F06A
:10310A0089EF18F0F9EF17F061BF96EF18F06151E7
:10311A0006E16005D8B094EF18F096EF18F0F9EFD1
:10312A0017F063BFA1EF18F0635108E16205D8A058
:10313A00A1EF18F0A3EF18F0AAEF18F046B2A8EF23
:10314A0018F0AAEF18F0F9EF17F02CC021F02DC0F3
:10315A0022F0A10E6C25236E010E6D21246E62C031
:10316A0025F063C026F09DEC20F021C02CF022C08F
:10317A002DF01200170E3A01E56FC48E130E166F6A
:10318A00C48C3D01F39FF299F29BF00EF217000EE8
:10319A00F46F000E2B6E240E2C6EF40E2D6E000EA4
:1031AA002E6E2BC011F02CC012F02DC013F02EC0C1
:1031BA0014F01EC015F01FC016F020C017F021C071
:1031CA0018F0C0EC22F011C02BF012C02CF013C082
:1031DA002DF014C02EF0FF0E2B242B6EFF0E2C2088
:1031EA002C6EFF0E2D202D6EFF0E2E202E6E2E50D1
:1031FA0006E12D04D8B004EF19F006EF19F00AEF32
:10320A0019F03D01F28F46EF19F0010E2B24246EBE
:10321A00000E2C20256E000E2D20266E000E2E206C
:10322A00276E030E1EEF19F0D89027322632253268
:10323A002432E82E19EF19F024C02BF025C02CF007
:10324A0026C02DF027C02EF0FF0E2B242B6EFF0E6A
:10325A002C202C6EFF0E2D202D6EFF0E2E202E6E92
:10326A002E5006E12D04D8B03DEF19F03FEF19F0CA
:10327A0043EF19F03D01F29F46EF19F0FE0EBEEF43
:10328A0019F06000B3F0F6FD6000AFF0F5FDF399B8
:10329A00F29D2250D8B454EF19F056EF19F076EF98
:1032AA0019F0000E4F6E000E4E6E000E4D6E000E9F
:1032BA00296E000E286E000E2824D96E030E2920CE
:1032CA00DA6E000EDF6E284A292A2904D8A070EF88
:1032DA0019F072EF19F060EF19F0010E4C6E78EFE9
:1032EA0019F0000E4C6E2350D8B47EEF19F080EF1F
:1032FA0019F0A9EF19F03D01F289000E2A6E400E6D
:10330A002A24D96EDA6A010EDA22000EDF6E400E26
:10331A002A24D96EDA6A020EDA22000EDF6E2A2A0F
:10332A003F0E2A649BEF19F09DEF19F084EF19F014
:10333A00000E4B6E000E0001C66F010E496E390178
:10334A00A3979387ABEF19F0000E496E2250D8A4C9
:10335A00B1EF19F0B3EF19F0BBEF19F02350D8B45D
:10336A00B9EF19F0BBEF19F0BDEF19F03D01F38F7A
:10337A00000E1200000E266E000E256E000E1F6E45
:10338A00000E1E6ECBEF19F0184A192A010E246E90
:10339A00600063F0F6FF600067F0F7FF000EF86E5A
:1033AA000800F550200AD8B4DDEF19F0DFEF19F064
:1033BA0000EF1AF0F70E1A6EFF0E1B6E600063F034
:1033CA00F6FF600067F0F7FF000EF86E0800F55090
:1033DA001C6E1D6A1A501C261B501D221D5009E125
:1033EA00050E1C5CD8A0FCEF19F0FEEF19F000EFF7
:1033FA001AF0000E246E24C020F0216A20502110F9
:10340A00D8A40AEF1AF00CEF1AF0C9EF19F016EF68
:10341A001AF0000E1F6E010E1E6E184A192A53EF7B
:10342A001AF0600063F0F6FF600067F0F7FF000E25
:10343A00F86E0800F5501A6E1B6A1B50000AD8B4C1
:10344A0029EF1AF053EF1AF01A502B0AD8B412EFD8
:10345A001AF0060AD8B40EEF1AF053EF1AF025C084
:10346A0011F026C012F0000E146E0A0E136E1FEC35
:10347A0027F0600063F0F6FF600067F0F7FF000EC8
:10348A00F86E0800F550115E000E125A300E112423
:10349A00256E000E1220266E12EF1AF0D00E1A6E4A
:1034AA00FF0E1B6E600063F0F6FF600067F0F7FF27
:1034BA00000EF86E0800F5501C6E1D6A1A501C2684
:1034CA001B501D221D500AE10A0E1C5CD8A070EF89
:1034DA001AF073EF1AF0010E74EF1AF0000E226E52
:1034EA00236A22502310D8A47DEF1AF07FEF1AF036
:1034FA0034EF1AF01E501F10D8A486EF1AF088EF86
:10350A001AF096EF1AF025C01AF026C01BF01A1E00
:10351A001B1E1A4A1B2A1AC018F01BC019F09AEF70
:0C352A001AF025C018F026C019F012009D
:103538006F0060FF0BF03901A397000E0C6E000EB0
:103548000D6E3D01F9A7ABEF1AF0ADEF1AF0AFEF32
:103558001AF0010E0C6EF9A3B4EF1AF0B6EF1AF0D8
:10356800BAEF1AF0010E0D6EF299F2890D50D8A437
:10357800C0EF1AF0C2EF1AF05BEF1BF06F00A0F774
:103588000EF00C50D8A4CBEF1AF0CDEF1AF05BEF89
:103598001BF0400E4B60D3EF1AF0D5EF1AF039EF5D
:1035A8001BF00A0E0E18D8B4DCEF1AF0DEEF1AF092
:1035B800FBEF1AF00D0E0E18D8B4E5EF1AF0E7EF8E
:1035C8001AF0FBEF1AF00E50D8B4EDEF1AF0EFEF47
:1035D8001AF0FBEF1AF0400E4B24D96EDA6A010E8E
:1035E800DA2260003BF0DFFF4B2A5BEF1BF04B5009
:1035F800D8B401EF1BF003EF1BF05BEF1BF0000EDC
:103608000F6E1FEF1BF0400E0F24D96EDA6A010E01
:10361800DA22400E0F24E16EE26A020EE2226F0007
:103628007FFFE7FF400E0F24D96EDA6A010EDA2217
:10363800000EDF6E0F2A4B500F5CD8A026EF1BF050
:1036480028EF1BF007EF1BF0400E4B24D96EDA6A07
:10365800020EDA22000EDF6E4BC04AF0010E0001A6
:10366800C66F000E4B6E5BEF1BF0000E106E400E27
:103678001024D96EDA6A010EDA22000EDF6E400ECF
:103688001024D96EDA6A020EDA22000EDF6E102AD2
:103698003F0E106452EF1BF054EF1BF03BEF1BF092
:1036A800000E4B6E000E0001C66F5BEF1BF0600052
:1036B8002FF0D8FF110034EC27F018EC1EF00009A9
:1036C800D8B469EF1BF06BEF1BF06DEF1BF00BEF3D
:1036D8001CF0800E00019D6F020E9E6F010E9F6F01
:1036E800200EA06FC3C0A1F0A26BC4EC25F0800E21
:1036F800236E020E246E9CEC24F004000001C251DB
:10370800D8B489EF1BF08BEF1BF0CBEF1BF0000E4A
:10371800C26F0101C7510001B06FAF6B0101C35106
:103728000001B16FB26BAF51B127B051B223010E96
:10373800B1250201C16F020E0001B2210201C26F60
:10374800C10E1B6E010E1C6EC1C21DF0C2C21EF05E
:1037580005EC27F0C10E1D6E010E1E6EA1EC27F0C0
:10376800800E00019D6F020E9E6F3D0E9F6F200E12
:10377800A06FC2C1A1F0A26BC6C1A3F0A46BC4EC38
:1037880025F0800E236E020E246E9CEC24F00001BE
:10379800C151D8B4D2EF1BF0D4EF1BF0F7EF1BF0F8
:1037A800000EC16FB3C011F0B4C012F0040E136E56
:1037B8007CEC16F0800E00019D6F020E9E6F5E0E6F
:1037C8009F6F200EA06FB3C0A1F0B4C0A2F0B5C027
:1037D800A3F0B6C0A4F0C4EC25F0800E236E020E50
:1037E800246E9CEC24F00001C651D8B4FEEF1BF007
:1037F80000EF1CF081EF1BF0400E236E020E246ECA
:103808009CEC24F0000E0001C66F81EF1BF057EF0F
:1038180000F0390193993D01F29B4E504F18D8A4FE
:1038280018EF1CF01AEF1CF022EF1CF04D50D8A432
:1038380020EF1CF022EF1CF084EF1CF015C011F0F3
:1038480016C012F07AEC26F04E504FC017F0186AE6
:10385800175E000E185A1150175C12501858D8B03D
:1038680038EF1CF03AEF1CF04BEF1CF04F504E189D
:10387800D8A441EF1CF043EF1CF081EF1CF04D5031
:10388800D8A449EF1CF04BEF1CF081EF1CF0000EA0
:10389800196E60EF1CF019501524D96E000E162011
:1038A800DA6E000E4E24E16EE26A030EE2226F0029
:1038B8007FFFE7FF4E2A192A15C011F016C012F033
:1038C8007AEC26F01950176E186A1150175C1250CE
:1038D8001858D8A072EF1CF074EF1CF04FEF1CF0D2
:1038E8004F504E18D8A47BEF1CF07DEF1CF084EFEE
:1038F8001CF0010E4D6E84EF1CF0FE0E9AEF1CF0CA
:103908004F504E18D8A48BEF1CF08DEF1CF095EF9C
:103918001CF04D50D8B493EF1CF095EF1CF099EFC4
:103928001CF0390193893D01F28B000E120011C081
:1039380018F012C019F013C01AF014C01BF01506C5
:10394800D8A01606152806E11628D8A4AEEF1CF054
:10395800B0EF1CF0BDEF1CF0000E126E000E116EE1
:1039680023EF1DF0184A192A1A4A1B2A1506D8A04F
:103978001606600063F0F6FF600067F0F7FF000EC0
:10398800F86E0800F5500009D8B4CDEF1CF0CFEF61
:103998001CF008EF1DF060006BF0F6FF60006FF0A0
:1039A800F7FF000EF86E0800F5500009D8B4DFEFF5
:1039B8001CF0E1EF1CF008EF1DF015501610D8B4FC
:1039C800E8EF1CF0EAEF1CF008EF1DF0600063F070
:1039D800F6FF600067F0F7FF000EF86E08006F0052
:1039E800D4FF17F060006BF0F6FF60006FF0F7FF90
:1039F800000EF86E0800F5501718D8B406EF1DF041
:103A080008EF1DF0B6EF1CF0600063F0F6FF6000F1
:103A180067F0F7FF000EF86E08006F00D4FF17F08C
:103A280060006BF0F6FF60006FF0F7FF000EF86EB5
:103A38000800F550175C116E126AD8A01206120021
:103A4800010E1A6E000E196E1804D8A42EEF1DF080
:103A580030EF1DF034EF1DF0010E196E3FEF1DF031
:103A6800020E1818D8A43BEF1DF03DEF1DF03FEFF4
:103A78001DF0020E1A6E19C000F11AC011F0600094
:103A88005BF0D9FF60005FF0DAFFDF50126E010EC5
:103A98003BEC20F01A18D8B454EF1DF056EF1DF087
:103AA80059EF1DF0FE0E9FEF1DF000C21BF001C282
:103AB8001CF01850D8A463EF1DF065EF1DF070EFEF
:103AC8001DF020EE01F01650D9261750DA226000BA
:103AD8006FF0DFFF9EEF1DF01804D8A476EF1DF0FD
:103AE80078EF1DF083EF1DF020EE05F01650D92673
:103AF8001750DA2260006FF0DFFF9EEF1DF0020E14
:103B08001818D8A48AEF1DF08CEF1DF09EEF1DF059
:103B180020EE01F01650D9261750DA2260006FF017
:103B2800DFFF20EE05F01650D9261750DA22600084
:103B380073F0DFFF000E120020EE21F0070EDE6AA0
:103B4800E806FDE219501A101B101C101D101E105B
:103B58001F102010D8B4B3EF1DF0B5EF1DF007EF1C
:103B68001EF0010E296EC3EF1DF0D89019361A36D3
:103B78001B361C361D361E361F362036292A20AE27
:103B8800C8EF1DF0CAEF1DF0B9EF1DF0D89021362F
:103B98002236233624362536263627362836195037
:103BA800115C1A5012581B5013581C5014581D50B1
:103BB80015581E5016581F50175820501858D8A07E
:103BC800E8EF1DF0EAEF1DF0FBEF1DF01950115E54
:103BD8001A50125A1B50135A1C50145A1D50155A79
:103BE8001E50165A1F50175A2050185A2180D89024
:103BF80020321F321E321D321C321B321A32193249
:103C0800292ECAEF1DF021C011F022C012F023C0E6
:103C180013F024C014F025C015F026C016F027C0F4
:103C280017F028C018F0120095EC27F0C38EC38C4B
:103C3800000E0001B36F000EB46F000EB56F000EDA
:103C4800B66F000EC36F000EC26F000EC16FE80E94
:103C58001E6E030E1F6E000E206E000E216E010EEA
:103C6800226EFBEC1EF00009D8A43DEF1EF03FEFDA
:103C78001EF045EF1EF00001C38139018781BDECBC
:103C880027F0030E226EF20E216EEBEC26F00009EF
:103C9800D8A451EF1EF053EF1EF055EF1EF00001AF
:103CA800C383000E1E6EC20E1F6E010E206E000E24
:103CB800216E010E226E010E236EBFEC18F0000972
:103CC800D8A469EF1EF06BEF1EF06DEF1EF0000137
:103CD800C385C10E2D6E010E2E6EE80E2F6E000EDE
:103CE800316E000E306E000E336E000E326E000E16
:103CF800356E000E346EFEEC20F00009D8A487EF74
:103D08001EF089EF1EF08BEF1EF00001C387D28AE8
:103D1800D28E000E120013501410D8B496EF1EF075
:103D280098EF1EF0A1EF1EF013501410D8A49FEFC7
:103D38001EF0A1EF1EF0A6EF1EF01150C3EC27F005
:103D4800FAEF1EF020EE04F01350D9261450DA22B0
:103D5800DE50DE10D8B4B3EF1EF0B5EF1EF0D0EF92
:103D68001EF020EE04F01350D9261450DA2210EE7B
:103D780002F01350E1261450E222DE50E65CE650D1
:103D8800800A196EDE50800A1958D8B0CEEF1EF09E
:103D9800D0EF1EF0FAEF1EF020EE02F01350D926F5
:103DA8001450DA226F0078FF15F06F0074FF16F0D8
:103DB80060004FF0D9FF600053F0DAFF6F0078FF22
:103DC80017F06F0074FF18F015501724D96E1650AD
:103DD8001820DA6E600047F0DFFF20EE02F0135083
:103DE800D9261450DA22DE2A000EDD221200BBEC9E
:103DF80027F0010EA26E000EA16E000E276E000EB7
:103E0800286E240E296EF40E2A6E000E2B6E28C022
:103E180011F029C012F02AC013F02BC014F01EC0F4
:103E280015F01FC016F020C017F021C018F0C0EC24
:103E380022F011C028F012C029F013C02AF014C0D3
:103E48002BF048EF1FF028C023F029C024F02AC027
:103E580025F02BC026F0D890263225322432233282
:103E680023C028F024C029F025C02AF026C02BF052
:103E7800272A070E276443EF1FF045EF1FF048EF8E
:103E88001FF0FE0E66EF1FF02B502A1006E12904E2
:103E9800D8B051EF1FF053EF1FF027EF1FF02804A1
:103EA8009F6E2738F00B276E2750A0122250D8B4E7
:103EB80060EF1FF062EF1FF065EF1FF03901A79167
:103EC8009781000E1200C1EC27F0010E966E000ECD
:103ED800956E000E276E000E286E240E296EF40EC5
:103EE8002A6E000E2B6E28C011F029C012F02AC0CD
:103EF80013F02BC014F01EC015F01FC016F020C020
:103F080017F021C018F0C0EC22F011C028F012C040
:103F180029F013C02AF014C02BF0B4EF1FF028C00A
:103F280023F029C024F02AC025F02BC026F0D89011
:103F3800263225322432233223C028F024C029F027
:103F480025C02AF026C02BF0272A070E2764AFEFDA
:103F58001FF0B1EF1FF0B4EF1FF0FE0ED2EF1FF00D
:103F68002B502A1006E12904D8B0BDEF1FF0BFEF8F
:103F78001FF093EF1FF02804936E2738F00B276E7D
:103F8800275094122250D8B4CCEF1FF0CEEF1FF078
:103F9800D1EF1FF03901A9919981000E1200195033
:103FA8001A101B101C101D101E101F102010D8B442
:103FB800E0EF1FF0E2EF1FF02AEF20F0010E216E74
:103FC800F0EF1FF0D89019361A361B361C361D36FE
:103FD8001E361F362036212A20AEF5EF1FF0F7EFE8
:103FE8001FF0E6EF1FF01950115C1A5012581B50C1
:103FF80013581C5014581D5015581E5016581F5051
:10400800175820501858D8A00CEF20F00EEF20F0C9
:104018001EEF20F01950115E1A50125A1B50135AF5
:104028001C50145A1D50155A1E50165A1F50175A14
:104038002050185AD89020321F321E321D321C329E
:104048001B321A321932212EF7EF1FF011C011F06E
:1040580012C012F013C013F014C014F015C015F0FC
:1040680016C016F017C017F018C018F01200136E1B
:104078003D0177AB42EF20F044EF20F04BEF20F00A
:1040880077AF49EF20F04BEF20F03CEF20F01250D3
:10409800FE0B6E6F60004FF06CFD738B000E146E9C
:1040A80066EF20F0000E1424D96EDA6A010EDA22C7
:1040B800DF506B6F78AB63EF20F065EF20F05EEFB9
:1040C80020F0142A1350145CD8A06DEF20F06FEF85
:1040D80020F056EF20F077BB74EF20F076EF20F059
:1040E8006FEF20F0125001096E6F600047F06CFD11
:1040F800738B000E156E92EF20F078A186EF20F0FA
:1041080088EF20F081EF20F0000E1524D96EDA6ACE
:10411800020EDA226F00ABF5DFFF152A1150155C8D
:10412800D8A099EF20F09BEF20F081EF20F01550F8
:10413800120046A0A2EF20F0A4EF20F0AEEF20F08E
:1041480023C01AF024C01BF021C01CF022C01DF0AF
:104158003AEC26F026BEB3EF20F0B5EF20F0BBEF27
:1041680020F025C02AF026C02BF0BFEF20F0000E6B
:104178002B6E000E2A6E000E296E000E286ED1EFEF
:1041880020F0000E126E200E116E21C013F022C016
:1041980014F08FEC1EF0284A292A2A50285C29504E
:1041A800800A276E2B50800A2758D8A0DEEF20F00F
:1041B800E0EF20F0C5EF20F046B0E5EF20F0E7EFA4
:1041C80020F0F1EF20F023C01AF024C01BF021C02A
:1041D8001CF022C01DF03AEC26F023C011F024C0D8
:1041E80012F07AEC26F02A501124216E2B5012205E
:1041F800226E12006000B7F0D9FF6000BBF0DAFF52
:104208006000BFF0DFFF20EE04F02D50D9262E50BD
:10421800DA226000C3F0DFFF20EE03F02D50D9262C
:104228002E50DA226000CBF0DFFF20EE02F02D5096
:10423800D9262E50DA226000D3F0DFFF20EE08F0F6
:104248002D50D9262E50DA223150DF6E20EE07F09D
:104258002D50D9262E50DA223350DF6E20EE06F08C
:104268002D50D9262E50DA223550DF6E010E6AEC19
:1042780022F00009D8B443EF21F045EF21F048EFD0
:1042880021F0FE0E5BEF21F0BB96C396680E366EEA
:10429800E40EE82EFED7362EFCD700D0B8EC27F077
:1042A800BB862DC01DF02EC01EF05EEC23F0120060
:1042B800020E1A6E040E176E20EE03F01450D92663
:1042C8001550DA22DF50186E20EE07F01450D92668
:1042D8001550DA22DF50196E1604D8A476EF21F0B3
:1042E80078EF21F084EF21F0050E176E20EE07F02D
:1042F8001450D9261550DA22DF50186E8FEF21F0AE
:10430800020E1618D8A48BEF21F08DEF21F08FEF55
:1043180021F0030E1A6E17C000F118C001F1030E48
:104328001A18D8A49AEF21F09CEF21F09EEF21F003
:1043380019C002F1600053F0D9FF600057F0DAFFAE
:10434800DF50116E1A506AEC25F01A18D8A4AFEF96
:1043580021F0B1EF21F0B4EF21F0000EB5EF21F01C
:10436800FE0E1200020E1A6E060E176E20EE04F0F4
:104378001450D9261550DA22DF50186E20EE08F0B6
:104388001450D9261550DA22DF50196E1604D8A415
:10439800D0EF21F0D2EF21F0DEEF21F0070E176EFB
:1043A80020EE08F01450D9261550DA22DF50186E86
:1043B800E9EF21F0020E1618D8A4E5EF21F0E7EF97
:1043C80021F0E9EF21F0030E1A6E17C000F118C0B2
:1043D80001F1030E1A18D8A4F4EF21F0F6EF21F03A
:1043E800F8EF21F019C002F1600053F0D9FF600026
:1043F80057F0DAFFDF50116E1A506AEC25F01A18E0
:10440800D8A409EF22F00BEF22F00EEF22F0000EF5
:104418000FEF22F0FE0E1200020E1A6E020E176E39
:1044280020EE02F01450D9261550DA22DF50186E0B
:1044380020EE06F01450D9261550DA22DF50196EF6
:104448001604D8A42AEF22F02CEF22F038EF22F03D
:10445800030E176E20EE06F01450D9261550DA22F6
:10446800DF50186E43EF22F0020E1618D8A43FEF63
:1044780022F041EF22F043EF22F0030E1A6E17C02C
:1044880000F118C001F1030E1A18D8A44EEF22F05B
:1044980050EF22F052EF22F019C002F1600053F001
:1044A800D9FF600057F0DAFFDF50116E1A506AEC3E
:1044B80025F01A18D8A463EF22F065EF22F068EF10
:1044C80022F0000E69EF22F0FE0E12002C6EB3EC03
:1044D80027F0210E3A010C6F220E0D6F0C0EE16FC2
:1044E8000D0EE26F5289528BC398C39A040E3D0198
:1044F800736F800E746F080E756F080E7B6F2CC07B
:10450800C4F02C50D8B48BEF22F08DEF22F0A8EF36
:1045180022F0800E1E6E840E1F6E1E0E206E000E80
:10452800216E000E226E67EC1FF00009D8A49FEFE1
:1045380022F0A1EF22F0A5EF22F0BFEC27F0BEEFAA
:1045480022F0FE0EBFEF22F0200E1E6EA10E1F6E8F
:10455800070E206E000E216E000E226E67EC1FF013
:104568000009D8A4BAEF22F0BCEF22F0A5EF22F0A0
:10457800A1EF22F0000E1200000E196E000E1A6E46
:10458800000E1B6E000E1C6E15501610171018101A
:10459800D8B4D1EF22F0D3EF22F009EF23F0010EC7
:1045A8001D6EDDEF22F0D890153616361736183600
:1045B8001D2A18AEE2EF22F0E4EF22F0D7EF22F046
:1045C800D89019361A361B361C361550115C165001
:1045D80012581750135818501458D8A0F6EF22F054
:1045E800F8EF22F001EF23F01550115E1650125A21
:1045F8001750135A1850145A1980D8901832173275
:10460800163215321D2EE4EF22F019C011F01AC02F
:1046180012F01BC013F01CC014F012003901A7914E
:10462800010E0001B327000EB423B523B62316EC00
:1046380026F0B3C001F0B4C002F0B5C003F0B6C0B4
:1046480004F0F40E056E010E066E000E076E000EE5
:10465800086EA9EC23F00150021003100410D8A42E
:1046680038EF23F03AEF23F03DEF23F0010E00017D
:10467800C26FB3C001F0B4C002F0B5C003F0B6C059
:1046880004F0D00E056E070E066E000E076E000EC3
:10469800086EA9EC23F00150021003100410D8A4EE
:1046A80058EF23F05AEF23F05DEF23F0010E0001DD
:1046B800C16F11001DC014F01EC015F0020E166E59
:1046C8005CEC21F00009D8B46CEF23F06EEF23F016
:1046D80071EF23F0FE0EA8EF23F01DC014F01EC0EA
:1046E80015F0020E166E10EC22F00009D8B47FEF18
:1046F80023F081EF23F083EF23F06EEF23F01DC04A
:1047080014F01EC015F0020E166EB6EC21F000096A
:10471800D8B491EF23F093EF23F095EF23F06EEFE9
:1047280023F01DC016F01EC017F0020E186E24EC00
:104738001DF00009D8B4A3EF23F0A5EF23F0A7EFED
:1047480023F06EEF23F0000E12000550061007103C
:104758000810D8B4B2EF23F0B4EF23F0E4EF23F05D
:10476800010E096EBEEF23F0D890053606360736DF
:104778000836092A08AEC3EF23F0C5EF23F0B8EFD7
:1047880023F00550015C06500258075003580850A2
:104798000458D8A0D2EF23F0D4EF23F0DCEF23F0B5
:1047A8000550015E0650025A0750035A0850045A31
:1047B800D8900832073206320532092EC5EF23F0A9
:1047C80001C001F002C002F003C003F004C004F00D
:1047D8001200540EF66E4F0EF76E000EF86E00EED5
:1047E800CAF110EE11F009006F00D7FFEEFFE55097
:1047F800E150F9E100EE00F310EE00F1EE6AE55049
:10480800E150FCE1E250FAE100EE00F2800EEE6ABF
:10481800E806FDE100EE00F1CA0EEE6AE806FDE1E9
:1048280000EEB3F0140EEE6AE806FDE100EE3EF08D
:10483800120EEE6AE806FDE1080ED56E000ED66E81
:10484800000ED76E00015FEF1BF0000E176E000E12
:10485800166E13501410D8B434EF24F036EF24F049
:104868005EEF24F0010E156E3EEF24F0D89013365B
:104878001436152A14AE43EF24F045EF24F03AEF2E
:1048880024F0D890163617361350115C145012586D
:10489800D8A051EF24F053EF24F058EF24F0135030
:1048A800115E1450125A1680D89014321332152EF5
:1048B80045EF24F016C011F017C012F0120097C08F
:1048C8009BF098C09CF0000E01018D6F000E8C6F5C
:1048D80085EF24F095C07CF096C07DF09B0E00011A
:1048E8007E6F000E7F6F99C080F09AC081F03DEC1A
:1048F80010F000017C5101018C2700017D5101015C
:104908008D2360006FF2F6FF600073F2F7FF000E70
:10491800F86E0800F5500009D8A495EF24F097EF39
:1049280024F06EEF24F08CC195F08DC196F0120042
:1049380023C011F024C012F07AEC26F0020E1126E2
:10494800000E1222125007E1400E115CD8B0AFEFF2
:1049580024F0B1EF24F0CDEF24F0600E156E000EB8
:10496800166E23C017F024C018F0D4EC24F0600EA3
:104978001F6E000E206E750E216E200E226E48EC02
:1049880027F0600E156E000E166E0DEC1CF0D3EFBE
:1049980024F023C015F024C016F00DEC1CF0120012
:1049A80017C01BF018C01CF015C01DF016C01EF073
:1049B8001B50196E1C501A6E1B4A1C2A600067F0A7
:1049C800F6FF60006BF0F7FF000EF86E600077F0FE
:1049D800D9FF60007BF0DAFF1D4A1E2A1F0EF7641C
:1049E80003D00800F55007D06F00DBFFE1FF6F0030
:1049F800DFFFE2FFE750DF6EDF50D8A406EF25F0B7
:104A080008EF25F0DCEF24F0120013501410D8B48E
:104A180010EF25F012EF25F036EF25F0010E156E98
:104A28001AEF25F0D89013361436152A14AE1FEF56
:104A380025F021EF25F016EF25F01350115C1450E6
:104A48001258D8A02AEF25F02CEF25F030EF25F0EA
:104A58001350115E1450125AD89014321332152E76
:104A680021EF25F011C011F012C012F012009F0EB4
:104A7800196EFF0E1A6E17C01BF018C01CF01950E3
:104A88001B261A501C221C500AE11A0E1B5CD8A0C7
:104A980050EF25F053EF25F0010E54EF25F0000EEE
:104AA8001D6E1E6A1D501E10D8B45DEF25F05FEF15
:104AB80025F065EF25F05F0E1714176E186A69EF79
:104AC80025F017C017F018C018F01200126E3D013B
:104AD80077AF71EF25F073EF25F06BEF25F01150EC
:104AE800FE0B6E6F60004BF06CFD738B000E136E47
:104AF8008EEF25F0000E1324D96EDA6A010EDA2241
:104B0800DF506B6F78AB8BEF25F08DEF25F086EFDC
:104B180025F0132A1250135CD8A095EF25F097EFD3
:0A4B280025F07EEF25F01350120077
:104B34006F0060FF0AF03901A3994E504F18D8A4B2
:104B4400A6EF25F0A8EF25F0B4EF25F04D50D8A43A
:104B5400AEEF25F0B0EF25F0B4EF25F09399A399CB
:104B6400BEEF25F0000E4F24D96EDA6A030EDA2266
:104B7400DF503D01EA6F4F2A000E4D6E60002BF0AE
:104B8400D8FF1100A10E0001A76F000EA86F9DC0F1
:104B9400A9F09EC0AAF0000EAC6F000EAB6F000E21
:104BA400AE6F000EAD6FA90E956F000E966F9FC08D
:104BB40097F0A0C098F0A70E996F000E9A6F63EC5F
:104BC40024F00001AB519D25D96EAC519E21DA6EC3
:104BD400000EDF6E1200010E176E200E1118121057
:104BE400D8B4F7EF25F0F9EF25F012EF26F0F70E21
:104BF400136EFF0E146E11C015F012C016F0135090
:104C0400152614501622165009E1050E155CD8A07D
:104C14000EEF26F010EF26F012EF26F0000E176EBE
:104C240017C011F0126A1200F00EBC1648C001F051
:104C3400010E026E012A21EF26F0D8900236012ED1
:104C44001FEF26F00250BC123E0E4824D96EDA6AD9
:104C5400000EDA22DF50BD6E482A030E486435EF99
:104C640026F037EF26F039EF26F0000E486E1200DA
:104C7400000E206E000E1F6E4BEF26F01EC011F0CA
:104C8400126A1CC013F01DC014F08FEC1EF01F4AF2
:104C9400202A1F501A24D96E20501B20DA6EDF50B0
:104CA4001E6E1E50D8A459EF26F05BEF26F040EF9D
:104CB40026F012009F0E136EFF0E146E200E1110BC
:104CC400156E000E1210166E13501526145016226F
:104CD40016500AE11A0E155CD8A073EF26F076EF91
:104CE40026F0010E77EF26F0000E116E126A120004
:104CF40011C013F012C014F082EF26F0114A122AE8
:104D0400600047F0D9FF60004BF0DAFFDF50D8A411
:104D14008EEF26F090EF26F080EF26F01350115C12
:104D2400116E14501258126E12009F0E136EFF0E65
:104D3400146E11C015F012C016F01350152614503D
:104D4400162216500AE11A0E155CD8A0ACEF26F014
:104D5400AFEF26F0010EB0EF26F0000E116E126ACE
:104D64001200BF0E136EFF0E146E11C015F012C0A8
:104D740016F0135015261450162216500AE11A0E76
:104D8400155CD8A0C8EF26F0CBEF26F0010ECCEFCF
:104D940026F0000E116E126A1200D00E136EFF0E72
:104DA400146E11C015F012C016F0135015261450CD
:104DB400162216500AE10A0E155CD8A0E4EF26F07C
:104DC400E7EF26F0010EE8EF26F0000E116E126AEE
:104DD4001200BC90BC92BC94BC96C490C492C4947F
:104DE400C496BD68000EC56E000E486E000E00012C
:104DF400C56F21C018F022C019F0040E1A6E22ECFF
:104E040015F0000E120020EE02F01B50D9261C50A3
:104E1400DA22600077F0DFFF20EE06F01B50D9267F
:104E24001C50DA221E50DF6E1BC014F01CC015F09B
:104E3400020E166E10EC22F01200115013026F00D5
:104E4400CCFF15F06F00D0FF16F011501402F35090
:104E5400162612501302F350162615C011F016C070
:104E640012F01200600E3901D96F080EDF6FDCBD3D
:104E74003EEF27F040EF27F047EF27F0DCA145EFA6
:104E840027F047EF27F039EF27F012001FC011F089
:104E940020C012F07AEC26F011501F24156E125027
:104EA4002020166E21C017F022C018F0D4EC24F094
:024EB4001200EA
:104EB8003901A491010192519311D8A466EF27F00A
:104EC80068EF27F06BEF27F0000E0001C06F010EAE
:064ED8000001BC6F110097
:104EE0003901A69D010190519111D8A47AEF27F0C4
:104EF0007CEF27F07FEF27F0000E0001BB6F010E63
:064F00000001B76F110073
:104F08003901A89D01018E518F11D8A48EEF27F089
:104F180090EF27F092EF27F0000EA06F010E9C6F24
:104F28001100000E3A01406F000E506F000E606FC6
:104F3800000E706F000E806F12001DC016F01EC0AC
:104F480017F0020E186E24EC1DF01200C0F9A4B080
:0D4F5800999282F880908883C6A1868EDF32
:104F66003D01739FC1EC27F012003D01738F1200C3
:104F7600A09E1200A08E1200948E1200949E120023
:044F86001200110004
:020000040020DA
:10000000FF0FFF0FFF0FFF0FFF0FFF0FFF0FFF0F80
:020000040030CA
:0A0000008CFFFFFFFFFFFFFFFFFF73
:00000001FF
